{"contracts/MarrakechGame.sol":{"MarrakechGame":{"abi":[{"inputs":[{"internalType":"address","name":"_usdc","type":"address"},{"internalType":"uint256","name":"_stakeAmount","type":"uint256"},{"internalType":"uint16","name":"_platformFeeBps","type":"uint16"},{"internalType":"address","name":"_platformWallet","type":"address"},{"internalType":"uint8","name":"_numPlayers","type":"uint8"},{"internalType":"address","name":"_creator","type":"address"}],"stateMutability":"nonpayable","type":"constructor"},{"anonymous":false,"inputs":[{"indexed":false,"internalType":"uint8","name":"row","type":"uint8"},{"indexed":false,"internalType":"uint8","name":"col","type":"uint8"},{"indexed":false,"internalType":"enum MarrakechGame.Direction","name":"direction","type":"uint8"}],"name":"AssamMoved","type":"event"},{"anonymous":false,"inputs":[{"indexed":true,"internalType":"uint8","name":"playerIndex","type":"uint8"},{"indexed":false,"internalType":"enum MarrakechGame.Direction","name":"direction","type":"uint8"}],"name":"AssamOriented","type":"event"},{"anonymous":false,"inputs":[{"indexed":false,"internalType":"uint8","name":"row","type":"uint8"},{"indexed":false,"internalType":"uint8","name":"col","type":"uint8"},{"indexed":false,"internalType":"enum MarrakechGame.Direction","name":"exitDirection","type":"uint8"},{"indexed":false,"internalType":"uint8","name":"remainingSteps","type":"uint8"}],"name":"BorderChoiceRequired","type":"event"},{"anonymous":false,"inputs":[{"indexed":true,"internalType":"uint8","name":"playerIndex","type":"uint8"},{"indexed":false,"internalType":"enum MarrakechGame.Direction","name":"direction","type":"uint8"}],"name":"BorderDirectionChosen","type":"event"},{"anonymous":false,"inputs":[{"indexed":true,"internalType":"uint8","name":"playerIndex","type":"uint8"},{"indexed":false,"internalType":"uint8","name":"r1","type":"uint8"},{"indexed":false,"internalType":"uint8","name":"c1","type":"uint8"},{"indexed":false,"internalType":"uint8","name":"r2","type":"uint8"},{"indexed":false,"internalType":"uint8","name":"c2","type":"uint8"}],"name":"CarpetPlaced","type":"event"},{"anonymous":false,"inputs":[{"indexed":true,"internalType":"uint8","name":"playerIndex","type":"uint8"},{"indexed":false,"internalType":"bytes32","name":"commitHash","type":"bytes32"}],"name":"DiceCommitted","type":"event"},{"anonymous":false,"inputs":[{"indexed":true,"internalType":"uint8","name":"playerIndex","type":"uint8"},{"indexed":false,"internalType":"uint8","name":"value","type":"uint8"}],"name":"DiceRevealed","type":"event"},{"anonymous":false,"inputs":[],"name":"GameCancelled","type":"event"},{"anonymous":false,"inputs":[{"indexed":false,"internalType":"uint8","name":"winnerIndex","type":"uint8"},{"indexed":false,"internalType":"address","name":"winnerWallet","type":"address"}],"name":"GameFinished","type":"event"},{"anonymous":false,"inputs":[],"name":"GameStarted","type":"event"},{"anonymous":false,"inputs":[{"indexed":true,"internalType":"uint8","name":"playerIndex","type":"uint8"}],"name":"PlayerEliminated","type":"event"},{"anonymous":false,"inputs":[{"indexed":true,"internalType":"uint8","name":"playerIndex","type":"uint8"},{"indexed":false,"internalType":"address","name":"wallet","type":"address"}],"name":"PlayerJoined","type":"event"},{"anonymous":false,"inputs":[{"indexed":false,"internalType":"address","name":"winner","type":"address"},{"indexed":false,"internalType":"uint256","name":"amount","type":"uint256"},{"indexed":false,"internalType":"address","name":"platform","type":"address"},{"indexed":false,"internalType":"uint256","name":"fee","type":"uint256"}],"name":"PrizeDistributed","type":"event"},{"anonymous":false,"inputs":[{"indexed":true,"internalType":"uint8","name":"playerIndex","type":"uint8"}],"name":"TimeoutClaimed","type":"event"},{"anonymous":false,"inputs":[{"indexed":true,"internalType":"uint8","name":"playerIndex","type":"uint8"}],"name":"TributeAcknowledged","type":"event"},{"anonymous":false,"inputs":[{"indexed":false,"internalType":"uint8","name":"fromPlayer","type":"uint8"},{"indexed":false,"internalType":"uint8","name":"toPlayer","type":"uint8"},{"indexed":false,"internalType":"uint16","name":"amount","type":"uint16"}],"name":"TributeCalculated","type":"event"},{"inputs":[],"name":"acknowledgeTribute","outputs":[],"stateMutability":"nonpayable","type":"function"},{"inputs":[],"name":"assam","outputs":[{"internalType":"uint8","name":"row","type":"uint8"},{"internalType":"uint8","name":"col","type":"uint8"},{"internalType":"enum MarrakechGame.Direction","name":"direction","type":"uint8"}],"stateMutability":"view","type":"function"},{"inputs":[{"internalType":"uint256","name":"","type":"uint256"}],"name":"boardCarpetIds","outputs":[{"internalType":"uint8","name":"","type":"uint8"}],"stateMutability":"view","type":"function"},{"inputs":[{"internalType":"uint256","name":"","type":"uint256"}],"name":"boardPlayerIds","outputs":[{"internalType":"uint8","name":"","type":"uint8"}],"stateMutability":"view","type":"function"},{"inputs":[],"name":"borderChoice","outputs":[{"internalType":"uint8","name":"row","type":"uint8"},{"internalType":"uint8","name":"col","type":"uint8"},{"internalType":"enum MarrakechGame.Direction","name":"exitDirection","type":"uint8"},{"internalType":"uint8","name":"remainingSteps","type":"uint8"}],"stateMutability":"view","type":"function"},{"inputs":[],"name":"cancelGame","outputs":[],"stateMutability":"nonpayable","type":"function"},{"inputs":[{"internalType":"enum MarrakechGame.Direction","name":"dir","type":"uint8"}],"name":"chooseBorderDirection","outputs":[],"stateMutability":"nonpayable","type":"function"},{"inputs":[],"name":"claimTimeout","outputs":[],"stateMutability":"nonpayable","type":"function"},{"inputs":[{"internalType":"bytes32","name":"hash","type":"bytes32"}],"name":"commitDice","outputs":[],"stateMutability":"nonpayable","type":"function"},{"inputs":[],"name":"createdAt","outputs":[{"internalType":"uint256","name":"","type":"uint256"}],"stateMutability":"view","type":"function"},{"inputs":[],"name":"currentPlayerIndex","outputs":[{"internalType":"uint8","name":"","type":"uint8"}],"stateMutability":"view","type":"function"},{"inputs":[],"name":"currentTribute","outputs":[{"internalType":"uint8","name":"fromPlayerIdx","type":"uint8"},{"internalType":"uint8","name":"toPlayerIdx","type":"uint8"},{"internalType":"uint16","name":"amount","type":"uint16"}],"stateMutability":"view","type":"function"},{"inputs":[],"name":"diceCommit","outputs":[{"internalType":"bytes32","name":"commitHash","type":"bytes32"},{"internalType":"uint256","name":"commitBlock","type":"uint256"}],"stateMutability":"view","type":"function"},{"inputs":[],"name":"factory","outputs":[{"internalType":"address","name":"","type":"address"}],"stateMutability":"view","type":"function"},{"inputs":[],"name":"getAssam","outputs":[{"internalType":"uint8","name":"row","type":"uint8"},{"internalType":"uint8","name":"col","type":"uint8"},{"internalType":"enum MarrakechGame.Direction","name":"direction","type":"uint8"}],"stateMutability":"view","type":"function"},{"inputs":[],"name":"getBoard","outputs":[{"internalType":"uint8[49]","name":"playerIds","type":"uint8[49]"},{"internalType":"uint8[49]","name":"carpetIds","type":"uint8[49]"}],"stateMutability":"view","type":"function"},{"inputs":[],"name":"getBorderChoiceInfo","outputs":[{"internalType":"uint8","name":"row","type":"uint8"},{"internalType":"uint8","name":"col","type":"uint8"},{"internalType":"enum MarrakechGame.Direction","name":"exitDirection","type":"uint8"},{"internalType":"uint8","name":"remainingSteps","type":"uint8"}],"stateMutability":"view","type":"function"},{"inputs":[],"name":"getFullState","outputs":[{"internalType":"enum MarrakechGame.GameStatus","name":"_status","type":"uint8"},{"internalType":"enum MarrakechGame.Phase","name":"_phase","type":"uint8"},{"internalType":"uint8","name":"_currentPlayerIndex","type":"uint8"},{"internalType":"uint16","name":"_turnNumber","type":"uint16"},{"internalType":"uint8","name":"_numPlayers","type":"uint8"},{"internalType":"uint8","name":"_joinedCount","type":"uint8"},{"internalType":"uint8","name":"_lastDiceValue","type":"uint8"},{"internalType":"uint8","name":"_assamRow","type":"uint8"},{"internalType":"uint8","name":"_assamCol","type":"uint8"},{"internalType":"enum MarrakechGame.Direction","name":"_assamDir","type":"uint8"},{"internalType":"uint8[49]","name":"_boardPlayerIds","type":"uint8[49]"},{"internalType":"uint8[49]","name":"_boardCarpetIds","type":"uint8[49]"}],"stateMutability":"view","type":"function"},{"inputs":[],"name":"getGameState","outputs":[{"internalType":"enum MarrakechGame.GameStatus","name":"_status","type":"uint8"},{"internalType":"enum MarrakechGame.Phase","name":"_phase","type":"uint8"},{"internalType":"uint8","name":"_currentPlayerIndex","type":"uint8"},{"internalType":"uint16","name":"_turnNumber","type":"uint16"},{"internalType":"uint8","name":"_numPlayers","type":"uint8"},{"internalType":"uint8","name":"_joinedCount","type":"uint8"},{"internalType":"uint8","name":"_lastDiceValue","type":"uint8"}],"stateMutability":"view","type":"function"},{"inputs":[{"internalType":"uint8","name":"idx","type":"uint8"}],"name":"getPlayer","outputs":[{"internalType":"address","name":"wallet","type":"address"},{"internalType":"uint16","name":"dirhams","type":"uint16"},{"internalType":"uint8","name":"carpetsRemaining","type":"uint8"},{"internalType":"bool","name":"eliminated","type":"bool"},{"internalType":"bool","name":"joined","type":"bool"}],"stateMutability":"view","type":"function"},{"inputs":[{"internalType":"address","name":"wallet","type":"address"}],"name":"getPlayerIndex","outputs":[{"internalType":"int8","name":"","type":"int8"}],"stateMutability":"view","type":"function"},{"inputs":[],"name":"getPlayers","outputs":[{"internalType":"address[4]","name":"wallets","type":"address[4]"},{"internalType":"uint16[4]","name":"dirhamsArr","type":"uint16[4]"},{"internalType":"uint8[4]","name":"carpetsArr","type":"uint8[4]"},{"internalType":"bool[4]","name":"eliminatedArr","type":"bool[4]"},{"internalType":"bool[4]","name":"joinedArr","type":"bool[4]"}],"stateMutability":"view","type":"function"},{"inputs":[],"name":"getTributeInfo","outputs":[{"internalType":"uint8","name":"fromPlayer","type":"uint8"},{"internalType":"uint8","name":"toPlayer","type":"uint8"},{"internalType":"uint16","name":"amount","type":"uint16"}],"stateMutability":"view","type":"function"},{"inputs":[],"name":"joinGame","outputs":[],"stateMutability":"nonpayable","type":"function"},{"inputs":[],"name":"joinedCount","outputs":[{"internalType":"uint8","name":"","type":"uint8"}],"stateMutability":"view","type":"function"},{"inputs":[],"name":"lastActionBlock","outputs":[{"internalType":"uint256","name":"","type":"uint256"}],"stateMutability":"view","type":"function"},{"inputs":[],"name":"lastDiceValue","outputs":[{"internalType":"uint8","name":"","type":"uint8"}],"stateMutability":"view","type":"function"},{"inputs":[],"name":"numPlayers","outputs":[{"internalType":"uint8","name":"","type":"uint8"}],"stateMutability":"view","type":"function"},{"inputs":[{"internalType":"enum MarrakechGame.Direction","name":"dir","type":"uint8"}],"name":"orientAssam","outputs":[],"stateMutability":"nonpayable","type":"function"},{"inputs":[],"name":"phase","outputs":[{"internalType":"enum MarrakechGame.Phase","name":"","type":"uint8"}],"stateMutability":"view","type":"function"},{"inputs":[{"internalType":"uint8","name":"r1","type":"uint8"},{"internalType":"uint8","name":"c1","type":"uint8"},{"internalType":"uint8","name":"r2","type":"uint8"},{"internalType":"uint8","name":"c2","type":"uint8"}],"name":"placeCarpet","outputs":[],"stateMutability":"nonpayable","type":"function"},{"inputs":[],"name":"platformFeeBps","outputs":[{"internalType":"uint16","name":"","type":"uint16"}],"stateMutability":"view","type":"function"},{"inputs":[],"name":"platformWallet","outputs":[{"internalType":"address","name":"","type":"address"}],"stateMutability":"view","type":"function"},{"inputs":[{"internalType":"uint256","name":"","type":"uint256"}],"name":"players","outputs":[{"internalType":"address","name":"wallet","type":"address"},{"internalType":"uint16","name":"dirhams","type":"uint16"},{"internalType":"uint8","name":"carpetsRemaining","type":"uint8"},{"internalType":"bool","name":"eliminated","type":"bool"},{"internalType":"bool","name":"joined","type":"bool"}],"stateMutability":"view","type":"function"},{"inputs":[{"internalType":"uint256","name":"salt","type":"uint256"}],"name":"revealDice","outputs":[],"stateMutability":"nonpayable","type":"function"},{"inputs":[],"name":"stakeAmount","outputs":[{"internalType":"uint256","name":"","type":"uint256"}],"stateMutability":"view","type":"function"},{"inputs":[],"name":"status","outputs":[{"internalType":"enum MarrakechGame.GameStatus","name":"","type":"uint8"}],"stateMutability":"view","type":"function"},{"inputs":[],"name":"turnNumber","outputs":[{"internalType":"uint16","name":"","type":"uint16"}],"stateMutability":"view","type":"function"},{"inputs":[],"name":"usdc","outputs":[{"internalType":"contract IERC20","name":"","type":"address"}],"stateMutability":"view","type":"function"}],"evm":{"bytecode":{"linkReferences":{},"object":"61012034620003c3576001600160401b0390601f62003dbc38819003918201601f19168301919084831184841017620003ad578160c09285926040958652833981010312620003c3576200005382620003c8565b9160209081810151838201519561ffff87168703620003c3576200007a60608401620003c8565b9260808101519760ff91828a1690818b03620003c35760a06200009e9101620003c8565b9888519660c0880188811087821117620003ad578a5260019384895260028a8a015260028b8a01526003978860608b01528860808b01526004998a60a08201526000908c886000915b8d600684106200038c57505050505060005560028510158062000381575b156200033e5760018060a01b0380941660805260a05260c05260e05261010099338b526200013d84549c4260115543601055620003dd565b918a519160a083018381108982111762000329578c5216808252601e8a8301528583168b83015260006060830181905260809092018590526002805460b09490941b60ff60b01b16600f60a11b6001600160b81b03199590951683179490941761ffff60b81b191693909317600160c01b1790925563ffffffff19909b1690911789178255979896979596815b620002c6575b505050855192606084019184831090831117620002b1575085528082528184015260009084018190526006805462ffffff19166103031790558351918252917fd4f57815000e6f354149b86e4f473ea312f41ed40ba3af5a8a5cb5dc77411e5891a2516139ba91826200040283396080518281816106620152818161081701528181611853015281816129f00152612a83015260a051828181610624015281816107de0152818161159f01526128c8015260c051828181611c2201526128f8015260e0518281816102090152818161294c01526129b301525181610d7a0152f35b604190634e487b7160e01b6000525260246000fd5b603180848316101562000322578110156200030d57828282819360051c80600701908154918560f8858d1b161b8019809416179055600901908154169055011690620001ca565b603286634e487b7160e01b6000525260246000fd5b50620001d0565b60418b634e487b7160e01b6000525260246000fd5b8b5162461bcd60e51b8152808b018c9052601460248201527f496e76616c696420706c6179657220636f756e740000000000000000000000006044820152606490fd5b508985111562000105565b90919293948c8581885116931b92831b921b19161793019101888e620000e7565b634e487b7160e01b600052604160045260246000fd5b600080fd5b51906001600160a01b0382168203620003c357565b60ff1660028114620003fb57600314620003f657600c90565b600f90565b5060189056fe608060405260048036101561001357600080fd5b600090813560e01c9081630e1da6c314611e3157816313cb036214611d5f57816313d45f6614611c73578163200d2ed214611c4657816322dcd13e14611c075781632d4635f214611bce578163315a2735146113da5781633264a34b1461190c57816339fddff6146118825781633e413bee1461183d5781634669d629146116125781634a478d96146115e75781635700401e146115c25781635e59efc314610d0257816360c7dc4714611587578163726897dc146114385781637585e49f14611417578163764a5168146113da57816376fc860d14610e695781638b5b9ccc14611225578163972161f714610ebf57816397b2f55614610e9e578163a3acbe7114610e69578163a6dc731814610e4b578163b1c9fe6e14610e20578163b7d0628b14610da9578163c45a015514610d64578163c7198b0714610d3f578163cb6f117a14610d02578163cf09e0d014610ce4578163cf8515f414610cc0578163d40e27b514610ad4578163d4f77b1c14610773578163d84c1ac914610549578163dc118ad51461050e578163e75a0469146102b0578163f71d96cb1461023857508063fa2af9da146101f35763fb9bdab4146101ce57600080fd5b346101f057806003193601126101f057602060015460ff60405191831c168152f35b80fd5b50346101f057806003193601126101f0576040517f00000000000000000000000000000000000000000000000000000000000000006001600160a01b03168152602090f35b9050346102ac5760203660031901126102ac578035908110156102ac5760020154604080516001600160a01b038316815260a083811c61ffff16602083015260b084901c60ff9081169383019390935260b884901c83161515606083015260c09390931c90911615156080820152f35b0390f35b5080fd5b9050346102ac5760803660031901126102ac576102cb611f61565b60243560ff9283821680830361050a576044359285841692838503610506576064359487861695868103610502576001549361031760018b8760101c1661031181611f16565b14612045565b898560201c1693808510156104ef57600285018054909690916103446001600160a01b0384163314612083565b8c8260181c1660088110156104dc578587868f610366600661036b96146120bf565b6135ef565b156104a45750608099979561041e8c6104008f987f049432fe383bc0b8d4eb48af3362d3d989f86214f5f0336a0a92884dcff4160f9f9d9b986103f6610419916103eb6103f06104329c61045b9f6103de6103eb9e826104009f6103e3946103d391166135cd565b9160b01c16906124f1565b61252e565b9c8d99612554565b612540565b94612554565b9561040083611f76565b90919060ff8084549260031b9316831b921b1916179055565b611fa4565b6104198d60015460201c1661040083611f76565b61044189825460b01c16612569565b815460ff60b01b191660b09190911b60ff60b01b16179055565b8660015460201c169660405194168452602084015260408301526060820152a2610483613833565b1561049757610490612849565b4360105580f35b61049f6126cb565b610490565b60649060206040519162461bcd60e51b83528201526011602482015270125b9d985b1a59081c1b1858d95b595b9d607a1b6044820152fd5b634e487b7160e01b8f526021825260248ffd5b634e487b7160e01b8c526032905260248bfd5b8980fd5b8780fd5b8580fd5b9050346102ac5760203660031901126102ac57359060318210156101f057602060ff61053984611fa4565b9190546040519260031b1c168152f35b9050346102ac57816003193601126102ac57600180549160ff9260ff8160101c1661057381611f16565b61073c57601154610e1081018091116107295742106106ef5763ffff0000191663070300001760015583825b6105cc575b847f1dc43dc4f1689be1269b3e80407b3401b4cb752c02591cac32e47dfd758af27d8180a180f35b83835460081c1684821610156106ea57818110156106d757908382849360020154828160c01c16610603575b50830116909161059f565b6040805163a9059cbb60e01b81526001600160a01b039283168682019081527f0000000000000000000000000000000000000000000000000000000000000000602082810191909152975090945086928592909183918c9183910103927f0000000000000000000000000000000000000000000000000000000000000000165af19081156106cc5785948793869361069e575b5050906105f8565b816106bd92903d106106c5575b6106b58183612180565b810190612505565b503880610696565b503d6106ab565b6040513d89823e3d90fd5b634e487b7160e01b855260328252602485fd5b6105a4565b60405162461bcd60e51b81526020818401526013602482015272151bdbc819585c9b1e481d1bc818d85b98d95b606a1b6044820152606490fd5b634e487b7160e01b865260118352602486fd5b60405162461bcd60e51b8152602081840152601060248201526f47616d65206e6f742077616974696e6760801b6044820152606490fd5b9050346102ac57816003193601126102ac57600190815460ff90818160181c169060089182811015610ac1576107a990156120bf565b8280821691831c161015610a91576107c033613573565b610a5c576040516323b872dd60e01b815233848201523060248201527f00000000000000000000000000000000000000000000000000000000000000006044820152602092906001600160a01b039084816064818b7f000000000000000000000000000000000000000000000000000000000000000087165af1908115610a51578891610a34575b50156109f957855494610861838088871c1697166135cd565b916040519260a0840184811067ffffffffffffffff8211176109e657604052338452868401601e815285604086019216825260608501928b845260808601948b8652808b10156109d35750945160028a018054925161ffff60a01b60a09190911b166001600160b01b03199093169190961661ffff60a01b1916171784556108ff90859051855460ff60b01b1916911660b01b60ff60b01b16178455565b518254915161ffff60b81b1990921690151560b81b60ff60b81b161790151560c01b60ff60c01b1617905584549261ff0061093d85851c841661251d565b841b16947fd4f57815000e6f354149b86e4f473ea312f41ed40ba3af5a8a5cb5dc77411e588661ff001987161792838955604051338152a2818416921c1614610984578380f35b62ffff00191617620100001766ffffffff000000191665010001000000179055436010557f762f260439bb4be3ef6e4dc2786e2e7bd187d3d80b79057d7a424fe98563e3358180a13880808380f35b634e487b7160e01b8d526032905260248cfd5b634e487b7160e01b8b526041845260248bfd5b60405162461bcd60e51b815280860185905260146024820152731554d110c81d1c985b9cd9995c8819985a5b195960621b6044820152606490fd5b610a4b9150853d87116106c5576106b58183612180565b38610848565b6040513d8a823e3d90fd5b60405162461bcd60e51b8152602081850152600e60248201526d105b1c9958591e481a9bda5b995960921b6044820152606490fd5b60405162461bcd60e51b8152602081850152600960248201526811d85b5948199d5b1b60ba1b6044820152606490fd5b634e487b7160e01b875260218552602487fd5b9050346102ac57602080600319360112610cbc57813582811015610cb85760015460ff93610b0c6001868460101c1661031181611f16565b8482851c169181831015610ca5578590610b3360018060a01b038560020154163314612083565b60181c166008811015610c925781610b4b91146120bf565b610b5483612fa6565b15610c56575091610b9b8492610c3d947f4fefad3e9890ca3bb9a7e97d9488e8f968587d66480fc6060dc61959d13750bb84604051610b9285611f16565b848152a261306f565b600d549183610bc782610bb585518b0b8488168c0b6124ae565b940151890b828660081c168a0b6124ae565b9281610bd7818760101c16613116565b938160405193610be68561212b565b168352820194168452610bf883611f16565b826040820152511662ff000061ff00600654945160081b1692610c1a81611f16565b610c2381611f16565b60101b169262ffffff191617171760065560181c166124de565b908116610c4d575061049061315d565b61049f90612ce2565b60405162461bcd60e51b81529081018490526015602482015274496e76616c696420626f726465722063686f69636560581b6044820152606490fd5b634e487b7160e01b875260218252602487fd5b634e487b7160e01b875260328252602487fd5b8380fd5b8280fd5b82346101f057806003193601126101f057602060ff60015460081c16604051908152f35b82346101f057806003193601126101f0576020601154604051908152f35b82346101f057806003193601126101f0576102a8600d54604051918160ff849360181c169060ff8160101c169060ff808260081c16911685611fbc565b82346101f057806003193601126101f0576040600b54600c5482519182526020820152f35b82346101f057806003193601126101f0576040517f00000000000000000000000000000000000000000000000000000000000000006001600160a01b03168152602090f35b82346101f057806003193601126101f05760e060015460ff90818160101c169180600f54169160405193610ddc81611f16565b8452610df060208501838360181c16612038565b818160201c16604085015261ffff8160281c166060850152818116608085015260081c1660a083015260c0820152f35b82346101f057806003193601126101f057602060ff60015460181c16610e496040518092612038565bf35b82346101f057806003193601126101f0576020601054604051908152f35b82346101f057806003193601126101f0576102a8600654604051918160ff849360101c169060ff808260081c16911684611fea565b82346101f057806003193601126101f057602060ff60015416604051908152f35b82346101f057806003193601126101f057604051610edc81612147565b6106208091369037604051610ef081612147565b36903760015460ff600f5416600654610f07612223565b9060405192836009965b6031601f820110611092575061108792610e4995949260ff9261020084610d809b548181168452818160081c166020850152818160101c166040850152818160181c166060850152818160201c166080850152818160281c1660a0850152818160301c1660c0850152818160381c1660e0850152818160401c16610100850152818160481c16610120850152818160501c16610140850152818160581c16610160850152818160601c16610180850152818160681c166101a0850152818160701c166101c0850152818160781c166101e085015260801c16910152610ff586612147565b8260405198611008828260101c16611f16565b818160101c168a5261102260208b01838360181c16612038565b818160201c1660408b015261ffff8160281c1660608b015281811660808b015260081c1660a089015260c088015281811660e0880152818160081c16610100880152611072828260101c16611f16565b60101c16610120860152610140850190611f36565b610760830190611f36565b9060016104006020928a5460ff8116825260ff8160081c168583015260ff8160101c16604083015260ff816060828260181c16818601528282608082828c1c1681890152828260a092828260281c16848c0152828260c0988d8a848460301c169101528d60e0848460381c169101528d610100848460401c169101528d610120848460481c169101528d610140848460501c169101528d610160848460581c169101521c166101808c0152828260681c166101a08c0152828260701c166101c08c0152828260781c166101e08c01521c16610200890152828260881c16610220890152828260901c16610240890152828260981c166102608901521c16610280860152828260a81c166102a0860152828260b01c166102c0860152828260b81c166102e08601521c1661030083015260ff8160c81c1661032083015260ff8160d01c1661034083015260ff8160d81c1661036083015260ff8160e01c1661038083015260ff8160e81c166103a083015260ff8160f01c166103c083015260f81c6103e08201520198019101969096610f11565b82346101f057806003193601126101f05760405161124281612164565b608091823683376040519261125684612164565b8036853760405161126681612164565b8136823760405161127681612164565b823682376040519161128783612164565b83368437845b60ff808216908a82101561132c578a83101561131957600283015460ff93600193909290611309906001600160a01b0384166112c9828f61249d565b528d6112dd8261ffff8760a01c169261249d565b52828460b01c166112ee828a61249d565b526112f9818a61249d565b838560b81c16151590528961249d565b9160c01c1615159052011661128d565b634e487b7160e01b885260328b52602488fd5b8589868d878c8f8d60405196879084915b8783106113ba5750505086019082915b85831061139f5750505061010085015b8382106113855761028086610e498961137a61018084018a61200e565b61020083019061200e565b60019060ff8451168152602080910193019101909161135d565b60019061ffff8351168152602080910192019201919061134d565b81516001600160a01b03168152600192909201916020918201910161133d565b82346101f057806003193601126101f057600e546040805160ff8084168252600884901c16602082015260109290921c61ffff1690820152606090f35b82346101f057806003193601126101f057602060ff600f5416604051908152f35b9050346102ac5760203660031901126102ac5780359080821015610cbc576001549061146f600160ff8460101c1661031181611f16565b60ff8260201c16818110156106d75760020154611496906001600160a01b03163314612083565b60ff8260181c1660088110156115745760016114b291146120bf565b600654906114c68460ff8460101c16612eee565b1561153c575060ff63020000007f0f76db49cb695510d836e64c343594a82d376326e031ba84f930c7befc2c1f1c9360209361150187611f16565b62ff00008760101b169062ff000019161760065563ff00000019161780600155436010556040519461153281611f16565b8552821c1692a280f35b60649060206040519162461bcd60e51b8352820152601160248201527024b73b30b634b2103234b932b1ba34b7b760791b6044820152fd5b634e487b7160e01b855260218252602485fd5b82346101f057806003193601126101f05760206040517f00000000000000000000000000000000000000000000000000000000000000008152f35b82346101f057806003193601126101f057602061ffff60015460281c16604051908152f35b9050346102ac5760203660031901126102ac57359060318210156101f057602060ff61053984611f76565b82346101f0576020806003193601126102ac57823560015490611640600160ff8460101c1661031181611f16565b60ff82841c16918583101561182a5760ff9061166960018060a01b038560020154163314612083565b60181c16600881101561181757600361168291146120bf565b600c5490814311156117d35761010082018083116117c057431161178b57604051848101908282528581526116b6816120f9565b519020600b5403611758579060069160405190858201924083526040820152604081526116e28161212b565b51902006600660ff8216101561174557907f7b1aa3c6771bf8d4df2d1c35e127b8ef900ea1664ea3290be43af7f79e5c9f1c60ff8360f86007610490979660051c16549160031b161c16928360ff19600f541617600f55604051848152a2612ce2565b634e487b7160e01b845260328552602484fd5b60405162461bcd60e51b8152808701859052600c60248201526b125b9d985b1a59081cd85b1d60a21b6044820152606490fd5b60405162461bcd60e51b8152808701859052600e60248201526d10dbdb5b5a5d08195e1c1a5c995960921b6044820152606490fd5b634e487b7160e01b865260118752602486fd5b60405162461bcd60e51b8152808701859052601a60248201527f4d7573742077616974206174206c65617374203120626c6f636b0000000000006044820152606490fd5b634e487b7160e01b855260218652602485fd5b634e487b7160e01b855260328652602485fd5b82346101f057806003193601126101f0576040517f00000000000000000000000000000000000000000000000000000000000000006001600160a01b03168152602090f35b82346101f05760203660031901126101f05761189c611f61565b91808310156118f9576002830154604080516001600160a01b038316815260a083811c61ffff16602083015260b084901c60ff9081169383019390935260b884901c83161515606083015260c09390931c90911615156080820152f35b634e487b7160e01b825260329052602490fd5b82346101f057806003193601126101f05760405161192981612147565b61062080913690378060405161193e81612147565b369037611949612223565b9060405190816009945b6031601f820110611a47575090610e499291610200610c40965460ff908181168452818160081c166020850152818160101c166040850152818160181c166060850152818160201c166080850152818160281c1660a0850152818160301c1660c0850152818160381c1660e0850152818160401c16610100850152818160481c16610120850152818160501c16610140850152818160581c16610160850152818160601c16610180850152818160681c166101a0850152818160701c166101c0850152818160781c166101e085015260801c16910152611a3282612147565b611a3f6040518095611f36565b830190611f36565b906001610400602092885460ff808216835280828482828a828260081c1681850152828260101c1660408501528282606092828260181c168488015282826080921c1681880152828260a095828260281c16878b015260c099838360301c168b820152838360381c1660e0820152838360401c16610100820152838360481c16610120820152838360501c16610140820152610160848460581c169101521c166101808d0152828260681c166101a08d0152828260701c166101c08d0152828260781c166101e08d01521c166102008a0152828260881c166102208a0152828260901c166102408a0152828260981c166102608a01521c16610280870152828260a81c166102a0870152828260b01c166102c0870152828260b81c166102e08701521c16610300840152808260c81c16610320840152808260d01c16610340840152808260d81c16610360840152808260e01c16610380840152808260e81c166103a08401528160f01c166103c083015260f81c6103e08201520196019101949094611953565b9050346102ac5760203660031901126102ac57356001600160a01b03811681036102ac5790611bfe6020926121a2565b604051910b8152f35b82346101f057806003193601126101f057602060405161ffff7f0000000000000000000000000000000000000000000000000000000000000000168152f35b82346101f057806003193601126101f057602060ff60015460101c1660405190611c6f81611f16565b8152f35b9050346102ac5760203660031901126102ac5780359060015490611ca2600160ff8460101c1661031181611f16565b60ff8260201c16818110156106d75760020154611cc9906001600160a01b03163314612083565b60ff8260181c16906008821015611d4c575060ff63030000007f9dccfab01afd40598b5c5dade2781b72ab4e70e1292f0d080151ff1dc85d6a6993611d126002602095146120bf565b604051611d1e816120f9565b868152844391015285600b5543600c5563ff0000001916178060015543601055604051948552821c1692a280f35b634e487b7160e01b855260219052602484fd5b9050346102ac57816003193601126102ac57600154611d89600160ff8360101c1661031181611f16565b60ff8160201c1682811015611e1e576002015460ff9190611db4906001600160a01b03163314612083565b60181c16906008821015611e0b57506005611dcf91146120bf565b611dd7612bb6565b4360105560ff60015460201c167f9e1cbfeae206833f4bed941ec158aba382f584b035ee358d139f7a260d6c906f8280a280f35b634e487b7160e01b835260219052602482fd5b634e487b7160e01b845260328352602484fd5b9050346102ac57816003193601126102ac5760015490611e5c600160ff8460101c1661031181611f16565b6010546101008101809111611f0357431115611ecb575060201c60ff16611e8281612579565b7f5a27f5894322b0a59a58a977def37c8d5be16aba9a1493a1a5a776fee6340c3d8280a2600160ff611eb2612624565b1611611ec357611ec0612849565b80f35b611ec06126cb565b60649060206040519162461bcd60e51b83528201526011602482015270139bdd081d1a5b5959081bdd5d081e595d607a1b6044820152fd5b634e487b7160e01b845260118252602484fd5b60041115611f2057565b634e487b7160e01b600052602160045260246000fd5b6000915b60318310611f4757505050565b60019060ff83511681526020809101920192019190611f3a565b6004359060ff82168203611f7157565b600080fd5b906031821015611f8e57601f8260051c600701921690565b634e487b7160e01b600052603260045260246000fd5b906031821015611f8e57601f8260051c600901921690565b929360ff91959482606094816080880199168752166020860152611fdf81611f16565b604085015216910152565b60ff60409295949381606084019716835216602082015261200a83611f16565b0152565b6000915b6004831061201f57505050565b6001908251151581526020809101920192019190612012565b906008821015611f205752565b1561204c57565b60405162461bcd60e51b815260206004820152600f60248201526e47616d65206e6f742061637469766560881b6044820152606490fd5b1561208a57565b60405162461bcd60e51b815260206004820152600d60248201526c2737ba103cb7bab9103a3ab93760991b6044820152606490fd5b156120c657565b60405162461bcd60e51b815260206004820152600b60248201526a57726f6e6720706861736560a81b6044820152606490fd5b6040810190811067ffffffffffffffff82111761211557604052565b634e487b7160e01b600052604160045260246000fd5b6060810190811067ffffffffffffffff82111761211557604052565b610620810190811067ffffffffffffffff82111761211557604052565b6080810190811067ffffffffffffffff82111761211557604052565b90601f8019910116810190811067ffffffffffffffff82111761211557604052565b6001805460009260ff92918316908490835b6121c5575b50505050505060001990565b8486168381101561221d5760048088101561220a575060028701546001600160a01b038381169116146121ff5750948301841694836121b4565b955050925050500b90565b634e487b7160e01b845260329052602483fd5b506121b9565b6040906040519182906007906000905b6031601f83011061230c575050610200905460ff908181168452818160081c166020850152818160101c166040850152818160181c166060850152818160201c166080850152818160281c1660a0850152818160301c1660c0850152818160381c1660e0850152818160401c16610100850152818160481c16610120850152818160501c16610140850152818160581c16610160850152818160601c16610180850152818160681c166101a0850152818160701c166101c0850152818160781c166101e085015260801c1691015261230a82612147565b565b9091926001610400602092865460ff8116825260ff8187828289828260081c1681890152828260101c16848901528282606092828260181c16848c015282826080921c16818c0152828260a0958d87848460281c169101528d610100848460c09d8e838360301c1690860152828260381c1660e08601521c169101528d610120848460481c169101528d610140848460501c169101528d610160848460581c169101521c166101808c0152828260681c166101a08c0152828260701c166101c08c0152828260781c166101e08c01521c16610200890152828260881c16610220890152828260901c16610240890152828260981c166102608901521c16610280860152828260a81c166102a0860152828260b01c166102c0860152828260b81c166102e08601521c1661030083015260ff8160c81c1661032083015260ff8160d01c1661034083015260ff8160d81c1661036083015260ff8160e01c1661038083015260ff8160e81c166103a083015260ff8160f01c166103c083015260f81c6103e0820152019401920190612233565b906004811015611f8e5760051b0190565b9060000b9060000b0190607f198212607f8313176124c857565b634e487b7160e01b600052601160045260246000fd5b60ff6000199116019060ff82116124c857565b9060ff8091169116039060ff82116124c857565b90816020910312611f7157518015158103611f715790565b60ff1660ff81146124c85760010190565b60ff60019116019060ff82116124c857565b9060ff8091169116019060ff82116124c857565b60ff60079116029060ff82169182036124c857565b60ff1680156124c8576000190190565b6004811015611f8e5760028101805463ff00ffff60a01b1916600160b81b17905560005b60ff603181831610156125f857816001916125b960ff94611f76565b905460039291831b1c8116868216146125d6575b5050011661259d565b6125df83611f76565b81939154911b9160fe831b921b191617905538806125cd565b505060ff167f1db753061d684884acf37beb032f14f3dc5a25388d7382e187ec78a5d3f0fa3c600080a2565b6001805460009160ff918216835b8184821610612642575050505090565b60048082101561267b575083816002015460b81c1615612666575b82018316612632565b9382612672859261251d565b9591505061265d565b603290634e487b7160e01b6000525260246000fd5b9060ff169081156126a25760ff160690565b634e487b7160e01b600052601260045260246000fd5b61ffff8091169081146124c85760010190565b600180549060ff916126ee836126e5818460201c1661252e565b92168092612690565b926000835b6127dc575b5082906000935b612769575b50505050612710613833565b6127605763010000009064ff000000006001549160201b169064ffff0000001916171766ffff000000000061274b61ffff8360281c166126b8565b60281b169066ffff0000000000191617600155565b5061230a612849565b9091929360048082101561267b5750806002015482808260b01c161591826127ce575b5050806127c3575b156127bd576127ae846127a96127b49361252e565b612690565b9461251d565b929190816126ff565b93612704565b508382861610612794565b60b81c16159050823861278c565b9360049392938082101561267b575081816002015460b81c1680612828575b1561281f57612817612811856127a9869461252e565b9561251d565b9093926126f3565b939291926126f8565b5083828616106127fb565b91909161ffff808094169116019182116124c857565b6001805463ffff0000198116630702000017825560009160ff91821691908380825b612af7575b50505060048084101580612ae2578460020160018060a01b03926128ec84835416966040968751991689527f63ddd5c647904e83e6f7553d625effc3889bb06fe73cb3b9b911dc8ab460cb718760209a8a8c820152a17f0000000000000000000000000000000000000000000000000000000000000000613898565b9261271061291e61ffff7f00000000000000000000000000000000000000000000000000000000000000001686613898565b049687850394808611612acd578803612a4b575b508661299d575b61267b57505483519083168152948501527f0000000000000000000000000000000000000000000000000000000000000000169083015260608201527f59ca82b22a2055ee9de68a8ba60482d3029ab83dde06a15377125c19bd14d90490608090a1565b855163a9059cbb60e01b81526001600160a01b037f00000000000000000000000000000000000000000000000000000000000000001683820190815260208101899052899082908190604001038160008a7f0000000000000000000000000000000000000000000000000000000000000000165af18015612a4057612a23575b50612939565b612a3990893d8b116106c5576106b58183612180565b5038612a1d565b87513d6000823e3d90fd5b865163a9059cbb60e01b81526001600160a01b039091168382019081526020810186905260009250899082908190604001038160008a7f0000000000000000000000000000000000000000000000000000000000000000165af18015612a40571561293257612ac690893d8b116106c5576106b58183612180565b5038612932565b601184634e487b7160e01b6000525260246000fd5b603282634e487b7160e01b6000525260246000fd5b83811685811015612bb05760048083101561267b57508160020154908486808460b81c16612ba45750506000908686835b603183821610612b715750505050612b489061ffff809360a01c16612833565b9080841690821611612b65575b5090838380935b0116909161286b565b90955090508483612b55565b8383612b7c83611f76565b90549060031b1c1614612b94575b0116868891612b28565b93612b9e906126b8565b93612b8a565b92509392849150612b5c565b50612870565b600e5461ffff808260101c169182151580612ccf575b612be9575b505050630600000063ff000000196001541617600155565b60ff928382166004811015611f8e576002019160081c84166004811015611f8e5760020183835460a01c1691828111600014612cc95750815b84831690038481116124c857835461ffff60a01b191660a09190911b61ffff60a01b16178355612c7891612c5c9085835460a01c16612833565b815461ffff60a01b191660a09190911b61ffff60a01b16179055565b5460a01c1615612c8a575b8080612bd1565b612c9781600e5416612579565b600181612ca2612624565b1611156127605780600e54169060015460201c1614612cc15738612c83565b61230a6126cb565b91612c22565b5060ff8160081c1660ff82161415612bcc565b905b60ff91828116928315612e9a57612d4793600691825490808260101c1692612d0b8461306f565b9382841690600095612d228151880b84890b6124ae565b966008968681891c1695612d3f602080950151840b88850b6124ae565b9d8e8b6138ab565b15612d77575050505050505061ff00612d7196978554931b1692169061ffff191617179055612569565b90612ce4565b93985093985093989a509493604095865194608086019086821067ffffffffffffffff831117612e86575092612e819896949262ff0000928997957f3c1a2739dbf38a1a98d9082a0e9ae6184c4b0d52685200f122654984edce69979e9f9a528b86528501948c8652612de989611f16565b888882015260608101928352511663ff00000061ff00600d9788549751901b1692612e138a611f16565b612e1c8a611f16565b5160181b169463ffffffff191617179116171790556001630400000063ff000000198254161790557f1792a9cb1d081b3aac8e232f47544cbcf8fb0be6eb28b0ba24ee527539beb85a815180612e74858a8a84611fea565b0390a15194859485611fbc565b0390a1565b634e487b7160e01b81526041600452602490fd5b505090507f1792a9cb1d081b3aac8e232f47544cbcf8fb0be6eb28b0ba24ee527539beb85a612ee3600654604051918160ff849360101c169060ff808260081c16911684611fea565b0390a161230a61315d565b612ef781611f16565b801580612f93575b612f6857612f0c81611f16565b6001811480612f82575b612f6857612f2381611f16565b6002811480612f6f575b612f685780612f3d600392611f16565b149081612f54575b50612f4f57600190565b600090565b60029150612f6181611f16565b1438612f45565b5050600090565b50612f7982611f16565b60038214612f2d565b50612f8c82611f16565b8115612f16565b50612f9d82611f16565b60018214612eff565b600d5460ff8160101c16612fb981611f16565b801590811561305b575b501561303857612fd282611f16565b600282148015613025575b15612f685761301c612ff16130229361306f565b9160ff6020613009855160000b83851660000b6124ae565b94015160000b9160081c1660000b6124ae565b906138ab565b90565b5061302f82611f16565b60038214612fdd565b61304182611f16565b811580612fdd575061305282611f16565b60018214612fdd565b6001915061306881611f16565b1438612fc3565b60409081805161307e816120f9565b36903761308a81611f16565b80156130fc5761309981611f16565b600181146130e357806130ad600292611f16565b146130cb57516130bc816120f9565b60008152600019602082015290565b516130d5816120f9565b600081526001602082015290565b50516130ee816120f9565b600181526000602082015290565b5051613107816120f9565b60001981526000602082015290565b61311f81611f16565b80156131575761312e81611f16565b600181146131515780613142600292611f16565b1461314c57600290565b600390565b50600090565b50600190565b60069061318560065461318a60ff92828461317a81809616612554565b9160081c1690612540565b611f76565b91905460039260031b1c16908282148015613569575b8015613559575b6134a5578260065491604051906131bd82612147565b6106209081368437604051916131d283612147565b3683376000986131ee8a966103eb87808360081c169216612554565b613200600196879216808652866138ef565b525b878516888b16106132da5750505050507f0a80291ec3898e82c48e2494fcffa7d787833aff90d5d54d880da84590795ea8939450612e81906132748460015460201c166040516132518161212b565b818152856020820152604061ffff851691015260ff1660ff19600e541617600e55565b600e805463ffffff00191661ff00600886901b1617601083901b63ffff0000161790556001805463ff0000001916630500000017908190556040805160ff602093841c90971687168152959094169085015261ffff169183019190915281906060820190565b87806132f1816132e98e61251d565b9d16866138ef565b5116966007908983613308848c04948c069b611f76565b905490881b1c160361349c5761331d906126b8565b978383831680613452575b106133fb575b83838216806133a4575b10613346575b505050613202565b61335b61335561336193612554565b9161252e565b90612540565b1661336c81866138ef565b511561337b575b80899161333e565b600161338782876138ef565b5261339d896133958861251d565b9716856138ef565b5238613373565b846133ba6133b186612554565b61335b866124de565b166133c5818b6138ef565b51156133d2575b50613338565b60016133de828c6138ef565b526133f4866133ec8d61251d565b9c168a6138ef565b52386133cc565b82613411826103eb61340c8661252e565b612554565b1661341c81896138ef565b5115613429575b5061332e565b6001613435828a6138ef565b5261344b846134438b61251d565b9a16886138ef565b5238613423565b84613463846103eb61340c886124de565b1661346e818b6138ef565b511561347b575b50613328565b6001613487828c6138ef565b52613495866133ec8d61251d565b5238613475565b97505050613202565b50507f0a80291ec3898e82c48e2494fcffa7d787833aff90d5d54d880da84590795ea89192508061351e60609260015460201c166000604080516134e88161212b565b83815283602082015201526135078160ff1660ff19600e541617600e55565b61ff00600e549160081b169061ff00191617600e55565b63ffff000019600e5416600e55630500000063ff0000001960015416178060015560201c1660405190808252602082015260006040820152a1565b508260015460201c1682146131a7565b5060fe82146131a0565b60009060ff9160019160ff60015460081c16915b828582161061359a575050505050600090565b60048082101561267b575060028101546001600160a01b038381169116146135c55783018416613587565b505050905090565b60ff16600281146135e9576003146135e457600c90565b600f90565b50601890565b909260ff9384831660078110801590613826575b8015613819575b801561380c575b6138015784861690818111156137f15761362b86866124f1565b915b87851691600189808716958587116000146137de576136509061335b8a8a6124f1565b16036137c1576006549389851680921490816137cf575b506137c15788911492836137b2575b50505061379f576136878184613900565b6136918386613900565b901590816137a9575b5061379f576136b26103eb916103eb6136b895612554565b93612554565b826136c283611f76565b90549060031b1c1690836136f9816136eb816136dd86611f76565b90549060031b1c1696611fa4565b90549060031b1c1692611fa4565b90549060031b1c1690848314159384613793575b84613788575b8461377c575b84613772575b5083613768575b505081613756575b50613151578060015460201c166004811015611f8e576002015460b01c1615612f4f57600190565b90508160015460201c1614153861372e565b1491503880613726565b831493503861371f565b60fe8114159450613719565b858114159450613713565b60fe841415945061370d565b5050505050600090565b9050153861369a565b60081c16149050388681613676565b505050505050505050600090565b9050898560081c161438613667565b6137ec9061335b898b6124f1565b613650565b6137fb85876124f1565b9161362d565b505050505050600090565b5060078684161015613611565b506007868616101561360a565b5060078683161015613603565b6001805460ff9190821660005b81848216106138525750505050600190565b60048082101561267b5750806002015484808260b81c16159182613889575b50506138805782018316613840565b50505050600090565b60b01c16151590508438613871565b818102929181159184041417156124c857565b60000b90600082121591826138e4575b50816138d6575b816138cb575090565b6007915060000b1290565b600081810b121591506138c2565b6007139150386138bb565b906031811015611f8e5760051b0190565b600654909160ff9182841683821681811480613974575b61380157600195818693116000146139655790613933916124f1565b915b60081c16918284821611600014613958576139539261335b916124f1565b161490565b61335b90613953936124f1565b61396e916124f1565b91613935565b50848360081c168585161461391756fea2646970667358221220422147c8deeb70b18342dd12f739d9a12c8ecca0f9db8a08041177dd83a56b4064736f6c63430008180033","opcodes":"PUSH2 0x120 CALLVALUE PUSH3 0x3C3 JUMPI PUSH1 0x1 PUSH1 0x1 PUSH1 0x40 SHL SUB SWAP1 PUSH1 0x1F PUSH3 0x3DBC CODESIZE DUP2 SWAP1 SUB SWAP2 DUP3 ADD PUSH1 0x1F NOT AND DUP4 ADD SWAP2 SWAP1 DUP5 DUP4 GT DUP5 DUP5 LT OR PUSH3 0x3AD JUMPI DUP2 PUSH1 0xC0 SWAP3 DUP6 SWAP3 PUSH1 0x40 SWAP6 DUP7 MSTORE DUP4 CODECOPY DUP2 ADD SUB SLT PUSH3 0x3C3 JUMPI PUSH3 0x53 DUP3 PUSH3 0x3C8 JUMP JUMPDEST SWAP2 PUSH1 0x20 SWAP1 DUP2 DUP2 ADD MLOAD DUP4 DUP3 ADD MLOAD SWAP6 PUSH2 0xFFFF DUP8 AND DUP8 SUB PUSH3 0x3C3 JUMPI PUSH3 0x7A PUSH1 0x60 DUP5 ADD PUSH3 0x3C8 JUMP JUMPDEST SWAP3 PUSH1 0x80 DUP2 ADD MLOAD SWAP8 PUSH1 0xFF SWAP2 DUP3 DUP11 AND SWAP1 DUP2 DUP12 SUB PUSH3 0x3C3 JUMPI PUSH1 0xA0 PUSH3 0x9E SWAP2 ADD PUSH3 0x3C8 JUMP JUMPDEST SWAP9 DUP9 MLOAD SWAP7 PUSH1 0xC0 DUP9 ADD DUP9 DUP2 LT DUP8 DUP3 GT OR PUSH3 0x3AD JUMPI DUP11 MSTORE PUSH1 0x1 SWAP4 DUP5 DUP10 MSTORE PUSH1 0x2 DUP11 DUP11 ADD MSTORE PUSH1 0x2 DUP12 DUP11 ADD MSTORE PUSH1 0x3 SWAP8 DUP9 PUSH1 0x60 DUP12 ADD MSTORE DUP9 PUSH1 0x80 DUP12 ADD MSTORE PUSH1 0x4 SWAP10 DUP11 PUSH1 0xA0 DUP3 ADD MSTORE PUSH1 0x0 SWAP1 DUP13 DUP9 PUSH1 0x0 SWAP2 JUMPDEST DUP14 PUSH1 0x6 DUP5 LT PUSH3 0x38C JUMPI POP POP POP POP POP PUSH1 0x0 SSTORE PUSH1 0x2 DUP6 LT ISZERO DUP1 PUSH3 0x381 JUMPI JUMPDEST ISZERO PUSH3 0x33E JUMPI PUSH1 0x1 DUP1 PUSH1 0xA0 SHL SUB DUP1 SWAP5 AND PUSH1 0x80 MSTORE PUSH1 0xA0 MSTORE PUSH1 0xC0 MSTORE PUSH1 0xE0 MSTORE PUSH2 0x100 SWAP10 CALLER DUP12 MSTORE PUSH3 0x13D DUP5 SLOAD SWAP13 TIMESTAMP PUSH1 0x11 SSTORE NUMBER PUSH1 0x10 SSTORE PUSH3 0x3DD JUMP JUMPDEST SWAP2 DUP11 MLOAD SWAP2 PUSH1 0xA0 DUP4 ADD DUP4 DUP2 LT DUP10 DUP3 GT OR PUSH3 0x329 JUMPI DUP13 MSTORE AND DUP1 DUP3 MSTORE PUSH1 0x1E DUP11 DUP4 ADD MSTORE DUP6 DUP4 AND DUP12 DUP4 ADD MSTORE PUSH1 0x0 PUSH1 0x60 DUP4 ADD DUP2 SWAP1 MSTORE PUSH1 0x80 SWAP1 SWAP3 ADD DUP6 SWAP1 MSTORE PUSH1 0x2 DUP1 SLOAD PUSH1 0xB0 SWAP5 SWAP1 SWAP5 SHL PUSH1 0xFF PUSH1 0xB0 SHL AND PUSH1 0xF PUSH1 0xA1 SHL PUSH1 0x1 PUSH1 0x1 PUSH1 0xB8 SHL SUB NOT SWAP6 SWAP1 SWAP6 AND DUP4 OR SWAP5 SWAP1 SWAP5 OR PUSH2 0xFFFF PUSH1 0xB8 SHL NOT AND SWAP4 SWAP1 SWAP4 OR PUSH1 0x1 PUSH1 0xC0 SHL OR SWAP1 SWAP3 SSTORE PUSH4 0xFFFFFFFF NOT SWAP1 SWAP12 AND SWAP1 SWAP2 OR DUP10 OR DUP3 SSTORE SWAP8 SWAP9 SWAP7 SWAP8 SWAP6 SWAP7 DUP2 JUMPDEST PUSH3 0x2C6 JUMPI JUMPDEST POP POP POP DUP6 MLOAD SWAP3 PUSH1 0x60 DUP5 ADD SWAP2 DUP5 DUP4 LT SWAP1 DUP4 GT OR PUSH3 0x2B1 JUMPI POP DUP6 MSTORE DUP1 DUP3 MSTORE DUP2 DUP5 ADD MSTORE PUSH1 0x0 SWAP1 DUP5 ADD DUP2 SWAP1 MSTORE PUSH1 0x6 DUP1 SLOAD PUSH3 0xFFFFFF NOT AND PUSH2 0x303 OR SWAP1 SSTORE DUP4 MLOAD SWAP2 DUP3 MSTORE SWAP2 PUSH32 0xD4F57815000E6F354149B86E4F473EA312F41ED40BA3AF5A8A5CB5DC77411E58 SWAP2 LOG2 MLOAD PUSH2 0x39BA SWAP2 DUP3 PUSH3 0x402 DUP4 CODECOPY PUSH1 0x80 MLOAD DUP3 DUP2 DUP2 PUSH2 0x662 ADD MSTORE DUP2 DUP2 PUSH2 0x817 ADD MSTORE DUP2 DUP2 PUSH2 0x1853 ADD MSTORE DUP2 DUP2 PUSH2 0x29F0 ADD MSTORE PUSH2 0x2A83 ADD MSTORE PUSH1 0xA0 MLOAD DUP3 DUP2 DUP2 PUSH2 0x624 ADD MSTORE DUP2 DUP2 PUSH2 0x7DE ADD MSTORE DUP2 DUP2 PUSH2 0x159F ADD MSTORE PUSH2 0x28C8 ADD MSTORE PUSH1 0xC0 MLOAD DUP3 DUP2 DUP2 PUSH2 0x1C22 ADD MSTORE PUSH2 0x28F8 ADD MSTORE PUSH1 0xE0 MLOAD DUP3 DUP2 DUP2 PUSH2 0x209 ADD MSTORE DUP2 DUP2 PUSH2 0x294C ADD MSTORE PUSH2 0x29B3 ADD MSTORE MLOAD DUP2 PUSH2 0xD7A ADD MSTORE RETURN JUMPDEST PUSH1 0x41 SWAP1 PUSH4 0x4E487B71 PUSH1 0xE0 SHL PUSH1 0x0 MSTORE MSTORE PUSH1 0x24 PUSH1 0x0 REVERT JUMPDEST PUSH1 0x31 DUP1 DUP5 DUP4 AND LT ISZERO PUSH3 0x322 JUMPI DUP2 LT ISZERO PUSH3 0x30D JUMPI DUP3 DUP3 DUP3 DUP2 SWAP4 PUSH1 0x5 SHR DUP1 PUSH1 0x7 ADD SWAP1 DUP2 SLOAD SWAP2 DUP6 PUSH1 0xF8 DUP6 DUP14 SHL AND SHL DUP1 NOT DUP1 SWAP5 AND OR SWAP1 SSTORE PUSH1 0x9 ADD SWAP1 DUP2 SLOAD AND SWAP1 SSTORE ADD AND SWAP1 PUSH3 0x1CA JUMP JUMPDEST PUSH1 0x32 DUP7 PUSH4 0x4E487B71 PUSH1 0xE0 SHL PUSH1 0x0 MSTORE MSTORE PUSH1 0x24 PUSH1 0x0 REVERT JUMPDEST POP PUSH3 0x1D0 JUMP JUMPDEST PUSH1 0x41 DUP12 PUSH4 0x4E487B71 PUSH1 0xE0 SHL PUSH1 0x0 MSTORE MSTORE PUSH1 0x24 PUSH1 0x0 REVERT JUMPDEST DUP12 MLOAD PUSH3 0x461BCD PUSH1 0xE5 SHL DUP2 MSTORE DUP1 DUP12 ADD DUP13 SWAP1 MSTORE PUSH1 0x14 PUSH1 0x24 DUP3 ADD MSTORE PUSH32 0x496E76616C696420706C6179657220636F756E74000000000000000000000000 PUSH1 0x44 DUP3 ADD MSTORE PUSH1 0x64 SWAP1 REVERT JUMPDEST POP DUP10 DUP6 GT ISZERO PUSH3 0x105 JUMP JUMPDEST SWAP1 SWAP2 SWAP3 SWAP4 SWAP5 DUP13 DUP6 DUP2 DUP9 MLOAD AND SWAP4 SHL SWAP3 DUP4 SHL SWAP3 SHL NOT AND OR SWAP4 ADD SWAP2 ADD DUP9 DUP15 PUSH3 0xE7 JUMP JUMPDEST PUSH4 0x4E487B71 PUSH1 0xE0 SHL PUSH1 0x0 MSTORE PUSH1 0x41 PUSH1 0x4 MSTORE PUSH1 0x24 PUSH1 0x0 REVERT JUMPDEST PUSH1 0x0 DUP1 REVERT JUMPDEST MLOAD SWAP1 PUSH1 0x1 PUSH1 0x1 PUSH1 0xA0 SHL SUB DUP3 AND DUP3 SUB PUSH3 0x3C3 JUMPI JUMP JUMPDEST PUSH1 0xFF AND PUSH1 0x2 DUP2 EQ PUSH3 0x3FB JUMPI PUSH1 0x3 EQ PUSH3 0x3F6 JUMPI PUSH1 0xC SWAP1 JUMP JUMPDEST PUSH1 0xF SWAP1 JUMP JUMPDEST POP PUSH1 0x18 SWAP1 JUMP INVALID PUSH1 0x80 PUSH1 0x40 MSTORE PUSH1 0x4 DUP1 CALLDATASIZE LT ISZERO PUSH2 0x13 JUMPI PUSH1 0x0 DUP1 REVERT JUMPDEST PUSH1 0x0 SWAP1 DUP2 CALLDATALOAD PUSH1 0xE0 SHR SWAP1 DUP2 PUSH4 0xE1DA6C3 EQ PUSH2 0x1E31 JUMPI DUP2 PUSH4 0x13CB0362 EQ PUSH2 0x1D5F JUMPI DUP2 PUSH4 0x13D45F66 EQ PUSH2 0x1C73 JUMPI DUP2 PUSH4 0x200D2ED2 EQ PUSH2 0x1C46 JUMPI DUP2 PUSH4 0x22DCD13E EQ PUSH2 0x1C07 JUMPI DUP2 PUSH4 0x2D4635F2 EQ PUSH2 0x1BCE JUMPI DUP2 PUSH4 0x315A2735 EQ PUSH2 0x13DA JUMPI DUP2 PUSH4 0x3264A34B EQ PUSH2 0x190C JUMPI DUP2 PUSH4 0x39FDDFF6 EQ PUSH2 0x1882 JUMPI DUP2 PUSH4 0x3E413BEE EQ PUSH2 0x183D JUMPI DUP2 PUSH4 0x4669D629 EQ PUSH2 0x1612 JUMPI DUP2 PUSH4 0x4A478D96 EQ PUSH2 0x15E7 JUMPI DUP2 PUSH4 0x5700401E EQ PUSH2 0x15C2 JUMPI DUP2 PUSH4 0x5E59EFC3 EQ PUSH2 0xD02 JUMPI DUP2 PUSH4 0x60C7DC47 EQ PUSH2 0x1587 JUMPI DUP2 PUSH4 0x726897DC EQ PUSH2 0x1438 JUMPI DUP2 PUSH4 0x7585E49F EQ PUSH2 0x1417 JUMPI DUP2 PUSH4 0x764A5168 EQ PUSH2 0x13DA JUMPI DUP2 PUSH4 0x76FC860D EQ PUSH2 0xE69 JUMPI DUP2 PUSH4 0x8B5B9CCC EQ PUSH2 0x1225 JUMPI DUP2 PUSH4 0x972161F7 EQ PUSH2 0xEBF JUMPI DUP2 PUSH4 0x97B2F556 EQ PUSH2 0xE9E JUMPI DUP2 PUSH4 0xA3ACBE71 EQ PUSH2 0xE69 JUMPI DUP2 PUSH4 0xA6DC7318 EQ PUSH2 0xE4B JUMPI DUP2 PUSH4 0xB1C9FE6E EQ PUSH2 0xE20 JUMPI DUP2 PUSH4 0xB7D0628B EQ PUSH2 0xDA9 JUMPI DUP2 PUSH4 0xC45A0155 EQ PUSH2 0xD64 JUMPI DUP2 PUSH4 0xC7198B07 EQ PUSH2 0xD3F JUMPI DUP2 PUSH4 0xCB6F117A EQ PUSH2 0xD02 JUMPI DUP2 PUSH4 0xCF09E0D0 EQ PUSH2 0xCE4 JUMPI DUP2 PUSH4 0xCF8515F4 EQ PUSH2 0xCC0 JUMPI DUP2 PUSH4 0xD40E27B5 EQ PUSH2 0xAD4 JUMPI DUP2 PUSH4 0xD4F77B1C EQ PUSH2 0x773 JUMPI DUP2 PUSH4 0xD84C1AC9 EQ PUSH2 0x549 JUMPI DUP2 PUSH4 0xDC118AD5 EQ PUSH2 0x50E JUMPI DUP2 PUSH4 0xE75A0469 EQ PUSH2 0x2B0 JUMPI DUP2 PUSH4 0xF71D96CB EQ PUSH2 0x238 JUMPI POP DUP1 PUSH4 0xFA2AF9DA EQ PUSH2 0x1F3 JUMPI PUSH4 0xFB9BDAB4 EQ PUSH2 0x1CE JUMPI PUSH1 0x0 DUP1 REVERT JUMPDEST CALLVALUE PUSH2 0x1F0 JUMPI DUP1 PUSH1 0x3 NOT CALLDATASIZE ADD SLT PUSH2 0x1F0 JUMPI PUSH1 0x20 PUSH1 0x1 SLOAD PUSH1 0xFF PUSH1 0x40 MLOAD SWAP2 DUP4 SHR AND DUP2 MSTORE RETURN JUMPDEST DUP1 REVERT JUMPDEST POP CALLVALUE PUSH2 0x1F0 JUMPI DUP1 PUSH1 0x3 NOT CALLDATASIZE ADD SLT PUSH2 0x1F0 JUMPI PUSH1 0x40 MLOAD PUSH32 0x0 PUSH1 0x1 PUSH1 0x1 PUSH1 0xA0 SHL SUB AND DUP2 MSTORE PUSH1 0x20 SWAP1 RETURN JUMPDEST SWAP1 POP CALLVALUE PUSH2 0x2AC JUMPI PUSH1 0x20 CALLDATASIZE PUSH1 0x3 NOT ADD SLT PUSH2 0x2AC JUMPI DUP1 CALLDATALOAD SWAP1 DUP2 LT ISZERO PUSH2 0x2AC JUMPI PUSH1 0x2 ADD SLOAD PUSH1 0x40 DUP1 MLOAD PUSH1 0x1 PUSH1 0x1 PUSH1 0xA0 SHL SUB DUP4 AND DUP2 MSTORE PUSH1 0xA0 DUP4 DUP2 SHR PUSH2 0xFFFF AND PUSH1 0x20 DUP4 ADD MSTORE PUSH1 0xB0 DUP5 SWAP1 SHR PUSH1 0xFF SWAP1 DUP2 AND SWAP4 DUP4 ADD SWAP4 SWAP1 SWAP4 MSTORE PUSH1 0xB8 DUP5 SWAP1 SHR DUP4 AND ISZERO ISZERO PUSH1 0x60 DUP4 ADD MSTORE PUSH1 0xC0 SWAP4 SWAP1 SWAP4 SHR SWAP1 SWAP2 AND ISZERO ISZERO PUSH1 0x80 DUP3 ADD MSTORE RETURN JUMPDEST SUB SWAP1 RETURN JUMPDEST POP DUP1 REVERT JUMPDEST SWAP1 POP CALLVALUE PUSH2 0x2AC JUMPI PUSH1 0x80 CALLDATASIZE PUSH1 0x3 NOT ADD SLT PUSH2 0x2AC JUMPI PUSH2 0x2CB PUSH2 0x1F61 JUMP JUMPDEST PUSH1 0x24 CALLDATALOAD PUSH1 0xFF SWAP3 DUP4 DUP3 AND DUP1 DUP4 SUB PUSH2 0x50A JUMPI PUSH1 0x44 CALLDATALOAD SWAP3 DUP6 DUP5 AND SWAP3 DUP4 DUP6 SUB PUSH2 0x506 JUMPI PUSH1 0x64 CALLDATALOAD SWAP5 DUP8 DUP7 AND SWAP6 DUP7 DUP2 SUB PUSH2 0x502 JUMPI PUSH1 0x1 SLOAD SWAP4 PUSH2 0x317 PUSH1 0x1 DUP12 DUP8 PUSH1 0x10 SHR AND PUSH2 0x311 DUP2 PUSH2 0x1F16 JUMP JUMPDEST EQ PUSH2 0x2045 JUMP JUMPDEST DUP10 DUP6 PUSH1 0x20 SHR AND SWAP4 DUP1 DUP6 LT ISZERO PUSH2 0x4EF JUMPI PUSH1 0x2 DUP6 ADD DUP1 SLOAD SWAP1 SWAP7 SWAP1 SWAP2 PUSH2 0x344 PUSH1 0x1 PUSH1 0x1 PUSH1 0xA0 SHL SUB DUP5 AND CALLER EQ PUSH2 0x2083 JUMP JUMPDEST DUP13 DUP3 PUSH1 0x18 SHR AND PUSH1 0x8 DUP2 LT ISZERO PUSH2 0x4DC JUMPI DUP6 DUP8 DUP7 DUP16 PUSH2 0x366 PUSH1 0x6 PUSH2 0x36B SWAP7 EQ PUSH2 0x20BF JUMP JUMPDEST PUSH2 0x35EF JUMP JUMPDEST ISZERO PUSH2 0x4A4 JUMPI POP PUSH1 0x80 SWAP10 SWAP8 SWAP6 PUSH2 0x41E DUP13 PUSH2 0x400 DUP16 SWAP9 PUSH32 0x49432FE383BC0B8D4EB48AF3362D3D989F86214F5F0336A0A92884DCFF4160F SWAP16 SWAP14 SWAP12 SWAP9 PUSH2 0x3F6 PUSH2 0x419 SWAP2 PUSH2 0x3EB PUSH2 0x3F0 PUSH2 0x432 SWAP13 PUSH2 0x45B SWAP16 PUSH2 0x3DE PUSH2 0x3EB SWAP15 DUP3 PUSH2 0x400 SWAP16 PUSH2 0x3E3 SWAP5 PUSH2 0x3D3 SWAP2 AND PUSH2 0x35CD JUMP JUMPDEST SWAP2 PUSH1 0xB0 SHR AND SWAP1 PUSH2 0x24F1 JUMP JUMPDEST PUSH2 0x252E JUMP JUMPDEST SWAP13 DUP14 SWAP10 PUSH2 0x2554 JUMP JUMPDEST PUSH2 0x2540 JUMP JUMPDEST SWAP5 PUSH2 0x2554 JUMP JUMPDEST SWAP6 PUSH2 0x400 DUP4 PUSH2 0x1F76 JUMP JUMPDEST SWAP1 SWAP2 SWAP1 PUSH1 0xFF DUP1 DUP5 SLOAD SWAP3 PUSH1 0x3 SHL SWAP4 AND DUP4 SHL SWAP3 SHL NOT AND OR SWAP1 SSTORE JUMP JUMPDEST PUSH2 0x1FA4 JUMP JUMPDEST PUSH2 0x419 DUP14 PUSH1 0x1 SLOAD PUSH1 0x20 SHR AND PUSH2 0x400 DUP4 PUSH2 0x1F76 JUMP JUMPDEST PUSH2 0x441 DUP10 DUP3 SLOAD PUSH1 0xB0 SHR AND PUSH2 0x2569 JUMP JUMPDEST DUP2 SLOAD PUSH1 0xFF PUSH1 0xB0 SHL NOT AND PUSH1 0xB0 SWAP2 SWAP1 SWAP2 SHL PUSH1 0xFF PUSH1 0xB0 SHL AND OR SWAP1 SSTORE JUMP JUMPDEST DUP7 PUSH1 0x1 SLOAD PUSH1 0x20 SHR AND SWAP7 PUSH1 0x40 MLOAD SWAP5 AND DUP5 MSTORE PUSH1 0x20 DUP5 ADD MSTORE PUSH1 0x40 DUP4 ADD MSTORE PUSH1 0x60 DUP3 ADD MSTORE LOG2 PUSH2 0x483 PUSH2 0x3833 JUMP JUMPDEST ISZERO PUSH2 0x497 JUMPI PUSH2 0x490 PUSH2 0x2849 JUMP JUMPDEST NUMBER PUSH1 0x10 SSTORE DUP1 RETURN JUMPDEST PUSH2 0x49F PUSH2 0x26CB JUMP JUMPDEST PUSH2 0x490 JUMP JUMPDEST PUSH1 0x64 SWAP1 PUSH1 0x20 PUSH1 0x40 MLOAD SWAP2 PUSH3 0x461BCD PUSH1 0xE5 SHL DUP4 MSTORE DUP3 ADD MSTORE PUSH1 0x11 PUSH1 0x24 DUP3 ADD MSTORE PUSH17 0x125B9D985B1A59081C1B1858D95B595B9D PUSH1 0x7A SHL PUSH1 0x44 DUP3 ADD MSTORE REVERT JUMPDEST PUSH4 0x4E487B71 PUSH1 0xE0 SHL DUP16 MSTORE PUSH1 0x21 DUP3 MSTORE PUSH1 0x24 DUP16 REVERT JUMPDEST PUSH4 0x4E487B71 PUSH1 0xE0 SHL DUP13 MSTORE PUSH1 0x32 SWAP1 MSTORE PUSH1 0x24 DUP12 REVERT JUMPDEST DUP10 DUP1 REVERT JUMPDEST DUP8 DUP1 REVERT JUMPDEST DUP6 DUP1 REVERT JUMPDEST SWAP1 POP CALLVALUE PUSH2 0x2AC JUMPI PUSH1 0x20 CALLDATASIZE PUSH1 0x3 NOT ADD SLT PUSH2 0x2AC JUMPI CALLDATALOAD SWAP1 PUSH1 0x31 DUP3 LT ISZERO PUSH2 0x1F0 JUMPI PUSH1 0x20 PUSH1 0xFF PUSH2 0x539 DUP5 PUSH2 0x1FA4 JUMP JUMPDEST SWAP2 SWAP1 SLOAD PUSH1 0x40 MLOAD SWAP3 PUSH1 0x3 SHL SHR AND DUP2 MSTORE RETURN JUMPDEST SWAP1 POP CALLVALUE PUSH2 0x2AC JUMPI DUP2 PUSH1 0x3 NOT CALLDATASIZE ADD SLT PUSH2 0x2AC JUMPI PUSH1 0x1 DUP1 SLOAD SWAP2 PUSH1 0xFF SWAP3 PUSH1 0xFF DUP2 PUSH1 0x10 SHR AND PUSH2 0x573 DUP2 PUSH2 0x1F16 JUMP JUMPDEST PUSH2 0x73C JUMPI PUSH1 0x11 SLOAD PUSH2 0xE10 DUP2 ADD DUP1 SWAP2 GT PUSH2 0x729 JUMPI TIMESTAMP LT PUSH2 0x6EF JUMPI PUSH4 0xFFFF0000 NOT AND PUSH4 0x7030000 OR PUSH1 0x1 SSTORE DUP4 DUP3 JUMPDEST PUSH2 0x5CC JUMPI JUMPDEST DUP5 PUSH32 0x1DC43DC4F1689BE1269B3E80407B3401B4CB752C02591CAC32E47DFD758AF27D DUP2 DUP1 LOG1 DUP1 RETURN JUMPDEST DUP4 DUP4 SLOAD PUSH1 0x8 SHR AND DUP5 DUP3 AND LT ISZERO PUSH2 0x6EA JUMPI DUP2 DUP2 LT ISZERO PUSH2 0x6D7 JUMPI SWAP1 DUP4 DUP3 DUP5 SWAP4 PUSH1 0x2 ADD SLOAD DUP3 DUP2 PUSH1 0xC0 SHR AND PUSH2 0x603 JUMPI JUMPDEST POP DUP4 ADD AND SWAP1 SWAP2 PUSH2 0x59F JUMP JUMPDEST PUSH1 0x40 DUP1 MLOAD PUSH4 0xA9059CBB PUSH1 0xE0 SHL DUP2 MSTORE PUSH1 0x1 PUSH1 0x1 PUSH1 0xA0 SHL SUB SWAP3 DUP4 AND DUP7 DUP3 ADD SWAP1 DUP2 MSTORE PUSH32 0x0 PUSH1 0x20 DUP3 DUP2 ADD SWAP2 SWAP1 SWAP2 MSTORE SWAP8 POP SWAP1 SWAP5 POP DUP7 SWAP3 DUP6 SWAP3 SWAP1 SWAP2 DUP4 SWAP2 DUP13 SWAP2 DUP4 SWAP2 ADD SUB SWAP3 PUSH32 0x0 AND GAS CALL SWAP1 DUP2 ISZERO PUSH2 0x6CC JUMPI DUP6 SWAP5 DUP8 SWAP4 DUP7 SWAP4 PUSH2 0x69E JUMPI JUMPDEST POP POP SWAP1 PUSH2 0x5F8 JUMP JUMPDEST DUP2 PUSH2 0x6BD SWAP3 SWAP1 RETURNDATASIZE LT PUSH2 0x6C5 JUMPI JUMPDEST PUSH2 0x6B5 DUP2 DUP4 PUSH2 0x2180 JUMP JUMPDEST DUP2 ADD SWAP1 PUSH2 0x2505 JUMP JUMPDEST POP CODESIZE DUP1 PUSH2 0x696 JUMP JUMPDEST POP RETURNDATASIZE PUSH2 0x6AB JUMP JUMPDEST PUSH1 0x40 MLOAD RETURNDATASIZE DUP10 DUP3 RETURNDATACOPY RETURNDATASIZE SWAP1 REVERT JUMPDEST PUSH4 0x4E487B71 PUSH1 0xE0 SHL DUP6 MSTORE PUSH1 0x32 DUP3 MSTORE PUSH1 0x24 DUP6 REVERT JUMPDEST PUSH2 0x5A4 JUMP JUMPDEST PUSH1 0x40 MLOAD PUSH3 0x461BCD PUSH1 0xE5 SHL DUP2 MSTORE PUSH1 0x20 DUP2 DUP5 ADD MSTORE PUSH1 0x13 PUSH1 0x24 DUP3 ADD MSTORE PUSH19 0x151BDBC819585C9B1E481D1BC818D85B98D95B PUSH1 0x6A SHL PUSH1 0x44 DUP3 ADD MSTORE PUSH1 0x64 SWAP1 REVERT JUMPDEST PUSH4 0x4E487B71 PUSH1 0xE0 SHL DUP7 MSTORE PUSH1 0x11 DUP4 MSTORE PUSH1 0x24 DUP7 REVERT JUMPDEST PUSH1 0x40 MLOAD PUSH3 0x461BCD PUSH1 0xE5 SHL DUP2 MSTORE PUSH1 0x20 DUP2 DUP5 ADD MSTORE PUSH1 0x10 PUSH1 0x24 DUP3 ADD MSTORE PUSH16 0x47616D65206E6F742077616974696E67 PUSH1 0x80 SHL PUSH1 0x44 DUP3 ADD MSTORE PUSH1 0x64 SWAP1 REVERT JUMPDEST SWAP1 POP CALLVALUE PUSH2 0x2AC JUMPI DUP2 PUSH1 0x3 NOT CALLDATASIZE ADD SLT PUSH2 0x2AC JUMPI PUSH1 0x1 SWAP1 DUP2 SLOAD PUSH1 0xFF SWAP1 DUP2 DUP2 PUSH1 0x18 SHR AND SWAP1 PUSH1 0x8 SWAP2 DUP3 DUP2 LT ISZERO PUSH2 0xAC1 JUMPI PUSH2 0x7A9 SWAP1 ISZERO PUSH2 0x20BF JUMP JUMPDEST DUP3 DUP1 DUP3 AND SWAP2 DUP4 SHR AND LT ISZERO PUSH2 0xA91 JUMPI PUSH2 0x7C0 CALLER PUSH2 0x3573 JUMP JUMPDEST PUSH2 0xA5C JUMPI PUSH1 0x40 MLOAD PUSH4 0x23B872DD PUSH1 0xE0 SHL DUP2 MSTORE CALLER DUP5 DUP3 ADD MSTORE ADDRESS PUSH1 0x24 DUP3 ADD MSTORE PUSH32 0x0 PUSH1 0x44 DUP3 ADD MSTORE PUSH1 0x20 SWAP3 SWAP1 PUSH1 0x1 PUSH1 0x1 PUSH1 0xA0 SHL SUB SWAP1 DUP5 DUP2 PUSH1 0x64 DUP2 DUP12 PUSH32 0x0 DUP8 AND GAS CALL SWAP1 DUP2 ISZERO PUSH2 0xA51 JUMPI DUP9 SWAP2 PUSH2 0xA34 JUMPI JUMPDEST POP ISZERO PUSH2 0x9F9 JUMPI DUP6 SLOAD SWAP5 PUSH2 0x861 DUP4 DUP1 DUP9 DUP8 SHR AND SWAP8 AND PUSH2 0x35CD JUMP JUMPDEST SWAP2 PUSH1 0x40 MLOAD SWAP3 PUSH1 0xA0 DUP5 ADD DUP5 DUP2 LT PUSH8 0xFFFFFFFFFFFFFFFF DUP3 GT OR PUSH2 0x9E6 JUMPI PUSH1 0x40 MSTORE CALLER DUP5 MSTORE DUP7 DUP5 ADD PUSH1 0x1E DUP2 MSTORE DUP6 PUSH1 0x40 DUP7 ADD SWAP3 AND DUP3 MSTORE PUSH1 0x60 DUP6 ADD SWAP3 DUP12 DUP5 MSTORE PUSH1 0x80 DUP7 ADD SWAP5 DUP12 DUP7 MSTORE DUP1 DUP12 LT ISZERO PUSH2 0x9D3 JUMPI POP SWAP5 MLOAD PUSH1 0x2 DUP11 ADD DUP1 SLOAD SWAP3 MLOAD PUSH2 0xFFFF PUSH1 0xA0 SHL PUSH1 0xA0 SWAP2 SWAP1 SWAP2 SHL AND PUSH1 0x1 PUSH1 0x1 PUSH1 0xB0 SHL SUB NOT SWAP1 SWAP4 AND SWAP2 SWAP1 SWAP7 AND PUSH2 0xFFFF PUSH1 0xA0 SHL NOT AND OR OR DUP5 SSTORE PUSH2 0x8FF SWAP1 DUP6 SWAP1 MLOAD DUP6 SLOAD PUSH1 0xFF PUSH1 0xB0 SHL NOT AND SWAP2 AND PUSH1 0xB0 SHL PUSH1 0xFF PUSH1 0xB0 SHL AND OR DUP5 SSTORE JUMP JUMPDEST MLOAD DUP3 SLOAD SWAP2 MLOAD PUSH2 0xFFFF PUSH1 0xB8 SHL NOT SWAP1 SWAP3 AND SWAP1 ISZERO ISZERO PUSH1 0xB8 SHL PUSH1 0xFF PUSH1 0xB8 SHL AND OR SWAP1 ISZERO ISZERO PUSH1 0xC0 SHL PUSH1 0xFF PUSH1 0xC0 SHL AND OR SWAP1 SSTORE DUP5 SLOAD SWAP3 PUSH2 0xFF00 PUSH2 0x93D DUP6 DUP6 SHR DUP5 AND PUSH2 0x251D JUMP JUMPDEST DUP5 SHL AND SWAP5 PUSH32 0xD4F57815000E6F354149B86E4F473EA312F41ED40BA3AF5A8A5CB5DC77411E58 DUP7 PUSH2 0xFF00 NOT DUP8 AND OR SWAP3 DUP4 DUP10 SSTORE PUSH1 0x40 MLOAD CALLER DUP2 MSTORE LOG2 DUP2 DUP5 AND SWAP3 SHR AND EQ PUSH2 0x984 JUMPI DUP4 DUP1 RETURN JUMPDEST PUSH3 0xFFFF00 NOT AND OR PUSH3 0x10000 OR PUSH7 0xFFFFFFFF000000 NOT AND PUSH6 0x10001000000 OR SWAP1 SSTORE NUMBER PUSH1 0x10 SSTORE PUSH32 0x762F260439BB4BE3EF6E4DC2786E2E7BD187D3D80B79057D7A424FE98563E335 DUP2 DUP1 LOG1 CODESIZE DUP1 DUP1 DUP4 DUP1 RETURN JUMPDEST PUSH4 0x4E487B71 PUSH1 0xE0 SHL DUP14 MSTORE PUSH1 0x32 SWAP1 MSTORE PUSH1 0x24 DUP13 REVERT JUMPDEST PUSH4 0x4E487B71 PUSH1 0xE0 SHL DUP12 MSTORE PUSH1 0x41 DUP5 MSTORE PUSH1 0x24 DUP12 REVERT JUMPDEST PUSH1 0x40 MLOAD PUSH3 0x461BCD PUSH1 0xE5 SHL DUP2 MSTORE DUP1 DUP7 ADD DUP6 SWAP1 MSTORE PUSH1 0x14 PUSH1 0x24 DUP3 ADD MSTORE PUSH20 0x1554D110C81D1C985B9CD9995C8819985A5B1959 PUSH1 0x62 SHL PUSH1 0x44 DUP3 ADD MSTORE PUSH1 0x64 SWAP1 REVERT JUMPDEST PUSH2 0xA4B SWAP2 POP DUP6 RETURNDATASIZE DUP8 GT PUSH2 0x6C5 JUMPI PUSH2 0x6B5 DUP2 DUP4 PUSH2 0x2180 JUMP JUMPDEST CODESIZE PUSH2 0x848 JUMP JUMPDEST PUSH1 0x40 MLOAD RETURNDATASIZE DUP11 DUP3 RETURNDATACOPY RETURNDATASIZE SWAP1 REVERT JUMPDEST PUSH1 0x40 MLOAD PUSH3 0x461BCD PUSH1 0xE5 SHL DUP2 MSTORE PUSH1 0x20 DUP2 DUP6 ADD MSTORE PUSH1 0xE PUSH1 0x24 DUP3 ADD MSTORE PUSH14 0x105B1C9958591E481A9BDA5B9959 PUSH1 0x92 SHL PUSH1 0x44 DUP3 ADD MSTORE PUSH1 0x64 SWAP1 REVERT JUMPDEST PUSH1 0x40 MLOAD PUSH3 0x461BCD PUSH1 0xE5 SHL DUP2 MSTORE PUSH1 0x20 DUP2 DUP6 ADD MSTORE PUSH1 0x9 PUSH1 0x24 DUP3 ADD MSTORE PUSH9 0x11D85B5948199D5B1B PUSH1 0xBA SHL PUSH1 0x44 DUP3 ADD MSTORE PUSH1 0x64 SWAP1 REVERT JUMPDEST PUSH4 0x4E487B71 PUSH1 0xE0 SHL DUP8 MSTORE PUSH1 0x21 DUP6 MSTORE PUSH1 0x24 DUP8 REVERT JUMPDEST SWAP1 POP CALLVALUE PUSH2 0x2AC JUMPI PUSH1 0x20 DUP1 PUSH1 0x3 NOT CALLDATASIZE ADD SLT PUSH2 0xCBC JUMPI DUP2 CALLDATALOAD DUP3 DUP2 LT ISZERO PUSH2 0xCB8 JUMPI PUSH1 0x1 SLOAD PUSH1 0xFF SWAP4 PUSH2 0xB0C PUSH1 0x1 DUP7 DUP5 PUSH1 0x10 SHR AND PUSH2 0x311 DUP2 PUSH2 0x1F16 JUMP JUMPDEST DUP5 DUP3 DUP6 SHR AND SWAP2 DUP2 DUP4 LT ISZERO PUSH2 0xCA5 JUMPI DUP6 SWAP1 PUSH2 0xB33 PUSH1 0x1 DUP1 PUSH1 0xA0 SHL SUB DUP6 PUSH1 0x2 ADD SLOAD AND CALLER EQ PUSH2 0x2083 JUMP JUMPDEST PUSH1 0x18 SHR AND PUSH1 0x8 DUP2 LT ISZERO PUSH2 0xC92 JUMPI DUP2 PUSH2 0xB4B SWAP2 EQ PUSH2 0x20BF JUMP JUMPDEST PUSH2 0xB54 DUP4 PUSH2 0x2FA6 JUMP JUMPDEST ISZERO PUSH2 0xC56 JUMPI POP SWAP2 PUSH2 0xB9B DUP5 SWAP3 PUSH2 0xC3D SWAP5 PUSH32 0x4FEFAD3E9890CA3BB9A7E97D9488E8F968587D66480FC6060DC61959D13750BB DUP5 PUSH1 0x40 MLOAD PUSH2 0xB92 DUP6 PUSH2 0x1F16 JUMP JUMPDEST DUP5 DUP2 MSTORE LOG2 PUSH2 0x306F JUMP JUMPDEST PUSH1 0xD SLOAD SWAP2 DUP4 PUSH2 0xBC7 DUP3 PUSH2 0xBB5 DUP6 MLOAD DUP12 SIGNEXTEND DUP5 DUP9 AND DUP13 SIGNEXTEND PUSH2 0x24AE JUMP JUMPDEST SWAP5 ADD MLOAD DUP10 SIGNEXTEND DUP3 DUP7 PUSH1 0x8 SHR AND DUP11 SIGNEXTEND PUSH2 0x24AE JUMP JUMPDEST SWAP3 DUP2 PUSH2 0xBD7 DUP2 DUP8 PUSH1 0x10 SHR AND PUSH2 0x3116 JUMP JUMPDEST SWAP4 DUP2 PUSH1 0x40 MLOAD SWAP4 PUSH2 0xBE6 DUP6 PUSH2 0x212B JUMP JUMPDEST AND DUP4 MSTORE DUP3 ADD SWAP5 AND DUP5 MSTORE PUSH2 0xBF8 DUP4 PUSH2 0x1F16 JUMP JUMPDEST DUP3 PUSH1 0x40 DUP3 ADD MSTORE MLOAD AND PUSH3 0xFF0000 PUSH2 0xFF00 PUSH1 0x6 SLOAD SWAP5 MLOAD PUSH1 0x8 SHL AND SWAP3 PUSH2 0xC1A DUP2 PUSH2 0x1F16 JUMP JUMPDEST PUSH2 0xC23 DUP2 PUSH2 0x1F16 JUMP JUMPDEST PUSH1 0x10 SHL AND SWAP3 PUSH3 0xFFFFFF NOT AND OR OR OR PUSH1 0x6 SSTORE PUSH1 0x18 SHR AND PUSH2 0x24DE JUMP JUMPDEST SWAP1 DUP2 AND PUSH2 0xC4D JUMPI POP PUSH2 0x490 PUSH2 0x315D JUMP JUMPDEST PUSH2 0x49F SWAP1 PUSH2 0x2CE2 JUMP JUMPDEST PUSH1 0x40 MLOAD PUSH3 0x461BCD PUSH1 0xE5 SHL DUP2 MSTORE SWAP1 DUP2 ADD DUP5 SWAP1 MSTORE PUSH1 0x15 PUSH1 0x24 DUP3 ADD MSTORE PUSH21 0x496E76616C696420626F726465722063686F696365 PUSH1 0x58 SHL PUSH1 0x44 DUP3 ADD MSTORE PUSH1 0x64 SWAP1 REVERT JUMPDEST PUSH4 0x4E487B71 PUSH1 0xE0 SHL DUP8 MSTORE PUSH1 0x21 DUP3 MSTORE PUSH1 0x24 DUP8 REVERT JUMPDEST PUSH4 0x4E487B71 PUSH1 0xE0 SHL DUP8 MSTORE PUSH1 0x32 DUP3 MSTORE PUSH1 0x24 DUP8 REVERT JUMPDEST DUP4 DUP1 REVERT JUMPDEST DUP3 DUP1 REVERT JUMPDEST DUP3 CALLVALUE PUSH2 0x1F0 JUMPI DUP1 PUSH1 0x3 NOT CALLDATASIZE ADD SLT PUSH2 0x1F0 JUMPI PUSH1 0x20 PUSH1 0xFF PUSH1 0x1 SLOAD PUSH1 0x8 SHR AND PUSH1 0x40 MLOAD SWAP1 DUP2 MSTORE RETURN JUMPDEST DUP3 CALLVALUE PUSH2 0x1F0 JUMPI DUP1 PUSH1 0x3 NOT CALLDATASIZE ADD SLT PUSH2 0x1F0 JUMPI PUSH1 0x20 PUSH1 0x11 SLOAD PUSH1 0x40 MLOAD SWAP1 DUP2 MSTORE RETURN JUMPDEST DUP3 CALLVALUE PUSH2 0x1F0 JUMPI DUP1 PUSH1 0x3 NOT CALLDATASIZE ADD SLT PUSH2 0x1F0 JUMPI PUSH2 0x2A8 PUSH1 0xD SLOAD PUSH1 0x40 MLOAD SWAP2 DUP2 PUSH1 0xFF DUP5 SWAP4 PUSH1 0x18 SHR AND SWAP1 PUSH1 0xFF DUP2 PUSH1 0x10 SHR AND SWAP1 PUSH1 0xFF DUP1 DUP3 PUSH1 0x8 SHR AND SWAP2 AND DUP6 PUSH2 0x1FBC JUMP JUMPDEST DUP3 CALLVALUE PUSH2 0x1F0 JUMPI DUP1 PUSH1 0x3 NOT CALLDATASIZE ADD SLT PUSH2 0x1F0 JUMPI PUSH1 0x40 PUSH1 0xB SLOAD PUSH1 0xC SLOAD DUP3 MLOAD SWAP2 DUP3 MSTORE PUSH1 0x20 DUP3 ADD MSTORE RETURN JUMPDEST DUP3 CALLVALUE PUSH2 0x1F0 JUMPI DUP1 PUSH1 0x3 NOT CALLDATASIZE ADD SLT PUSH2 0x1F0 JUMPI PUSH1 0x40 MLOAD PUSH32 0x0 PUSH1 0x1 PUSH1 0x1 PUSH1 0xA0 SHL SUB AND DUP2 MSTORE PUSH1 0x20 SWAP1 RETURN JUMPDEST DUP3 CALLVALUE PUSH2 0x1F0 JUMPI DUP1 PUSH1 0x3 NOT CALLDATASIZE ADD SLT PUSH2 0x1F0 JUMPI PUSH1 0xE0 PUSH1 0x1 SLOAD PUSH1 0xFF SWAP1 DUP2 DUP2 PUSH1 0x10 SHR AND SWAP2 DUP1 PUSH1 0xF SLOAD AND SWAP2 PUSH1 0x40 MLOAD SWAP4 PUSH2 0xDDC DUP2 PUSH2 0x1F16 JUMP JUMPDEST DUP5 MSTORE PUSH2 0xDF0 PUSH1 0x20 DUP6 ADD DUP4 DUP4 PUSH1 0x18 SHR AND PUSH2 0x2038 JUMP JUMPDEST DUP2 DUP2 PUSH1 0x20 SHR AND PUSH1 0x40 DUP6 ADD MSTORE PUSH2 0xFFFF DUP2 PUSH1 0x28 SHR AND PUSH1 0x60 DUP6 ADD MSTORE DUP2 DUP2 AND PUSH1 0x80 DUP6 ADD MSTORE PUSH1 0x8 SHR AND PUSH1 0xA0 DUP4 ADD MSTORE PUSH1 0xC0 DUP3 ADD MSTORE RETURN JUMPDEST DUP3 CALLVALUE PUSH2 0x1F0 JUMPI DUP1 PUSH1 0x3 NOT CALLDATASIZE ADD SLT PUSH2 0x1F0 JUMPI PUSH1 0x20 PUSH1 0xFF PUSH1 0x1 SLOAD PUSH1 0x18 SHR AND PUSH2 0xE49 PUSH1 0x40 MLOAD DUP1 SWAP3 PUSH2 0x2038 JUMP JUMPDEST RETURN JUMPDEST DUP3 CALLVALUE PUSH2 0x1F0 JUMPI DUP1 PUSH1 0x3 NOT CALLDATASIZE ADD SLT PUSH2 0x1F0 JUMPI PUSH1 0x20 PUSH1 0x10 SLOAD PUSH1 0x40 MLOAD SWAP1 DUP2 MSTORE RETURN JUMPDEST DUP3 CALLVALUE PUSH2 0x1F0 JUMPI DUP1 PUSH1 0x3 NOT CALLDATASIZE ADD SLT PUSH2 0x1F0 JUMPI PUSH2 0x2A8 PUSH1 0x6 SLOAD PUSH1 0x40 MLOAD SWAP2 DUP2 PUSH1 0xFF DUP5 SWAP4 PUSH1 0x10 SHR AND SWAP1 PUSH1 0xFF DUP1 DUP3 PUSH1 0x8 SHR AND SWAP2 AND DUP5 PUSH2 0x1FEA JUMP JUMPDEST DUP3 CALLVALUE PUSH2 0x1F0 JUMPI DUP1 PUSH1 0x3 NOT CALLDATASIZE ADD SLT PUSH2 0x1F0 JUMPI PUSH1 0x20 PUSH1 0xFF PUSH1 0x1 SLOAD AND PUSH1 0x40 MLOAD SWAP1 DUP2 MSTORE RETURN JUMPDEST DUP3 CALLVALUE PUSH2 0x1F0 JUMPI DUP1 PUSH1 0x3 NOT CALLDATASIZE ADD SLT PUSH2 0x1F0 JUMPI PUSH1 0x40 MLOAD PUSH2 0xEDC DUP2 PUSH2 0x2147 JUMP JUMPDEST PUSH2 0x620 DUP1 SWAP2 CALLDATASIZE SWAP1 CALLDATACOPY PUSH1 0x40 MLOAD PUSH2 0xEF0 DUP2 PUSH2 0x2147 JUMP JUMPDEST CALLDATASIZE SWAP1 CALLDATACOPY PUSH1 0x1 SLOAD PUSH1 0xFF PUSH1 0xF SLOAD AND PUSH1 0x6 SLOAD PUSH2 0xF07 PUSH2 0x2223 JUMP JUMPDEST SWAP1 PUSH1 0x40 MLOAD SWAP3 DUP4 PUSH1 0x9 SWAP7 JUMPDEST PUSH1 0x31 PUSH1 0x1F DUP3 ADD LT PUSH2 0x1092 JUMPI POP PUSH2 0x1087 SWAP3 PUSH2 0xE49 SWAP6 SWAP5 SWAP3 PUSH1 0xFF SWAP3 PUSH2 0x200 DUP5 PUSH2 0xD80 SWAP12 SLOAD DUP2 DUP2 AND DUP5 MSTORE DUP2 DUP2 PUSH1 0x8 SHR AND PUSH1 0x20 DUP6 ADD MSTORE DUP2 DUP2 PUSH1 0x10 SHR AND PUSH1 0x40 DUP6 ADD MSTORE DUP2 DUP2 PUSH1 0x18 SHR AND PUSH1 0x60 DUP6 ADD MSTORE DUP2 DUP2 PUSH1 0x20 SHR AND PUSH1 0x80 DUP6 ADD MSTORE DUP2 DUP2 PUSH1 0x28 SHR AND PUSH1 0xA0 DUP6 ADD MSTORE DUP2 DUP2 PUSH1 0x30 SHR AND PUSH1 0xC0 DUP6 ADD MSTORE DUP2 DUP2 PUSH1 0x38 SHR AND PUSH1 0xE0 DUP6 ADD MSTORE DUP2 DUP2 PUSH1 0x40 SHR AND PUSH2 0x100 DUP6 ADD MSTORE DUP2 DUP2 PUSH1 0x48 SHR AND PUSH2 0x120 DUP6 ADD MSTORE DUP2 DUP2 PUSH1 0x50 SHR AND PUSH2 0x140 DUP6 ADD MSTORE DUP2 DUP2 PUSH1 0x58 SHR AND PUSH2 0x160 DUP6 ADD MSTORE DUP2 DUP2 PUSH1 0x60 SHR AND PUSH2 0x180 DUP6 ADD MSTORE DUP2 DUP2 PUSH1 0x68 SHR AND PUSH2 0x1A0 DUP6 ADD MSTORE DUP2 DUP2 PUSH1 0x70 SHR AND PUSH2 0x1C0 DUP6 ADD MSTORE DUP2 DUP2 PUSH1 0x78 SHR AND PUSH2 0x1E0 DUP6 ADD MSTORE PUSH1 0x80 SHR AND SWAP2 ADD MSTORE PUSH2 0xFF5 DUP7 PUSH2 0x2147 JUMP JUMPDEST DUP3 PUSH1 0x40 MLOAD SWAP9 PUSH2 0x1008 DUP3 DUP3 PUSH1 0x10 SHR AND PUSH2 0x1F16 JUMP JUMPDEST DUP2 DUP2 PUSH1 0x10 SHR AND DUP11 MSTORE PUSH2 0x1022 PUSH1 0x20 DUP12 ADD DUP4 DUP4 PUSH1 0x18 SHR AND PUSH2 0x2038 JUMP JUMPDEST DUP2 DUP2 PUSH1 0x20 SHR AND PUSH1 0x40 DUP12 ADD MSTORE PUSH2 0xFFFF DUP2 PUSH1 0x28 SHR AND PUSH1 0x60 DUP12 ADD MSTORE DUP2 DUP2 AND PUSH1 0x80 DUP12 ADD MSTORE PUSH1 0x8 SHR AND PUSH1 0xA0 DUP10 ADD MSTORE PUSH1 0xC0 DUP9 ADD MSTORE DUP2 DUP2 AND PUSH1 0xE0 DUP9 ADD MSTORE DUP2 DUP2 PUSH1 0x8 SHR AND PUSH2 0x100 DUP9 ADD MSTORE PUSH2 0x1072 DUP3 DUP3 PUSH1 0x10 SHR AND PUSH2 0x1F16 JUMP JUMPDEST PUSH1 0x10 SHR AND PUSH2 0x120 DUP7 ADD MSTORE PUSH2 0x140 DUP6 ADD SWAP1 PUSH2 0x1F36 JUMP JUMPDEST PUSH2 0x760 DUP4 ADD SWAP1 PUSH2 0x1F36 JUMP JUMPDEST SWAP1 PUSH1 0x1 PUSH2 0x400 PUSH1 0x20 SWAP3 DUP11 SLOAD PUSH1 0xFF DUP2 AND DUP3 MSTORE PUSH1 0xFF DUP2 PUSH1 0x8 SHR AND DUP6 DUP4 ADD MSTORE PUSH1 0xFF DUP2 PUSH1 0x10 SHR AND PUSH1 0x40 DUP4 ADD MSTORE PUSH1 0xFF DUP2 PUSH1 0x60 DUP3 DUP3 PUSH1 0x18 SHR AND DUP2 DUP7 ADD MSTORE DUP3 DUP3 PUSH1 0x80 DUP3 DUP3 DUP13 SHR AND DUP2 DUP10 ADD MSTORE DUP3 DUP3 PUSH1 0xA0 SWAP3 DUP3 DUP3 PUSH1 0x28 SHR AND DUP5 DUP13 ADD MSTORE DUP3 DUP3 PUSH1 0xC0 SWAP9 DUP14 DUP11 DUP5 DUP5 PUSH1 0x30 SHR AND SWAP2 ADD MSTORE DUP14 PUSH1 0xE0 DUP5 DUP5 PUSH1 0x38 SHR AND SWAP2 ADD MSTORE DUP14 PUSH2 0x100 DUP5 DUP5 PUSH1 0x40 SHR AND SWAP2 ADD MSTORE DUP14 PUSH2 0x120 DUP5 DUP5 PUSH1 0x48 SHR AND SWAP2 ADD MSTORE DUP14 PUSH2 0x140 DUP5 DUP5 PUSH1 0x50 SHR AND SWAP2 ADD MSTORE DUP14 PUSH2 0x160 DUP5 DUP5 PUSH1 0x58 SHR AND SWAP2 ADD MSTORE SHR AND PUSH2 0x180 DUP13 ADD MSTORE DUP3 DUP3 PUSH1 0x68 SHR AND PUSH2 0x1A0 DUP13 ADD MSTORE DUP3 DUP3 PUSH1 0x70 SHR AND PUSH2 0x1C0 DUP13 ADD MSTORE DUP3 DUP3 PUSH1 0x78 SHR AND PUSH2 0x1E0 DUP13 ADD MSTORE SHR AND PUSH2 0x200 DUP10 ADD MSTORE DUP3 DUP3 PUSH1 0x88 SHR AND PUSH2 0x220 DUP10 ADD MSTORE DUP3 DUP3 PUSH1 0x90 SHR AND PUSH2 0x240 DUP10 ADD MSTORE DUP3 DUP3 PUSH1 0x98 SHR AND PUSH2 0x260 DUP10 ADD MSTORE SHR AND PUSH2 0x280 DUP7 ADD MSTORE DUP3 DUP3 PUSH1 0xA8 SHR AND PUSH2 0x2A0 DUP7 ADD MSTORE DUP3 DUP3 PUSH1 0xB0 SHR AND PUSH2 0x2C0 DUP7 ADD MSTORE DUP3 DUP3 PUSH1 0xB8 SHR AND PUSH2 0x2E0 DUP7 ADD MSTORE SHR AND PUSH2 0x300 DUP4 ADD MSTORE PUSH1 0xFF DUP2 PUSH1 0xC8 SHR AND PUSH2 0x320 DUP4 ADD MSTORE PUSH1 0xFF DUP2 PUSH1 0xD0 SHR AND PUSH2 0x340 DUP4 ADD MSTORE PUSH1 0xFF DUP2 PUSH1 0xD8 SHR AND PUSH2 0x360 DUP4 ADD MSTORE PUSH1 0xFF DUP2 PUSH1 0xE0 SHR AND PUSH2 0x380 DUP4 ADD MSTORE PUSH1 0xFF DUP2 PUSH1 0xE8 SHR AND PUSH2 0x3A0 DUP4 ADD MSTORE PUSH1 0xFF DUP2 PUSH1 0xF0 SHR AND PUSH2 0x3C0 DUP4 ADD MSTORE PUSH1 0xF8 SHR PUSH2 0x3E0 DUP3 ADD MSTORE ADD SWAP9 ADD SWAP2 ADD SWAP7 SWAP1 SWAP7 PUSH2 0xF11 JUMP JUMPDEST DUP3 CALLVALUE PUSH2 0x1F0 JUMPI DUP1 PUSH1 0x3 NOT CALLDATASIZE ADD SLT PUSH2 0x1F0 JUMPI PUSH1 0x40 MLOAD PUSH2 0x1242 DUP2 PUSH2 0x2164 JUMP JUMPDEST PUSH1 0x80 SWAP2 DUP3 CALLDATASIZE DUP4 CALLDATACOPY PUSH1 0x40 MLOAD SWAP3 PUSH2 0x1256 DUP5 PUSH2 0x2164 JUMP JUMPDEST DUP1 CALLDATASIZE DUP6 CALLDATACOPY PUSH1 0x40 MLOAD PUSH2 0x1266 DUP2 PUSH2 0x2164 JUMP JUMPDEST DUP2 CALLDATASIZE DUP3 CALLDATACOPY PUSH1 0x40 MLOAD PUSH2 0x1276 DUP2 PUSH2 0x2164 JUMP JUMPDEST DUP3 CALLDATASIZE DUP3 CALLDATACOPY PUSH1 0x40 MLOAD SWAP2 PUSH2 0x1287 DUP4 PUSH2 0x2164 JUMP JUMPDEST DUP4 CALLDATASIZE DUP5 CALLDATACOPY DUP5 JUMPDEST PUSH1 0xFF DUP1 DUP3 AND SWAP1 DUP11 DUP3 LT ISZERO PUSH2 0x132C JUMPI DUP11 DUP4 LT ISZERO PUSH2 0x1319 JUMPI PUSH1 0x2 DUP4 ADD SLOAD PUSH1 0xFF SWAP4 PUSH1 0x1 SWAP4 SWAP1 SWAP3 SWAP1 PUSH2 0x1309 SWAP1 PUSH1 0x1 PUSH1 0x1 PUSH1 0xA0 SHL SUB DUP5 AND PUSH2 0x12C9 DUP3 DUP16 PUSH2 0x249D JUMP JUMPDEST MSTORE DUP14 PUSH2 0x12DD DUP3 PUSH2 0xFFFF DUP8 PUSH1 0xA0 SHR AND SWAP3 PUSH2 0x249D JUMP JUMPDEST MSTORE DUP3 DUP5 PUSH1 0xB0 SHR AND PUSH2 0x12EE DUP3 DUP11 PUSH2 0x249D JUMP JUMPDEST MSTORE PUSH2 0x12F9 DUP2 DUP11 PUSH2 0x249D JUMP JUMPDEST DUP4 DUP6 PUSH1 0xB8 SHR AND ISZERO ISZERO SWAP1 MSTORE DUP10 PUSH2 0x249D JUMP JUMPDEST SWAP2 PUSH1 0xC0 SHR AND ISZERO ISZERO SWAP1 MSTORE ADD AND PUSH2 0x128D JUMP JUMPDEST PUSH4 0x4E487B71 PUSH1 0xE0 SHL DUP9 MSTORE PUSH1 0x32 DUP12 MSTORE PUSH1 0x24 DUP9 REVERT JUMPDEST DUP6 DUP10 DUP7 DUP14 DUP8 DUP13 DUP16 DUP14 PUSH1 0x40 MLOAD SWAP7 DUP8 SWAP1 DUP5 SWAP2 JUMPDEST DUP8 DUP4 LT PUSH2 0x13BA JUMPI POP POP POP DUP7 ADD SWAP1 DUP3 SWAP2 JUMPDEST DUP6 DUP4 LT PUSH2 0x139F JUMPI POP POP POP PUSH2 0x100 DUP6 ADD JUMPDEST DUP4 DUP3 LT PUSH2 0x1385 JUMPI PUSH2 0x280 DUP7 PUSH2 0xE49 DUP10 PUSH2 0x137A PUSH2 0x180 DUP5 ADD DUP11 PUSH2 0x200E JUMP JUMPDEST PUSH2 0x200 DUP4 ADD SWAP1 PUSH2 0x200E JUMP JUMPDEST PUSH1 0x1 SWAP1 PUSH1 0xFF DUP5 MLOAD AND DUP2 MSTORE PUSH1 0x20 DUP1 SWAP2 ADD SWAP4 ADD SWAP2 ADD SWAP1 SWAP2 PUSH2 0x135D JUMP JUMPDEST PUSH1 0x1 SWAP1 PUSH2 0xFFFF DUP4 MLOAD AND DUP2 MSTORE PUSH1 0x20 DUP1 SWAP2 ADD SWAP3 ADD SWAP3 ADD SWAP2 SWAP1 PUSH2 0x134D JUMP JUMPDEST DUP2 MLOAD PUSH1 0x1 PUSH1 0x1 PUSH1 0xA0 SHL SUB AND DUP2 MSTORE PUSH1 0x1 SWAP3 SWAP1 SWAP3 ADD SWAP2 PUSH1 0x20 SWAP2 DUP3 ADD SWAP2 ADD PUSH2 0x133D JUMP JUMPDEST DUP3 CALLVALUE PUSH2 0x1F0 JUMPI DUP1 PUSH1 0x3 NOT CALLDATASIZE ADD SLT PUSH2 0x1F0 JUMPI PUSH1 0xE SLOAD PUSH1 0x40 DUP1 MLOAD PUSH1 0xFF DUP1 DUP5 AND DUP3 MSTORE PUSH1 0x8 DUP5 SWAP1 SHR AND PUSH1 0x20 DUP3 ADD MSTORE PUSH1 0x10 SWAP3 SWAP1 SWAP3 SHR PUSH2 0xFFFF AND SWAP1 DUP3 ADD MSTORE PUSH1 0x60 SWAP1 RETURN JUMPDEST DUP3 CALLVALUE PUSH2 0x1F0 JUMPI DUP1 PUSH1 0x3 NOT CALLDATASIZE ADD SLT PUSH2 0x1F0 JUMPI PUSH1 0x20 PUSH1 0xFF PUSH1 0xF SLOAD AND PUSH1 0x40 MLOAD SWAP1 DUP2 MSTORE RETURN JUMPDEST SWAP1 POP CALLVALUE PUSH2 0x2AC JUMPI PUSH1 0x20 CALLDATASIZE PUSH1 0x3 NOT ADD SLT PUSH2 0x2AC JUMPI DUP1 CALLDATALOAD SWAP1 DUP1 DUP3 LT ISZERO PUSH2 0xCBC JUMPI PUSH1 0x1 SLOAD SWAP1 PUSH2 0x146F PUSH1 0x1 PUSH1 0xFF DUP5 PUSH1 0x10 SHR AND PUSH2 0x311 DUP2 PUSH2 0x1F16 JUMP JUMPDEST PUSH1 0xFF DUP3 PUSH1 0x20 SHR AND DUP2 DUP2 LT ISZERO PUSH2 0x6D7 JUMPI PUSH1 0x2 ADD SLOAD PUSH2 0x1496 SWAP1 PUSH1 0x1 PUSH1 0x1 PUSH1 0xA0 SHL SUB AND CALLER EQ PUSH2 0x2083 JUMP JUMPDEST PUSH1 0xFF DUP3 PUSH1 0x18 SHR AND PUSH1 0x8 DUP2 LT ISZERO PUSH2 0x1574 JUMPI PUSH1 0x1 PUSH2 0x14B2 SWAP2 EQ PUSH2 0x20BF JUMP JUMPDEST PUSH1 0x6 SLOAD SWAP1 PUSH2 0x14C6 DUP5 PUSH1 0xFF DUP5 PUSH1 0x10 SHR AND PUSH2 0x2EEE JUMP JUMPDEST ISZERO PUSH2 0x153C JUMPI POP PUSH1 0xFF PUSH4 0x2000000 PUSH32 0xF76DB49CB695510D836E64C343594A82D376326E031BA84F930C7BEFC2C1F1C SWAP4 PUSH1 0x20 SWAP4 PUSH2 0x1501 DUP8 PUSH2 0x1F16 JUMP JUMPDEST PUSH3 0xFF0000 DUP8 PUSH1 0x10 SHL AND SWAP1 PUSH3 0xFF0000 NOT AND OR PUSH1 0x6 SSTORE PUSH4 0xFF000000 NOT AND OR DUP1 PUSH1 0x1 SSTORE NUMBER PUSH1 0x10 SSTORE PUSH1 0x40 MLOAD SWAP5 PUSH2 0x1532 DUP2 PUSH2 0x1F16 JUMP JUMPDEST DUP6 MSTORE DUP3 SHR AND SWAP3 LOG2 DUP1 RETURN JUMPDEST PUSH1 0x64 SWAP1 PUSH1 0x20 PUSH1 0x40 MLOAD SWAP2 PUSH3 0x461BCD PUSH1 0xE5 SHL DUP4 MSTORE DUP3 ADD MSTORE PUSH1 0x11 PUSH1 0x24 DUP3 ADD MSTORE PUSH17 0x24B73B30B634B2103234B932B1BA34B7B7 PUSH1 0x79 SHL PUSH1 0x44 DUP3 ADD MSTORE REVERT JUMPDEST PUSH4 0x4E487B71 PUSH1 0xE0 SHL DUP6 MSTORE PUSH1 0x21 DUP3 MSTORE PUSH1 0x24 DUP6 REVERT JUMPDEST DUP3 CALLVALUE PUSH2 0x1F0 JUMPI DUP1 PUSH1 0x3 NOT CALLDATASIZE ADD SLT PUSH2 0x1F0 JUMPI PUSH1 0x20 PUSH1 0x40 MLOAD PUSH32 0x0 DUP2 MSTORE RETURN JUMPDEST DUP3 CALLVALUE PUSH2 0x1F0 JUMPI DUP1 PUSH1 0x3 NOT CALLDATASIZE ADD SLT PUSH2 0x1F0 JUMPI PUSH1 0x20 PUSH2 0xFFFF PUSH1 0x1 SLOAD PUSH1 0x28 SHR AND PUSH1 0x40 MLOAD SWAP1 DUP2 MSTORE RETURN JUMPDEST SWAP1 POP CALLVALUE PUSH2 0x2AC JUMPI PUSH1 0x20 CALLDATASIZE PUSH1 0x3 NOT ADD SLT PUSH2 0x2AC JUMPI CALLDATALOAD SWAP1 PUSH1 0x31 DUP3 LT ISZERO PUSH2 0x1F0 JUMPI PUSH1 0x20 PUSH1 0xFF PUSH2 0x539 DUP5 PUSH2 0x1F76 JUMP JUMPDEST DUP3 CALLVALUE PUSH2 0x1F0 JUMPI PUSH1 0x20 DUP1 PUSH1 0x3 NOT CALLDATASIZE ADD SLT PUSH2 0x2AC JUMPI DUP3 CALLDATALOAD PUSH1 0x1 SLOAD SWAP1 PUSH2 0x1640 PUSH1 0x1 PUSH1 0xFF DUP5 PUSH1 0x10 SHR AND PUSH2 0x311 DUP2 PUSH2 0x1F16 JUMP JUMPDEST PUSH1 0xFF DUP3 DUP5 SHR AND SWAP2 DUP6 DUP4 LT ISZERO PUSH2 0x182A JUMPI PUSH1 0xFF SWAP1 PUSH2 0x1669 PUSH1 0x1 DUP1 PUSH1 0xA0 SHL SUB DUP6 PUSH1 0x2 ADD SLOAD AND CALLER EQ PUSH2 0x2083 JUMP JUMPDEST PUSH1 0x18 SHR AND PUSH1 0x8 DUP2 LT ISZERO PUSH2 0x1817 JUMPI PUSH1 0x3 PUSH2 0x1682 SWAP2 EQ PUSH2 0x20BF JUMP JUMPDEST PUSH1 0xC SLOAD SWAP1 DUP2 NUMBER GT ISZERO PUSH2 0x17D3 JUMPI PUSH2 0x100 DUP3 ADD DUP1 DUP4 GT PUSH2 0x17C0 JUMPI NUMBER GT PUSH2 0x178B JUMPI PUSH1 0x40 MLOAD DUP5 DUP2 ADD SWAP1 DUP3 DUP3 MSTORE DUP6 DUP2 MSTORE PUSH2 0x16B6 DUP2 PUSH2 0x20F9 JUMP JUMPDEST MLOAD SWAP1 KECCAK256 PUSH1 0xB SLOAD SUB PUSH2 0x1758 JUMPI SWAP1 PUSH1 0x6 SWAP2 PUSH1 0x40 MLOAD SWAP1 DUP6 DUP3 ADD SWAP3 BLOCKHASH DUP4 MSTORE PUSH1 0x40 DUP3 ADD MSTORE PUSH1 0x40 DUP2 MSTORE PUSH2 0x16E2 DUP2 PUSH2 0x212B JUMP JUMPDEST MLOAD SWAP1 KECCAK256 MOD PUSH1 0x6 PUSH1 0xFF DUP3 AND LT ISZERO PUSH2 0x1745 JUMPI SWAP1 PUSH32 0x7B1AA3C6771BF8D4DF2D1C35E127B8EF900EA1664EA3290BE43AF7F79E5C9F1C PUSH1 0xFF DUP4 PUSH1 0xF8 PUSH1 0x7 PUSH2 0x490 SWAP8 SWAP7 PUSH1 0x5 SHR AND SLOAD SWAP2 PUSH1 0x3 SHL AND SHR AND SWAP3 DUP4 PUSH1 0xFF NOT PUSH1 0xF SLOAD AND OR PUSH1 0xF SSTORE PUSH1 0x40 MLOAD DUP5 DUP2 MSTORE LOG2 PUSH2 0x2CE2 JUMP JUMPDEST PUSH4 0x4E487B71 PUSH1 0xE0 SHL DUP5 MSTORE PUSH1 0x32 DUP6 MSTORE PUSH1 0x24 DUP5 REVERT JUMPDEST PUSH1 0x40 MLOAD PUSH3 0x461BCD PUSH1 0xE5 SHL DUP2 MSTORE DUP1 DUP8 ADD DUP6 SWAP1 MSTORE PUSH1 0xC PUSH1 0x24 DUP3 ADD MSTORE PUSH12 0x125B9D985B1A59081CD85B1D PUSH1 0xA2 SHL PUSH1 0x44 DUP3 ADD MSTORE PUSH1 0x64 SWAP1 REVERT JUMPDEST PUSH1 0x40 MLOAD PUSH3 0x461BCD PUSH1 0xE5 SHL DUP2 MSTORE DUP1 DUP8 ADD DUP6 SWAP1 MSTORE PUSH1 0xE PUSH1 0x24 DUP3 ADD MSTORE PUSH14 0x10DBDB5B5A5D08195E1C1A5C9959 PUSH1 0x92 SHL PUSH1 0x44 DUP3 ADD MSTORE PUSH1 0x64 SWAP1 REVERT JUMPDEST PUSH4 0x4E487B71 PUSH1 0xE0 SHL DUP7 MSTORE PUSH1 0x11 DUP8 MSTORE PUSH1 0x24 DUP7 REVERT JUMPDEST PUSH1 0x40 MLOAD PUSH3 0x461BCD PUSH1 0xE5 SHL DUP2 MSTORE DUP1 DUP8 ADD DUP6 SWAP1 MSTORE PUSH1 0x1A PUSH1 0x24 DUP3 ADD MSTORE PUSH32 0x4D7573742077616974206174206C65617374203120626C6F636B000000000000 PUSH1 0x44 DUP3 ADD MSTORE PUSH1 0x64 SWAP1 REVERT JUMPDEST PUSH4 0x4E487B71 PUSH1 0xE0 SHL DUP6 MSTORE PUSH1 0x21 DUP7 MSTORE PUSH1 0x24 DUP6 REVERT JUMPDEST PUSH4 0x4E487B71 PUSH1 0xE0 SHL DUP6 MSTORE PUSH1 0x32 DUP7 MSTORE PUSH1 0x24 DUP6 REVERT JUMPDEST DUP3 CALLVALUE PUSH2 0x1F0 JUMPI DUP1 PUSH1 0x3 NOT CALLDATASIZE ADD SLT PUSH2 0x1F0 JUMPI PUSH1 0x40 MLOAD PUSH32 0x0 PUSH1 0x1 PUSH1 0x1 PUSH1 0xA0 SHL SUB AND DUP2 MSTORE PUSH1 0x20 SWAP1 RETURN JUMPDEST DUP3 CALLVALUE PUSH2 0x1F0 JUMPI PUSH1 0x20 CALLDATASIZE PUSH1 0x3 NOT ADD SLT PUSH2 0x1F0 JUMPI PUSH2 0x189C PUSH2 0x1F61 JUMP JUMPDEST SWAP2 DUP1 DUP4 LT ISZERO PUSH2 0x18F9 JUMPI PUSH1 0x2 DUP4 ADD SLOAD PUSH1 0x40 DUP1 MLOAD PUSH1 0x1 PUSH1 0x1 PUSH1 0xA0 SHL SUB DUP4 AND DUP2 MSTORE PUSH1 0xA0 DUP4 DUP2 SHR PUSH2 0xFFFF AND PUSH1 0x20 DUP4 ADD MSTORE PUSH1 0xB0 DUP5 SWAP1 SHR PUSH1 0xFF SWAP1 DUP2 AND SWAP4 DUP4 ADD SWAP4 SWAP1 SWAP4 MSTORE PUSH1 0xB8 DUP5 SWAP1 SHR DUP4 AND ISZERO ISZERO PUSH1 0x60 DUP4 ADD MSTORE PUSH1 0xC0 SWAP4 SWAP1 SWAP4 SHR SWAP1 SWAP2 AND ISZERO ISZERO PUSH1 0x80 DUP3 ADD MSTORE RETURN JUMPDEST PUSH4 0x4E487B71 PUSH1 0xE0 SHL DUP3 MSTORE PUSH1 0x32 SWAP1 MSTORE PUSH1 0x24 SWAP1 REVERT JUMPDEST DUP3 CALLVALUE PUSH2 0x1F0 JUMPI DUP1 PUSH1 0x3 NOT CALLDATASIZE ADD SLT PUSH2 0x1F0 JUMPI PUSH1 0x40 MLOAD PUSH2 0x1929 DUP2 PUSH2 0x2147 JUMP JUMPDEST PUSH2 0x620 DUP1 SWAP2 CALLDATASIZE SWAP1 CALLDATACOPY DUP1 PUSH1 0x40 MLOAD PUSH2 0x193E DUP2 PUSH2 0x2147 JUMP JUMPDEST CALLDATASIZE SWAP1 CALLDATACOPY PUSH2 0x1949 PUSH2 0x2223 JUMP JUMPDEST SWAP1 PUSH1 0x40 MLOAD SWAP1 DUP2 PUSH1 0x9 SWAP5 JUMPDEST PUSH1 0x31 PUSH1 0x1F DUP3 ADD LT PUSH2 0x1A47 JUMPI POP SWAP1 PUSH2 0xE49 SWAP3 SWAP2 PUSH2 0x200 PUSH2 0xC40 SWAP7 SLOAD PUSH1 0xFF SWAP1 DUP2 DUP2 AND DUP5 MSTORE DUP2 DUP2 PUSH1 0x8 SHR AND PUSH1 0x20 DUP6 ADD MSTORE DUP2 DUP2 PUSH1 0x10 SHR AND PUSH1 0x40 DUP6 ADD MSTORE DUP2 DUP2 PUSH1 0x18 SHR AND PUSH1 0x60 DUP6 ADD MSTORE DUP2 DUP2 PUSH1 0x20 SHR AND PUSH1 0x80 DUP6 ADD MSTORE DUP2 DUP2 PUSH1 0x28 SHR AND PUSH1 0xA0 DUP6 ADD MSTORE DUP2 DUP2 PUSH1 0x30 SHR AND PUSH1 0xC0 DUP6 ADD MSTORE DUP2 DUP2 PUSH1 0x38 SHR AND PUSH1 0xE0 DUP6 ADD MSTORE DUP2 DUP2 PUSH1 0x40 SHR AND PUSH2 0x100 DUP6 ADD MSTORE DUP2 DUP2 PUSH1 0x48 SHR AND PUSH2 0x120 DUP6 ADD MSTORE DUP2 DUP2 PUSH1 0x50 SHR AND PUSH2 0x140 DUP6 ADD MSTORE DUP2 DUP2 PUSH1 0x58 SHR AND PUSH2 0x160 DUP6 ADD MSTORE DUP2 DUP2 PUSH1 0x60 SHR AND PUSH2 0x180 DUP6 ADD MSTORE DUP2 DUP2 PUSH1 0x68 SHR AND PUSH2 0x1A0 DUP6 ADD MSTORE DUP2 DUP2 PUSH1 0x70 SHR AND PUSH2 0x1C0 DUP6 ADD MSTORE DUP2 DUP2 PUSH1 0x78 SHR AND PUSH2 0x1E0 DUP6 ADD MSTORE PUSH1 0x80 SHR AND SWAP2 ADD MSTORE PUSH2 0x1A32 DUP3 PUSH2 0x2147 JUMP JUMPDEST PUSH2 0x1A3F PUSH1 0x40 MLOAD DUP1 SWAP6 PUSH2 0x1F36 JUMP JUMPDEST DUP4 ADD SWAP1 PUSH2 0x1F36 JUMP JUMPDEST SWAP1 PUSH1 0x1 PUSH2 0x400 PUSH1 0x20 SWAP3 DUP9 SLOAD PUSH1 0xFF DUP1 DUP3 AND DUP4 MSTORE DUP1 DUP3 DUP5 DUP3 DUP3 DUP11 DUP3 DUP3 PUSH1 0x8 SHR AND DUP2 DUP6 ADD MSTORE DUP3 DUP3 PUSH1 0x10 SHR AND PUSH1 0x40 DUP6 ADD MSTORE DUP3 DUP3 PUSH1 0x60 SWAP3 DUP3 DUP3 PUSH1 0x18 SHR AND DUP5 DUP9 ADD MSTORE DUP3 DUP3 PUSH1 0x80 SWAP3 SHR AND DUP2 DUP9 ADD MSTORE DUP3 DUP3 PUSH1 0xA0 SWAP6 DUP3 DUP3 PUSH1 0x28 SHR AND DUP8 DUP12 ADD MSTORE PUSH1 0xC0 SWAP10 DUP4 DUP4 PUSH1 0x30 SHR AND DUP12 DUP3 ADD MSTORE DUP4 DUP4 PUSH1 0x38 SHR AND PUSH1 0xE0 DUP3 ADD MSTORE DUP4 DUP4 PUSH1 0x40 SHR AND PUSH2 0x100 DUP3 ADD MSTORE DUP4 DUP4 PUSH1 0x48 SHR AND PUSH2 0x120 DUP3 ADD MSTORE DUP4 DUP4 PUSH1 0x50 SHR AND PUSH2 0x140 DUP3 ADD MSTORE PUSH2 0x160 DUP5 DUP5 PUSH1 0x58 SHR AND SWAP2 ADD MSTORE SHR AND PUSH2 0x180 DUP14 ADD MSTORE DUP3 DUP3 PUSH1 0x68 SHR AND PUSH2 0x1A0 DUP14 ADD MSTORE DUP3 DUP3 PUSH1 0x70 SHR AND PUSH2 0x1C0 DUP14 ADD MSTORE DUP3 DUP3 PUSH1 0x78 SHR AND PUSH2 0x1E0 DUP14 ADD MSTORE SHR AND PUSH2 0x200 DUP11 ADD MSTORE DUP3 DUP3 PUSH1 0x88 SHR AND PUSH2 0x220 DUP11 ADD MSTORE DUP3 DUP3 PUSH1 0x90 SHR AND PUSH2 0x240 DUP11 ADD MSTORE DUP3 DUP3 PUSH1 0x98 SHR AND PUSH2 0x260 DUP11 ADD MSTORE SHR AND PUSH2 0x280 DUP8 ADD MSTORE DUP3 DUP3 PUSH1 0xA8 SHR AND PUSH2 0x2A0 DUP8 ADD MSTORE DUP3 DUP3 PUSH1 0xB0 SHR AND PUSH2 0x2C0 DUP8 ADD MSTORE DUP3 DUP3 PUSH1 0xB8 SHR AND PUSH2 0x2E0 DUP8 ADD MSTORE SHR AND PUSH2 0x300 DUP5 ADD MSTORE DUP1 DUP3 PUSH1 0xC8 SHR AND PUSH2 0x320 DUP5 ADD MSTORE DUP1 DUP3 PUSH1 0xD0 SHR AND PUSH2 0x340 DUP5 ADD MSTORE DUP1 DUP3 PUSH1 0xD8 SHR AND PUSH2 0x360 DUP5 ADD MSTORE DUP1 DUP3 PUSH1 0xE0 SHR AND PUSH2 0x380 DUP5 ADD MSTORE DUP1 DUP3 PUSH1 0xE8 SHR AND PUSH2 0x3A0 DUP5 ADD MSTORE DUP2 PUSH1 0xF0 SHR AND PUSH2 0x3C0 DUP4 ADD MSTORE PUSH1 0xF8 SHR PUSH2 0x3E0 DUP3 ADD MSTORE ADD SWAP7 ADD SWAP2 ADD SWAP5 SWAP1 SWAP5 PUSH2 0x1953 JUMP JUMPDEST SWAP1 POP CALLVALUE PUSH2 0x2AC JUMPI PUSH1 0x20 CALLDATASIZE PUSH1 0x3 NOT ADD SLT PUSH2 0x2AC JUMPI CALLDATALOAD PUSH1 0x1 PUSH1 0x1 PUSH1 0xA0 SHL SUB DUP2 AND DUP2 SUB PUSH2 0x2AC JUMPI SWAP1 PUSH2 0x1BFE PUSH1 0x20 SWAP3 PUSH2 0x21A2 JUMP JUMPDEST PUSH1 0x40 MLOAD SWAP2 SIGNEXTEND DUP2 MSTORE RETURN JUMPDEST DUP3 CALLVALUE PUSH2 0x1F0 JUMPI DUP1 PUSH1 0x3 NOT CALLDATASIZE ADD SLT PUSH2 0x1F0 JUMPI PUSH1 0x20 PUSH1 0x40 MLOAD PUSH2 0xFFFF PUSH32 0x0 AND DUP2 MSTORE RETURN JUMPDEST DUP3 CALLVALUE PUSH2 0x1F0 JUMPI DUP1 PUSH1 0x3 NOT CALLDATASIZE ADD SLT PUSH2 0x1F0 JUMPI PUSH1 0x20 PUSH1 0xFF PUSH1 0x1 SLOAD PUSH1 0x10 SHR AND PUSH1 0x40 MLOAD SWAP1 PUSH2 0x1C6F DUP2 PUSH2 0x1F16 JUMP JUMPDEST DUP2 MSTORE RETURN JUMPDEST SWAP1 POP CALLVALUE PUSH2 0x2AC JUMPI PUSH1 0x20 CALLDATASIZE PUSH1 0x3 NOT ADD SLT PUSH2 0x2AC JUMPI DUP1 CALLDATALOAD SWAP1 PUSH1 0x1 SLOAD SWAP1 PUSH2 0x1CA2 PUSH1 0x1 PUSH1 0xFF DUP5 PUSH1 0x10 SHR AND PUSH2 0x311 DUP2 PUSH2 0x1F16 JUMP JUMPDEST PUSH1 0xFF DUP3 PUSH1 0x20 SHR AND DUP2 DUP2 LT ISZERO PUSH2 0x6D7 JUMPI PUSH1 0x2 ADD SLOAD PUSH2 0x1CC9 SWAP1 PUSH1 0x1 PUSH1 0x1 PUSH1 0xA0 SHL SUB AND CALLER EQ PUSH2 0x2083 JUMP JUMPDEST PUSH1 0xFF DUP3 PUSH1 0x18 SHR AND SWAP1 PUSH1 0x8 DUP3 LT ISZERO PUSH2 0x1D4C JUMPI POP PUSH1 0xFF PUSH4 0x3000000 PUSH32 0x9DCCFAB01AFD40598B5C5DADE2781B72AB4E70E1292F0D080151FF1DC85D6A69 SWAP4 PUSH2 0x1D12 PUSH1 0x2 PUSH1 0x20 SWAP6 EQ PUSH2 0x20BF JUMP JUMPDEST PUSH1 0x40 MLOAD PUSH2 0x1D1E DUP2 PUSH2 0x20F9 JUMP JUMPDEST DUP7 DUP2 MSTORE DUP5 NUMBER SWAP2 ADD MSTORE DUP6 PUSH1 0xB SSTORE NUMBER PUSH1 0xC SSTORE PUSH4 0xFF000000 NOT AND OR DUP1 PUSH1 0x1 SSTORE NUMBER PUSH1 0x10 SSTORE PUSH1 0x40 MLOAD SWAP5 DUP6 MSTORE DUP3 SHR AND SWAP3 LOG2 DUP1 RETURN JUMPDEST PUSH4 0x4E487B71 PUSH1 0xE0 SHL DUP6 MSTORE PUSH1 0x21 SWAP1 MSTORE PUSH1 0x24 DUP5 REVERT JUMPDEST SWAP1 POP CALLVALUE PUSH2 0x2AC JUMPI DUP2 PUSH1 0x3 NOT CALLDATASIZE ADD SLT PUSH2 0x2AC JUMPI PUSH1 0x1 SLOAD PUSH2 0x1D89 PUSH1 0x1 PUSH1 0xFF DUP4 PUSH1 0x10 SHR AND PUSH2 0x311 DUP2 PUSH2 0x1F16 JUMP JUMPDEST PUSH1 0xFF DUP2 PUSH1 0x20 SHR AND DUP3 DUP2 LT ISZERO PUSH2 0x1E1E JUMPI PUSH1 0x2 ADD SLOAD PUSH1 0xFF SWAP2 SWAP1 PUSH2 0x1DB4 SWAP1 PUSH1 0x1 PUSH1 0x1 PUSH1 0xA0 SHL SUB AND CALLER EQ PUSH2 0x2083 JUMP JUMPDEST PUSH1 0x18 SHR AND SWAP1 PUSH1 0x8 DUP3 LT ISZERO PUSH2 0x1E0B JUMPI POP PUSH1 0x5 PUSH2 0x1DCF SWAP2 EQ PUSH2 0x20BF JUMP JUMPDEST PUSH2 0x1DD7 PUSH2 0x2BB6 JUMP JUMPDEST NUMBER PUSH1 0x10 SSTORE PUSH1 0xFF PUSH1 0x1 SLOAD PUSH1 0x20 SHR AND PUSH32 0x9E1CBFEAE206833F4BED941EC158ABA382F584B035EE358D139F7A260D6C906F DUP3 DUP1 LOG2 DUP1 RETURN JUMPDEST PUSH4 0x4E487B71 PUSH1 0xE0 SHL DUP4 MSTORE PUSH1 0x21 SWAP1 MSTORE PUSH1 0x24 DUP3 REVERT JUMPDEST PUSH4 0x4E487B71 PUSH1 0xE0 SHL DUP5 MSTORE PUSH1 0x32 DUP4 MSTORE PUSH1 0x24 DUP5 REVERT JUMPDEST SWAP1 POP CALLVALUE PUSH2 0x2AC JUMPI DUP2 PUSH1 0x3 NOT CALLDATASIZE ADD SLT PUSH2 0x2AC JUMPI PUSH1 0x1 SLOAD SWAP1 PUSH2 0x1E5C PUSH1 0x1 PUSH1 0xFF DUP5 PUSH1 0x10 SHR AND PUSH2 0x311 DUP2 PUSH2 0x1F16 JUMP JUMPDEST PUSH1 0x10 SLOAD PUSH2 0x100 DUP2 ADD DUP1 SWAP2 GT PUSH2 0x1F03 JUMPI NUMBER GT ISZERO PUSH2 0x1ECB JUMPI POP PUSH1 0x20 SHR PUSH1 0xFF AND PUSH2 0x1E82 DUP2 PUSH2 0x2579 JUMP JUMPDEST PUSH32 0x5A27F5894322B0A59A58A977DEF37C8D5BE16ABA9A1493A1A5A776FEE6340C3D DUP3 DUP1 LOG2 PUSH1 0x1 PUSH1 0xFF PUSH2 0x1EB2 PUSH2 0x2624 JUMP JUMPDEST AND GT PUSH2 0x1EC3 JUMPI PUSH2 0x1EC0 PUSH2 0x2849 JUMP JUMPDEST DUP1 RETURN JUMPDEST PUSH2 0x1EC0 PUSH2 0x26CB JUMP JUMPDEST PUSH1 0x64 SWAP1 PUSH1 0x20 PUSH1 0x40 MLOAD SWAP2 PUSH3 0x461BCD PUSH1 0xE5 SHL DUP4 MSTORE DUP3 ADD MSTORE PUSH1 0x11 PUSH1 0x24 DUP3 ADD MSTORE PUSH17 0x139BDD081D1A5B5959081BDD5D081E595D PUSH1 0x7A SHL PUSH1 0x44 DUP3 ADD MSTORE REVERT JUMPDEST PUSH4 0x4E487B71 PUSH1 0xE0 SHL DUP5 MSTORE PUSH1 0x11 DUP3 MSTORE PUSH1 0x24 DUP5 REVERT JUMPDEST PUSH1 0x4 GT ISZERO PUSH2 0x1F20 JUMPI JUMP JUMPDEST PUSH4 0x4E487B71 PUSH1 0xE0 SHL PUSH1 0x0 MSTORE PUSH1 0x21 PUSH1 0x4 MSTORE PUSH1 0x24 PUSH1 0x0 REVERT JUMPDEST PUSH1 0x0 SWAP2 JUMPDEST PUSH1 0x31 DUP4 LT PUSH2 0x1F47 JUMPI POP POP POP JUMP JUMPDEST PUSH1 0x1 SWAP1 PUSH1 0xFF DUP4 MLOAD AND DUP2 MSTORE PUSH1 0x20 DUP1 SWAP2 ADD SWAP3 ADD SWAP3 ADD SWAP2 SWAP1 PUSH2 0x1F3A JUMP JUMPDEST PUSH1 0x4 CALLDATALOAD SWAP1 PUSH1 0xFF DUP3 AND DUP3 SUB PUSH2 0x1F71 JUMPI JUMP JUMPDEST PUSH1 0x0 DUP1 REVERT JUMPDEST SWAP1 PUSH1 0x31 DUP3 LT ISZERO PUSH2 0x1F8E JUMPI PUSH1 0x1F DUP3 PUSH1 0x5 SHR PUSH1 0x7 ADD SWAP3 AND SWAP1 JUMP JUMPDEST PUSH4 0x4E487B71 PUSH1 0xE0 SHL PUSH1 0x0 MSTORE PUSH1 0x32 PUSH1 0x4 MSTORE PUSH1 0x24 PUSH1 0x0 REVERT JUMPDEST SWAP1 PUSH1 0x31 DUP3 LT ISZERO PUSH2 0x1F8E JUMPI PUSH1 0x1F DUP3 PUSH1 0x5 SHR PUSH1 0x9 ADD SWAP3 AND SWAP1 JUMP JUMPDEST SWAP3 SWAP4 PUSH1 0xFF SWAP2 SWAP6 SWAP5 DUP3 PUSH1 0x60 SWAP5 DUP2 PUSH1 0x80 DUP9 ADD SWAP10 AND DUP8 MSTORE AND PUSH1 0x20 DUP7 ADD MSTORE PUSH2 0x1FDF DUP2 PUSH2 0x1F16 JUMP JUMPDEST PUSH1 0x40 DUP6 ADD MSTORE AND SWAP2 ADD MSTORE JUMP JUMPDEST PUSH1 0xFF PUSH1 0x40 SWAP3 SWAP6 SWAP5 SWAP4 DUP2 PUSH1 0x60 DUP5 ADD SWAP8 AND DUP4 MSTORE AND PUSH1 0x20 DUP3 ADD MSTORE PUSH2 0x200A DUP4 PUSH2 0x1F16 JUMP JUMPDEST ADD MSTORE JUMP JUMPDEST PUSH1 0x0 SWAP2 JUMPDEST PUSH1 0x4 DUP4 LT PUSH2 0x201F JUMPI POP POP POP JUMP JUMPDEST PUSH1 0x1 SWAP1 DUP3 MLOAD ISZERO ISZERO DUP2 MSTORE PUSH1 0x20 DUP1 SWAP2 ADD SWAP3 ADD SWAP3 ADD SWAP2 SWAP1 PUSH2 0x2012 JUMP JUMPDEST SWAP1 PUSH1 0x8 DUP3 LT ISZERO PUSH2 0x1F20 JUMPI MSTORE JUMP JUMPDEST ISZERO PUSH2 0x204C JUMPI JUMP JUMPDEST PUSH1 0x40 MLOAD PUSH3 0x461BCD PUSH1 0xE5 SHL DUP2 MSTORE PUSH1 0x20 PUSH1 0x4 DUP3 ADD MSTORE PUSH1 0xF PUSH1 0x24 DUP3 ADD MSTORE PUSH15 0x47616D65206E6F7420616374697665 PUSH1 0x88 SHL PUSH1 0x44 DUP3 ADD MSTORE PUSH1 0x64 SWAP1 REVERT JUMPDEST ISZERO PUSH2 0x208A JUMPI JUMP JUMPDEST PUSH1 0x40 MLOAD PUSH3 0x461BCD PUSH1 0xE5 SHL DUP2 MSTORE PUSH1 0x20 PUSH1 0x4 DUP3 ADD MSTORE PUSH1 0xD PUSH1 0x24 DUP3 ADD MSTORE PUSH13 0x2737BA103CB7BAB9103A3AB937 PUSH1 0x99 SHL PUSH1 0x44 DUP3 ADD MSTORE PUSH1 0x64 SWAP1 REVERT JUMPDEST ISZERO PUSH2 0x20C6 JUMPI JUMP JUMPDEST PUSH1 0x40 MLOAD PUSH3 0x461BCD PUSH1 0xE5 SHL DUP2 MSTORE PUSH1 0x20 PUSH1 0x4 DUP3 ADD MSTORE PUSH1 0xB PUSH1 0x24 DUP3 ADD MSTORE PUSH11 0x57726F6E67207068617365 PUSH1 0xA8 SHL PUSH1 0x44 DUP3 ADD MSTORE PUSH1 0x64 SWAP1 REVERT JUMPDEST PUSH1 0x40 DUP2 ADD SWAP1 DUP2 LT PUSH8 0xFFFFFFFFFFFFFFFF DUP3 GT OR PUSH2 0x2115 JUMPI PUSH1 0x40 MSTORE JUMP JUMPDEST PUSH4 0x4E487B71 PUSH1 0xE0 SHL PUSH1 0x0 MSTORE PUSH1 0x41 PUSH1 0x4 MSTORE PUSH1 0x24 PUSH1 0x0 REVERT JUMPDEST PUSH1 0x60 DUP2 ADD SWAP1 DUP2 LT PUSH8 0xFFFFFFFFFFFFFFFF DUP3 GT OR PUSH2 0x2115 JUMPI PUSH1 0x40 MSTORE JUMP JUMPDEST PUSH2 0x620 DUP2 ADD SWAP1 DUP2 LT PUSH8 0xFFFFFFFFFFFFFFFF DUP3 GT OR PUSH2 0x2115 JUMPI PUSH1 0x40 MSTORE JUMP JUMPDEST PUSH1 0x80 DUP2 ADD SWAP1 DUP2 LT PUSH8 0xFFFFFFFFFFFFFFFF DUP3 GT OR PUSH2 0x2115 JUMPI PUSH1 0x40 MSTORE JUMP JUMPDEST SWAP1 PUSH1 0x1F DUP1 NOT SWAP2 ADD AND DUP2 ADD SWAP1 DUP2 LT PUSH8 0xFFFFFFFFFFFFFFFF DUP3 GT OR PUSH2 0x2115 JUMPI PUSH1 0x40 MSTORE JUMP JUMPDEST PUSH1 0x1 DUP1 SLOAD PUSH1 0x0 SWAP3 PUSH1 0xFF SWAP3 SWAP2 DUP4 AND SWAP1 DUP5 SWAP1 DUP4 JUMPDEST PUSH2 0x21C5 JUMPI JUMPDEST POP POP POP POP POP POP PUSH1 0x0 NOT SWAP1 JUMP JUMPDEST DUP5 DUP7 AND DUP4 DUP2 LT ISZERO PUSH2 0x221D JUMPI PUSH1 0x4 DUP1 DUP9 LT ISZERO PUSH2 0x220A JUMPI POP PUSH1 0x2 DUP8 ADD SLOAD PUSH1 0x1 PUSH1 0x1 PUSH1 0xA0 SHL SUB DUP4 DUP2 AND SWAP2 AND EQ PUSH2 0x21FF JUMPI POP SWAP5 DUP4 ADD DUP5 AND SWAP5 DUP4 PUSH2 0x21B4 JUMP JUMPDEST SWAP6 POP POP SWAP3 POP POP POP SIGNEXTEND SWAP1 JUMP JUMPDEST PUSH4 0x4E487B71 PUSH1 0xE0 SHL DUP5 MSTORE PUSH1 0x32 SWAP1 MSTORE PUSH1 0x24 DUP4 REVERT JUMPDEST POP PUSH2 0x21B9 JUMP JUMPDEST PUSH1 0x40 SWAP1 PUSH1 0x40 MLOAD SWAP2 DUP3 SWAP1 PUSH1 0x7 SWAP1 PUSH1 0x0 SWAP1 JUMPDEST PUSH1 0x31 PUSH1 0x1F DUP4 ADD LT PUSH2 0x230C JUMPI POP POP PUSH2 0x200 SWAP1 SLOAD PUSH1 0xFF SWAP1 DUP2 DUP2 AND DUP5 MSTORE DUP2 DUP2 PUSH1 0x8 SHR AND PUSH1 0x20 DUP6 ADD MSTORE DUP2 DUP2 PUSH1 0x10 SHR AND PUSH1 0x40 DUP6 ADD MSTORE DUP2 DUP2 PUSH1 0x18 SHR AND PUSH1 0x60 DUP6 ADD MSTORE DUP2 DUP2 PUSH1 0x20 SHR AND PUSH1 0x80 DUP6 ADD MSTORE DUP2 DUP2 PUSH1 0x28 SHR AND PUSH1 0xA0 DUP6 ADD MSTORE DUP2 DUP2 PUSH1 0x30 SHR AND PUSH1 0xC0 DUP6 ADD MSTORE DUP2 DUP2 PUSH1 0x38 SHR AND PUSH1 0xE0 DUP6 ADD MSTORE DUP2 DUP2 PUSH1 0x40 SHR AND PUSH2 0x100 DUP6 ADD MSTORE DUP2 DUP2 PUSH1 0x48 SHR AND PUSH2 0x120 DUP6 ADD MSTORE DUP2 DUP2 PUSH1 0x50 SHR AND PUSH2 0x140 DUP6 ADD MSTORE DUP2 DUP2 PUSH1 0x58 SHR AND PUSH2 0x160 DUP6 ADD MSTORE DUP2 DUP2 PUSH1 0x60 SHR AND PUSH2 0x180 DUP6 ADD MSTORE DUP2 DUP2 PUSH1 0x68 SHR AND PUSH2 0x1A0 DUP6 ADD MSTORE DUP2 DUP2 PUSH1 0x70 SHR AND PUSH2 0x1C0 DUP6 ADD MSTORE DUP2 DUP2 PUSH1 0x78 SHR AND PUSH2 0x1E0 DUP6 ADD MSTORE PUSH1 0x80 SHR AND SWAP2 ADD MSTORE PUSH2 0x230A DUP3 PUSH2 0x2147 JUMP JUMPDEST JUMP JUMPDEST SWAP1 SWAP2 SWAP3 PUSH1 0x1 PUSH2 0x400 PUSH1 0x20 SWAP3 DUP7 SLOAD PUSH1 0xFF DUP2 AND DUP3 MSTORE PUSH1 0xFF DUP2 DUP8 DUP3 DUP3 DUP10 DUP3 DUP3 PUSH1 0x8 SHR AND DUP2 DUP10 ADD MSTORE DUP3 DUP3 PUSH1 0x10 SHR AND DUP5 DUP10 ADD MSTORE DUP3 DUP3 PUSH1 0x60 SWAP3 DUP3 DUP3 PUSH1 0x18 SHR AND DUP5 DUP13 ADD MSTORE DUP3 DUP3 PUSH1 0x80 SWAP3 SHR AND DUP2 DUP13 ADD MSTORE DUP3 DUP3 PUSH1 0xA0 SWAP6 DUP14 DUP8 DUP5 DUP5 PUSH1 0x28 SHR AND SWAP2 ADD MSTORE DUP14 PUSH2 0x100 DUP5 DUP5 PUSH1 0xC0 SWAP14 DUP15 DUP4 DUP4 PUSH1 0x30 SHR AND SWAP1 DUP7 ADD MSTORE DUP3 DUP3 PUSH1 0x38 SHR AND PUSH1 0xE0 DUP7 ADD MSTORE SHR AND SWAP2 ADD MSTORE DUP14 PUSH2 0x120 DUP5 DUP5 PUSH1 0x48 SHR AND SWAP2 ADD MSTORE DUP14 PUSH2 0x140 DUP5 DUP5 PUSH1 0x50 SHR AND SWAP2 ADD MSTORE DUP14 PUSH2 0x160 DUP5 DUP5 PUSH1 0x58 SHR AND SWAP2 ADD MSTORE SHR AND PUSH2 0x180 DUP13 ADD MSTORE DUP3 DUP3 PUSH1 0x68 SHR AND PUSH2 0x1A0 DUP13 ADD MSTORE DUP3 DUP3 PUSH1 0x70 SHR AND PUSH2 0x1C0 DUP13 ADD MSTORE DUP3 DUP3 PUSH1 0x78 SHR AND PUSH2 0x1E0 DUP13 ADD MSTORE SHR AND PUSH2 0x200 DUP10 ADD MSTORE DUP3 DUP3 PUSH1 0x88 SHR AND PUSH2 0x220 DUP10 ADD MSTORE DUP3 DUP3 PUSH1 0x90 SHR AND PUSH2 0x240 DUP10 ADD MSTORE DUP3 DUP3 PUSH1 0x98 SHR AND PUSH2 0x260 DUP10 ADD MSTORE SHR AND PUSH2 0x280 DUP7 ADD MSTORE DUP3 DUP3 PUSH1 0xA8 SHR AND PUSH2 0x2A0 DUP7 ADD MSTORE DUP3 DUP3 PUSH1 0xB0 SHR AND PUSH2 0x2C0 DUP7 ADD MSTORE DUP3 DUP3 PUSH1 0xB8 SHR AND PUSH2 0x2E0 DUP7 ADD MSTORE SHR AND PUSH2 0x300 DUP4 ADD MSTORE PUSH1 0xFF DUP2 PUSH1 0xC8 SHR AND PUSH2 0x320 DUP4 ADD MSTORE PUSH1 0xFF DUP2 PUSH1 0xD0 SHR AND PUSH2 0x340 DUP4 ADD MSTORE PUSH1 0xFF DUP2 PUSH1 0xD8 SHR AND PUSH2 0x360 DUP4 ADD MSTORE PUSH1 0xFF DUP2 PUSH1 0xE0 SHR AND PUSH2 0x380 DUP4 ADD MSTORE PUSH1 0xFF DUP2 PUSH1 0xE8 SHR AND PUSH2 0x3A0 DUP4 ADD MSTORE PUSH1 0xFF DUP2 PUSH1 0xF0 SHR AND PUSH2 0x3C0 DUP4 ADD MSTORE PUSH1 0xF8 SHR PUSH2 0x3E0 DUP3 ADD MSTORE ADD SWAP5 ADD SWAP3 ADD SWAP1 PUSH2 0x2233 JUMP JUMPDEST SWAP1 PUSH1 0x4 DUP2 LT ISZERO PUSH2 0x1F8E JUMPI PUSH1 0x5 SHL ADD SWAP1 JUMP JUMPDEST SWAP1 PUSH1 0x0 SIGNEXTEND SWAP1 PUSH1 0x0 SIGNEXTEND ADD SWAP1 PUSH1 0x7F NOT DUP3 SLT PUSH1 0x7F DUP4 SGT OR PUSH2 0x24C8 JUMPI JUMP JUMPDEST PUSH4 0x4E487B71 PUSH1 0xE0 SHL PUSH1 0x0 MSTORE PUSH1 0x11 PUSH1 0x4 MSTORE PUSH1 0x24 PUSH1 0x0 REVERT JUMPDEST PUSH1 0xFF PUSH1 0x0 NOT SWAP2 AND ADD SWAP1 PUSH1 0xFF DUP3 GT PUSH2 0x24C8 JUMPI JUMP JUMPDEST SWAP1 PUSH1 0xFF DUP1 SWAP2 AND SWAP2 AND SUB SWAP1 PUSH1 0xFF DUP3 GT PUSH2 0x24C8 JUMPI JUMP JUMPDEST SWAP1 DUP2 PUSH1 0x20 SWAP2 SUB SLT PUSH2 0x1F71 JUMPI MLOAD DUP1 ISZERO ISZERO DUP2 SUB PUSH2 0x1F71 JUMPI SWAP1 JUMP JUMPDEST PUSH1 0xFF AND PUSH1 0xFF DUP2 EQ PUSH2 0x24C8 JUMPI PUSH1 0x1 ADD SWAP1 JUMP JUMPDEST PUSH1 0xFF PUSH1 0x1 SWAP2 AND ADD SWAP1 PUSH1 0xFF DUP3 GT PUSH2 0x24C8 JUMPI JUMP JUMPDEST SWAP1 PUSH1 0xFF DUP1 SWAP2 AND SWAP2 AND ADD SWAP1 PUSH1 0xFF DUP3 GT PUSH2 0x24C8 JUMPI JUMP JUMPDEST PUSH1 0xFF PUSH1 0x7 SWAP2 AND MUL SWAP1 PUSH1 0xFF DUP3 AND SWAP2 DUP3 SUB PUSH2 0x24C8 JUMPI JUMP JUMPDEST PUSH1 0xFF AND DUP1 ISZERO PUSH2 0x24C8 JUMPI PUSH1 0x0 NOT ADD SWAP1 JUMP JUMPDEST PUSH1 0x4 DUP2 LT ISZERO PUSH2 0x1F8E JUMPI PUSH1 0x2 DUP2 ADD DUP1 SLOAD PUSH4 0xFF00FFFF PUSH1 0xA0 SHL NOT AND PUSH1 0x1 PUSH1 0xB8 SHL OR SWAP1 SSTORE PUSH1 0x0 JUMPDEST PUSH1 0xFF PUSH1 0x31 DUP2 DUP4 AND LT ISZERO PUSH2 0x25F8 JUMPI DUP2 PUSH1 0x1 SWAP2 PUSH2 0x25B9 PUSH1 0xFF SWAP5 PUSH2 0x1F76 JUMP JUMPDEST SWAP1 SLOAD PUSH1 0x3 SWAP3 SWAP2 DUP4 SHL SHR DUP2 AND DUP7 DUP3 AND EQ PUSH2 0x25D6 JUMPI JUMPDEST POP POP ADD AND PUSH2 0x259D JUMP JUMPDEST PUSH2 0x25DF DUP4 PUSH2 0x1F76 JUMP JUMPDEST DUP2 SWAP4 SWAP2 SLOAD SWAP2 SHL SWAP2 PUSH1 0xFE DUP4 SHL SWAP3 SHL NOT AND OR SWAP1 SSTORE CODESIZE DUP1 PUSH2 0x25CD JUMP JUMPDEST POP POP PUSH1 0xFF AND PUSH32 0x1DB753061D684884ACF37BEB032F14F3DC5A25388D7382E187EC78A5D3F0FA3C PUSH1 0x0 DUP1 LOG2 JUMP JUMPDEST PUSH1 0x1 DUP1 SLOAD PUSH1 0x0 SWAP2 PUSH1 0xFF SWAP2 DUP3 AND DUP4 JUMPDEST DUP2 DUP5 DUP3 AND LT PUSH2 0x2642 JUMPI POP POP POP POP SWAP1 JUMP JUMPDEST PUSH1 0x4 DUP1 DUP3 LT ISZERO PUSH2 0x267B JUMPI POP DUP4 DUP2 PUSH1 0x2 ADD SLOAD PUSH1 0xB8 SHR AND ISZERO PUSH2 0x2666 JUMPI JUMPDEST DUP3 ADD DUP4 AND PUSH2 0x2632 JUMP JUMPDEST SWAP4 DUP3 PUSH2 0x2672 DUP6 SWAP3 PUSH2 0x251D JUMP JUMPDEST SWAP6 SWAP2 POP POP PUSH2 0x265D JUMP JUMPDEST PUSH1 0x32 SWAP1 PUSH4 0x4E487B71 PUSH1 0xE0 SHL PUSH1 0x0 MSTORE MSTORE PUSH1 0x24 PUSH1 0x0 REVERT JUMPDEST SWAP1 PUSH1 0xFF AND SWAP1 DUP2 ISZERO PUSH2 0x26A2 JUMPI PUSH1 0xFF AND MOD SWAP1 JUMP JUMPDEST PUSH4 0x4E487B71 PUSH1 0xE0 SHL PUSH1 0x0 MSTORE PUSH1 0x12 PUSH1 0x4 MSTORE PUSH1 0x24 PUSH1 0x0 REVERT JUMPDEST PUSH2 0xFFFF DUP1 SWAP2 AND SWAP1 DUP2 EQ PUSH2 0x24C8 JUMPI PUSH1 0x1 ADD SWAP1 JUMP JUMPDEST PUSH1 0x1 DUP1 SLOAD SWAP1 PUSH1 0xFF SWAP2 PUSH2 0x26EE DUP4 PUSH2 0x26E5 DUP2 DUP5 PUSH1 0x20 SHR AND PUSH2 0x252E JUMP JUMPDEST SWAP3 AND DUP1 SWAP3 PUSH2 0x2690 JUMP JUMPDEST SWAP3 PUSH1 0x0 DUP4 JUMPDEST PUSH2 0x27DC JUMPI JUMPDEST POP DUP3 SWAP1 PUSH1 0x0 SWAP4 JUMPDEST PUSH2 0x2769 JUMPI JUMPDEST POP POP POP POP PUSH2 0x2710 PUSH2 0x3833 JUMP JUMPDEST PUSH2 0x2760 JUMPI PUSH4 0x1000000 SWAP1 PUSH5 0xFF00000000 PUSH1 0x1 SLOAD SWAP2 PUSH1 0x20 SHL AND SWAP1 PUSH5 0xFFFF000000 NOT AND OR OR PUSH7 0xFFFF0000000000 PUSH2 0x274B PUSH2 0xFFFF DUP4 PUSH1 0x28 SHR AND PUSH2 0x26B8 JUMP JUMPDEST PUSH1 0x28 SHL AND SWAP1 PUSH7 0xFFFF0000000000 NOT AND OR PUSH1 0x1 SSTORE JUMP JUMPDEST POP PUSH2 0x230A PUSH2 0x2849 JUMP JUMPDEST SWAP1 SWAP2 SWAP3 SWAP4 PUSH1 0x4 DUP1 DUP3 LT ISZERO PUSH2 0x267B JUMPI POP DUP1 PUSH1 0x2 ADD SLOAD DUP3 DUP1 DUP3 PUSH1 0xB0 SHR AND ISZERO SWAP2 DUP3 PUSH2 0x27CE JUMPI JUMPDEST POP POP DUP1 PUSH2 0x27C3 JUMPI JUMPDEST ISZERO PUSH2 0x27BD JUMPI PUSH2 0x27AE DUP5 PUSH2 0x27A9 PUSH2 0x27B4 SWAP4 PUSH2 0x252E JUMP JUMPDEST PUSH2 0x2690 JUMP JUMPDEST SWAP5 PUSH2 0x251D JUMP JUMPDEST SWAP3 SWAP2 SWAP1 DUP2 PUSH2 0x26FF JUMP JUMPDEST SWAP4 PUSH2 0x2704 JUMP JUMPDEST POP DUP4 DUP3 DUP7 AND LT PUSH2 0x2794 JUMP JUMPDEST PUSH1 0xB8 SHR AND ISZERO SWAP1 POP DUP3 CODESIZE PUSH2 0x278C JUMP JUMPDEST SWAP4 PUSH1 0x4 SWAP4 SWAP3 SWAP4 DUP1 DUP3 LT ISZERO PUSH2 0x267B JUMPI POP DUP2 DUP2 PUSH1 0x2 ADD SLOAD PUSH1 0xB8 SHR AND DUP1 PUSH2 0x2828 JUMPI JUMPDEST ISZERO PUSH2 0x281F JUMPI PUSH2 0x2817 PUSH2 0x2811 DUP6 PUSH2 0x27A9 DUP7 SWAP5 PUSH2 0x252E JUMP JUMPDEST SWAP6 PUSH2 0x251D JUMP JUMPDEST SWAP1 SWAP4 SWAP3 PUSH2 0x26F3 JUMP JUMPDEST SWAP4 SWAP3 SWAP2 SWAP3 PUSH2 0x26F8 JUMP JUMPDEST POP DUP4 DUP3 DUP7 AND LT PUSH2 0x27FB JUMP JUMPDEST SWAP2 SWAP1 SWAP2 PUSH2 0xFFFF DUP1 DUP1 SWAP5 AND SWAP2 AND ADD SWAP2 DUP3 GT PUSH2 0x24C8 JUMPI JUMP JUMPDEST PUSH1 0x1 DUP1 SLOAD PUSH4 0xFFFF0000 NOT DUP2 AND PUSH4 0x7020000 OR DUP3 SSTORE PUSH1 0x0 SWAP2 PUSH1 0xFF SWAP2 DUP3 AND SWAP2 SWAP1 DUP4 DUP1 DUP3 JUMPDEST PUSH2 0x2AF7 JUMPI JUMPDEST POP POP POP PUSH1 0x4 DUP1 DUP5 LT ISZERO DUP1 PUSH2 0x2AE2 JUMPI DUP5 PUSH1 0x2 ADD PUSH1 0x1 DUP1 PUSH1 0xA0 SHL SUB SWAP3 PUSH2 0x28EC DUP5 DUP4 SLOAD AND SWAP7 PUSH1 0x40 SWAP7 DUP8 MLOAD SWAP10 AND DUP10 MSTORE PUSH32 0x63DDD5C647904E83E6F7553D625EFFC3889BB06FE73CB3B9B911DC8AB460CB71 DUP8 PUSH1 0x20 SWAP11 DUP11 DUP13 DUP3 ADD MSTORE LOG1 PUSH32 0x0 PUSH2 0x3898 JUMP JUMPDEST SWAP3 PUSH2 0x2710 PUSH2 0x291E PUSH2 0xFFFF PUSH32 0x0 AND DUP7 PUSH2 0x3898 JUMP JUMPDEST DIV SWAP7 DUP8 DUP6 SUB SWAP5 DUP1 DUP7 GT PUSH2 0x2ACD JUMPI DUP9 SUB PUSH2 0x2A4B JUMPI JUMPDEST POP DUP7 PUSH2 0x299D JUMPI JUMPDEST PUSH2 0x267B JUMPI POP SLOAD DUP4 MLOAD SWAP1 DUP4 AND DUP2 MSTORE SWAP5 DUP6 ADD MSTORE PUSH32 0x0 AND SWAP1 DUP4 ADD MSTORE PUSH1 0x60 DUP3 ADD MSTORE PUSH32 0x59CA82B22A2055EE9DE68A8BA60482D3029AB83DDE06A15377125C19BD14D904 SWAP1 PUSH1 0x80 SWAP1 LOG1 JUMP JUMPDEST DUP6 MLOAD PUSH4 0xA9059CBB PUSH1 0xE0 SHL DUP2 MSTORE PUSH1 0x1 PUSH1 0x1 PUSH1 0xA0 SHL SUB PUSH32 0x0 AND DUP4 DUP3 ADD SWAP1 DUP2 MSTORE PUSH1 0x20 DUP2 ADD DUP10 SWAP1 MSTORE DUP10 SWAP1 DUP3 SWAP1 DUP2 SWAP1 PUSH1 0x40 ADD SUB DUP2 PUSH1 0x0 DUP11 PUSH32 0x0 AND GAS CALL DUP1 ISZERO PUSH2 0x2A40 JUMPI PUSH2 0x2A23 JUMPI JUMPDEST POP PUSH2 0x2939 JUMP JUMPDEST PUSH2 0x2A39 SWAP1 DUP10 RETURNDATASIZE DUP12 GT PUSH2 0x6C5 JUMPI PUSH2 0x6B5 DUP2 DUP4 PUSH2 0x2180 JUMP JUMPDEST POP CODESIZE PUSH2 0x2A1D JUMP JUMPDEST DUP8 MLOAD RETURNDATASIZE PUSH1 0x0 DUP3 RETURNDATACOPY RETURNDATASIZE SWAP1 REVERT JUMPDEST DUP7 MLOAD PUSH4 0xA9059CBB PUSH1 0xE0 SHL DUP2 MSTORE PUSH1 0x1 PUSH1 0x1 PUSH1 0xA0 SHL SUB SWAP1 SWAP2 AND DUP4 DUP3 ADD SWAP1 DUP2 MSTORE PUSH1 0x20 DUP2 ADD DUP7 SWAP1 MSTORE PUSH1 0x0 SWAP3 POP DUP10 SWAP1 DUP3 SWAP1 DUP2 SWAP1 PUSH1 0x40 ADD SUB DUP2 PUSH1 0x0 DUP11 PUSH32 0x0 AND GAS CALL DUP1 ISZERO PUSH2 0x2A40 JUMPI ISZERO PUSH2 0x2932 JUMPI PUSH2 0x2AC6 SWAP1 DUP10 RETURNDATASIZE DUP12 GT PUSH2 0x6C5 JUMPI PUSH2 0x6B5 DUP2 DUP4 PUSH2 0x2180 JUMP JUMPDEST POP CODESIZE PUSH2 0x2932 JUMP JUMPDEST PUSH1 0x11 DUP5 PUSH4 0x4E487B71 PUSH1 0xE0 SHL PUSH1 0x0 MSTORE MSTORE PUSH1 0x24 PUSH1 0x0 REVERT JUMPDEST PUSH1 0x32 DUP3 PUSH4 0x4E487B71 PUSH1 0xE0 SHL PUSH1 0x0 MSTORE MSTORE PUSH1 0x24 PUSH1 0x0 REVERT JUMPDEST DUP4 DUP2 AND DUP6 DUP2 LT ISZERO PUSH2 0x2BB0 JUMPI PUSH1 0x4 DUP1 DUP4 LT ISZERO PUSH2 0x267B JUMPI POP DUP2 PUSH1 0x2 ADD SLOAD SWAP1 DUP5 DUP7 DUP1 DUP5 PUSH1 0xB8 SHR AND PUSH2 0x2BA4 JUMPI POP POP PUSH1 0x0 SWAP1 DUP7 DUP7 DUP4 JUMPDEST PUSH1 0x31 DUP4 DUP3 AND LT PUSH2 0x2B71 JUMPI POP POP POP POP PUSH2 0x2B48 SWAP1 PUSH2 0xFFFF DUP1 SWAP4 PUSH1 0xA0 SHR AND PUSH2 0x2833 JUMP JUMPDEST SWAP1 DUP1 DUP5 AND SWAP1 DUP3 AND GT PUSH2 0x2B65 JUMPI JUMPDEST POP SWAP1 DUP4 DUP4 DUP1 SWAP4 JUMPDEST ADD AND SWAP1 SWAP2 PUSH2 0x286B JUMP JUMPDEST SWAP1 SWAP6 POP SWAP1 POP DUP5 DUP4 PUSH2 0x2B55 JUMP JUMPDEST DUP4 DUP4 PUSH2 0x2B7C DUP4 PUSH2 0x1F76 JUMP JUMPDEST SWAP1 SLOAD SWAP1 PUSH1 0x3 SHL SHR AND EQ PUSH2 0x2B94 JUMPI JUMPDEST ADD AND DUP7 DUP9 SWAP2 PUSH2 0x2B28 JUMP JUMPDEST SWAP4 PUSH2 0x2B9E SWAP1 PUSH2 0x26B8 JUMP JUMPDEST SWAP4 PUSH2 0x2B8A JUMP JUMPDEST SWAP3 POP SWAP4 SWAP3 DUP5 SWAP2 POP PUSH2 0x2B5C JUMP JUMPDEST POP PUSH2 0x2870 JUMP JUMPDEST PUSH1 0xE SLOAD PUSH2 0xFFFF DUP1 DUP3 PUSH1 0x10 SHR AND SWAP2 DUP3 ISZERO ISZERO DUP1 PUSH2 0x2CCF JUMPI JUMPDEST PUSH2 0x2BE9 JUMPI JUMPDEST POP POP POP PUSH4 0x6000000 PUSH4 0xFF000000 NOT PUSH1 0x1 SLOAD AND OR PUSH1 0x1 SSTORE JUMP JUMPDEST PUSH1 0xFF SWAP3 DUP4 DUP3 AND PUSH1 0x4 DUP2 LT ISZERO PUSH2 0x1F8E JUMPI PUSH1 0x2 ADD SWAP2 PUSH1 0x8 SHR DUP5 AND PUSH1 0x4 DUP2 LT ISZERO PUSH2 0x1F8E JUMPI PUSH1 0x2 ADD DUP4 DUP4 SLOAD PUSH1 0xA0 SHR AND SWAP2 DUP3 DUP2 GT PUSH1 0x0 EQ PUSH2 0x2CC9 JUMPI POP DUP2 JUMPDEST DUP5 DUP4 AND SWAP1 SUB DUP5 DUP2 GT PUSH2 0x24C8 JUMPI DUP4 SLOAD PUSH2 0xFFFF PUSH1 0xA0 SHL NOT AND PUSH1 0xA0 SWAP2 SWAP1 SWAP2 SHL PUSH2 0xFFFF PUSH1 0xA0 SHL AND OR DUP4 SSTORE PUSH2 0x2C78 SWAP2 PUSH2 0x2C5C SWAP1 DUP6 DUP4 SLOAD PUSH1 0xA0 SHR AND PUSH2 0x2833 JUMP JUMPDEST DUP2 SLOAD PUSH2 0xFFFF PUSH1 0xA0 SHL NOT AND PUSH1 0xA0 SWAP2 SWAP1 SWAP2 SHL PUSH2 0xFFFF PUSH1 0xA0 SHL AND OR SWAP1 SSTORE JUMP JUMPDEST SLOAD PUSH1 0xA0 SHR AND ISZERO PUSH2 0x2C8A JUMPI JUMPDEST DUP1 DUP1 PUSH2 0x2BD1 JUMP JUMPDEST PUSH2 0x2C97 DUP2 PUSH1 0xE SLOAD AND PUSH2 0x2579 JUMP JUMPDEST PUSH1 0x1 DUP2 PUSH2 0x2CA2 PUSH2 0x2624 JUMP JUMPDEST AND GT ISZERO PUSH2 0x2760 JUMPI DUP1 PUSH1 0xE SLOAD AND SWAP1 PUSH1 0x1 SLOAD PUSH1 0x20 SHR AND EQ PUSH2 0x2CC1 JUMPI CODESIZE PUSH2 0x2C83 JUMP JUMPDEST PUSH2 0x230A PUSH2 0x26CB JUMP JUMPDEST SWAP2 PUSH2 0x2C22 JUMP JUMPDEST POP PUSH1 0xFF DUP2 PUSH1 0x8 SHR AND PUSH1 0xFF DUP3 AND EQ ISZERO PUSH2 0x2BCC JUMP JUMPDEST SWAP1 JUMPDEST PUSH1 0xFF SWAP2 DUP3 DUP2 AND SWAP3 DUP4 ISZERO PUSH2 0x2E9A JUMPI PUSH2 0x2D47 SWAP4 PUSH1 0x6 SWAP2 DUP3 SLOAD SWAP1 DUP1 DUP3 PUSH1 0x10 SHR AND SWAP3 PUSH2 0x2D0B DUP5 PUSH2 0x306F JUMP JUMPDEST SWAP4 DUP3 DUP5 AND SWAP1 PUSH1 0x0 SWAP6 PUSH2 0x2D22 DUP2 MLOAD DUP9 SIGNEXTEND DUP5 DUP10 SIGNEXTEND PUSH2 0x24AE JUMP JUMPDEST SWAP7 PUSH1 0x8 SWAP7 DUP7 DUP2 DUP10 SHR AND SWAP6 PUSH2 0x2D3F PUSH1 0x20 DUP1 SWAP6 ADD MLOAD DUP5 SIGNEXTEND DUP9 DUP6 SIGNEXTEND PUSH2 0x24AE JUMP JUMPDEST SWAP14 DUP15 DUP12 PUSH2 0x38AB JUMP JUMPDEST ISZERO PUSH2 0x2D77 JUMPI POP POP POP POP POP POP POP PUSH2 0xFF00 PUSH2 0x2D71 SWAP7 SWAP8 DUP6 SLOAD SWAP4 SHL AND SWAP3 AND SWAP1 PUSH2 0xFFFF NOT AND OR OR SWAP1 SSTORE PUSH2 0x2569 JUMP JUMPDEST SWAP1 PUSH2 0x2CE4 JUMP JUMPDEST SWAP4 SWAP9 POP SWAP4 SWAP9 POP SWAP4 SWAP9 SWAP11 POP SWAP5 SWAP4 PUSH1 0x40 SWAP6 DUP7 MLOAD SWAP5 PUSH1 0x80 DUP7 ADD SWAP1 DUP7 DUP3 LT PUSH8 0xFFFFFFFFFFFFFFFF DUP4 GT OR PUSH2 0x2E86 JUMPI POP SWAP3 PUSH2 0x2E81 SWAP9 SWAP7 SWAP5 SWAP3 PUSH3 0xFF0000 SWAP3 DUP10 SWAP8 SWAP6 PUSH32 0x3C1A2739DBF38A1A98D9082A0E9AE6184C4B0D52685200F122654984EDCE6997 SWAP15 SWAP16 SWAP11 MSTORE DUP12 DUP7 MSTORE DUP6 ADD SWAP5 DUP13 DUP7 MSTORE PUSH2 0x2DE9 DUP10 PUSH2 0x1F16 JUMP JUMPDEST DUP9 DUP9 DUP3 ADD MSTORE PUSH1 0x60 DUP2 ADD SWAP3 DUP4 MSTORE MLOAD AND PUSH4 0xFF000000 PUSH2 0xFF00 PUSH1 0xD SWAP8 DUP9 SLOAD SWAP8 MLOAD SWAP1 SHL AND SWAP3 PUSH2 0x2E13 DUP11 PUSH2 0x1F16 JUMP JUMPDEST PUSH2 0x2E1C DUP11 PUSH2 0x1F16 JUMP JUMPDEST MLOAD PUSH1 0x18 SHL AND SWAP5 PUSH4 0xFFFFFFFF NOT AND OR OR SWAP2 AND OR OR SWAP1 SSTORE PUSH1 0x1 PUSH4 0x4000000 PUSH4 0xFF000000 NOT DUP3 SLOAD AND OR SWAP1 SSTORE PUSH32 0x1792A9CB1D081B3AAC8E232F47544CBCF8FB0BE6EB28B0BA24EE527539BEB85A DUP2 MLOAD DUP1 PUSH2 0x2E74 DUP6 DUP11 DUP11 DUP5 PUSH2 0x1FEA JUMP JUMPDEST SUB SWAP1 LOG1 MLOAD SWAP5 DUP6 SWAP5 DUP6 PUSH2 0x1FBC JUMP JUMPDEST SUB SWAP1 LOG1 JUMP JUMPDEST PUSH4 0x4E487B71 PUSH1 0xE0 SHL DUP2 MSTORE PUSH1 0x41 PUSH1 0x4 MSTORE PUSH1 0x24 SWAP1 REVERT JUMPDEST POP POP SWAP1 POP PUSH32 0x1792A9CB1D081B3AAC8E232F47544CBCF8FB0BE6EB28B0BA24EE527539BEB85A PUSH2 0x2EE3 PUSH1 0x6 SLOAD PUSH1 0x40 MLOAD SWAP2 DUP2 PUSH1 0xFF DUP5 SWAP4 PUSH1 0x10 SHR AND SWAP1 PUSH1 0xFF DUP1 DUP3 PUSH1 0x8 SHR AND SWAP2 AND DUP5 PUSH2 0x1FEA JUMP JUMPDEST SUB SWAP1 LOG1 PUSH2 0x230A PUSH2 0x315D JUMP JUMPDEST PUSH2 0x2EF7 DUP2 PUSH2 0x1F16 JUMP JUMPDEST DUP1 ISZERO DUP1 PUSH2 0x2F93 JUMPI JUMPDEST PUSH2 0x2F68 JUMPI PUSH2 0x2F0C DUP2 PUSH2 0x1F16 JUMP JUMPDEST PUSH1 0x1 DUP2 EQ DUP1 PUSH2 0x2F82 JUMPI JUMPDEST PUSH2 0x2F68 JUMPI PUSH2 0x2F23 DUP2 PUSH2 0x1F16 JUMP JUMPDEST PUSH1 0x2 DUP2 EQ DUP1 PUSH2 0x2F6F JUMPI JUMPDEST PUSH2 0x2F68 JUMPI DUP1 PUSH2 0x2F3D PUSH1 0x3 SWAP3 PUSH2 0x1F16 JUMP JUMPDEST EQ SWAP1 DUP2 PUSH2 0x2F54 JUMPI JUMPDEST POP PUSH2 0x2F4F JUMPI PUSH1 0x1 SWAP1 JUMP JUMPDEST PUSH1 0x0 SWAP1 JUMP JUMPDEST PUSH1 0x2 SWAP2 POP PUSH2 0x2F61 DUP2 PUSH2 0x1F16 JUMP JUMPDEST EQ CODESIZE PUSH2 0x2F45 JUMP JUMPDEST POP POP PUSH1 0x0 SWAP1 JUMP JUMPDEST POP PUSH2 0x2F79 DUP3 PUSH2 0x1F16 JUMP JUMPDEST PUSH1 0x3 DUP3 EQ PUSH2 0x2F2D JUMP JUMPDEST POP PUSH2 0x2F8C DUP3 PUSH2 0x1F16 JUMP JUMPDEST DUP2 ISZERO PUSH2 0x2F16 JUMP JUMPDEST POP PUSH2 0x2F9D DUP3 PUSH2 0x1F16 JUMP JUMPDEST PUSH1 0x1 DUP3 EQ PUSH2 0x2EFF JUMP JUMPDEST PUSH1 0xD SLOAD PUSH1 0xFF DUP2 PUSH1 0x10 SHR AND PUSH2 0x2FB9 DUP2 PUSH2 0x1F16 JUMP JUMPDEST DUP1 ISZERO SWAP1 DUP2 ISZERO PUSH2 0x305B JUMPI JUMPDEST POP ISZERO PUSH2 0x3038 JUMPI PUSH2 0x2FD2 DUP3 PUSH2 0x1F16 JUMP JUMPDEST PUSH1 0x2 DUP3 EQ DUP1 ISZERO PUSH2 0x3025 JUMPI JUMPDEST ISZERO PUSH2 0x2F68 JUMPI PUSH2 0x301C PUSH2 0x2FF1 PUSH2 0x3022 SWAP4 PUSH2 0x306F JUMP JUMPDEST SWAP2 PUSH1 0xFF PUSH1 0x20 PUSH2 0x3009 DUP6 MLOAD PUSH1 0x0 SIGNEXTEND DUP4 DUP6 AND PUSH1 0x0 SIGNEXTEND PUSH2 0x24AE JUMP JUMPDEST SWAP5 ADD MLOAD PUSH1 0x0 SIGNEXTEND SWAP2 PUSH1 0x8 SHR AND PUSH1 0x0 SIGNEXTEND PUSH2 0x24AE JUMP JUMPDEST SWAP1 PUSH2 0x38AB JUMP JUMPDEST SWAP1 JUMP JUMPDEST POP PUSH2 0x302F DUP3 PUSH2 0x1F16 JUMP JUMPDEST PUSH1 0x3 DUP3 EQ PUSH2 0x2FDD JUMP JUMPDEST PUSH2 0x3041 DUP3 PUSH2 0x1F16 JUMP JUMPDEST DUP2 ISZERO DUP1 PUSH2 0x2FDD JUMPI POP PUSH2 0x3052 DUP3 PUSH2 0x1F16 JUMP JUMPDEST PUSH1 0x1 DUP3 EQ PUSH2 0x2FDD JUMP JUMPDEST PUSH1 0x1 SWAP2 POP PUSH2 0x3068 DUP2 PUSH2 0x1F16 JUMP JUMPDEST EQ CODESIZE PUSH2 0x2FC3 JUMP JUMPDEST PUSH1 0x40 SWAP1 DUP2 DUP1 MLOAD PUSH2 0x307E DUP2 PUSH2 0x20F9 JUMP JUMPDEST CALLDATASIZE SWAP1 CALLDATACOPY PUSH2 0x308A DUP2 PUSH2 0x1F16 JUMP JUMPDEST DUP1 ISZERO PUSH2 0x30FC JUMPI PUSH2 0x3099 DUP2 PUSH2 0x1F16 JUMP JUMPDEST PUSH1 0x1 DUP2 EQ PUSH2 0x30E3 JUMPI DUP1 PUSH2 0x30AD PUSH1 0x2 SWAP3 PUSH2 0x1F16 JUMP JUMPDEST EQ PUSH2 0x30CB JUMPI MLOAD PUSH2 0x30BC DUP2 PUSH2 0x20F9 JUMP JUMPDEST PUSH1 0x0 DUP2 MSTORE PUSH1 0x0 NOT PUSH1 0x20 DUP3 ADD MSTORE SWAP1 JUMP JUMPDEST MLOAD PUSH2 0x30D5 DUP2 PUSH2 0x20F9 JUMP JUMPDEST PUSH1 0x0 DUP2 MSTORE PUSH1 0x1 PUSH1 0x20 DUP3 ADD MSTORE SWAP1 JUMP JUMPDEST POP MLOAD PUSH2 0x30EE DUP2 PUSH2 0x20F9 JUMP JUMPDEST PUSH1 0x1 DUP2 MSTORE PUSH1 0x0 PUSH1 0x20 DUP3 ADD MSTORE SWAP1 JUMP JUMPDEST POP MLOAD PUSH2 0x3107 DUP2 PUSH2 0x20F9 JUMP JUMPDEST PUSH1 0x0 NOT DUP2 MSTORE PUSH1 0x0 PUSH1 0x20 DUP3 ADD MSTORE SWAP1 JUMP JUMPDEST PUSH2 0x311F DUP2 PUSH2 0x1F16 JUMP JUMPDEST DUP1 ISZERO PUSH2 0x3157 JUMPI PUSH2 0x312E DUP2 PUSH2 0x1F16 JUMP JUMPDEST PUSH1 0x1 DUP2 EQ PUSH2 0x3151 JUMPI DUP1 PUSH2 0x3142 PUSH1 0x2 SWAP3 PUSH2 0x1F16 JUMP JUMPDEST EQ PUSH2 0x314C JUMPI PUSH1 0x2 SWAP1 JUMP JUMPDEST PUSH1 0x3 SWAP1 JUMP JUMPDEST POP PUSH1 0x0 SWAP1 JUMP JUMPDEST POP PUSH1 0x1 SWAP1 JUMP JUMPDEST PUSH1 0x6 SWAP1 PUSH2 0x3185 PUSH1 0x6 SLOAD PUSH2 0x318A PUSH1 0xFF SWAP3 DUP3 DUP5 PUSH2 0x317A DUP2 DUP1 SWAP7 AND PUSH2 0x2554 JUMP JUMPDEST SWAP2 PUSH1 0x8 SHR AND SWAP1 PUSH2 0x2540 JUMP JUMPDEST PUSH2 0x1F76 JUMP JUMPDEST SWAP2 SWAP1 SLOAD PUSH1 0x3 SWAP3 PUSH1 0x3 SHL SHR AND SWAP1 DUP3 DUP3 EQ DUP1 ISZERO PUSH2 0x3569 JUMPI JUMPDEST DUP1 ISZERO PUSH2 0x3559 JUMPI JUMPDEST PUSH2 0x34A5 JUMPI DUP3 PUSH1 0x6 SLOAD SWAP2 PUSH1 0x40 MLOAD SWAP1 PUSH2 0x31BD DUP3 PUSH2 0x2147 JUMP JUMPDEST PUSH2 0x620 SWAP1 DUP2 CALLDATASIZE DUP5 CALLDATACOPY PUSH1 0x40 MLOAD SWAP2 PUSH2 0x31D2 DUP4 PUSH2 0x2147 JUMP JUMPDEST CALLDATASIZE DUP4 CALLDATACOPY PUSH1 0x0 SWAP9 PUSH2 0x31EE DUP11 SWAP7 PUSH2 0x3EB DUP8 DUP1 DUP4 PUSH1 0x8 SHR AND SWAP3 AND PUSH2 0x2554 JUMP JUMPDEST PUSH2 0x3200 PUSH1 0x1 SWAP7 DUP8 SWAP3 AND DUP1 DUP7 MSTORE DUP7 PUSH2 0x38EF JUMP JUMPDEST MSTORE JUMPDEST DUP8 DUP6 AND DUP9 DUP12 AND LT PUSH2 0x32DA JUMPI POP POP POP POP POP PUSH32 0xA80291EC3898E82C48E2494FCFFA7D787833AFF90D5D54D880DA84590795EA8 SWAP4 SWAP5 POP PUSH2 0x2E81 SWAP1 PUSH2 0x3274 DUP5 PUSH1 0x1 SLOAD PUSH1 0x20 SHR AND PUSH1 0x40 MLOAD PUSH2 0x3251 DUP2 PUSH2 0x212B JUMP JUMPDEST DUP2 DUP2 MSTORE DUP6 PUSH1 0x20 DUP3 ADD MSTORE PUSH1 0x40 PUSH2 0xFFFF DUP6 AND SWAP2 ADD MSTORE PUSH1 0xFF AND PUSH1 0xFF NOT PUSH1 0xE SLOAD AND OR PUSH1 0xE SSTORE JUMP JUMPDEST PUSH1 0xE DUP1 SLOAD PUSH4 0xFFFFFF00 NOT AND PUSH2 0xFF00 PUSH1 0x8 DUP7 SWAP1 SHL AND OR PUSH1 0x10 DUP4 SWAP1 SHL PUSH4 0xFFFF0000 AND OR SWAP1 SSTORE PUSH1 0x1 DUP1 SLOAD PUSH4 0xFF000000 NOT AND PUSH4 0x5000000 OR SWAP1 DUP2 SWAP1 SSTORE PUSH1 0x40 DUP1 MLOAD PUSH1 0xFF PUSH1 0x20 SWAP4 DUP5 SHR SWAP1 SWAP8 AND DUP8 AND DUP2 MSTORE SWAP6 SWAP1 SWAP5 AND SWAP1 DUP6 ADD MSTORE PUSH2 0xFFFF AND SWAP2 DUP4 ADD SWAP2 SWAP1 SWAP2 MSTORE DUP2 SWAP1 PUSH1 0x60 DUP3 ADD SWAP1 JUMP JUMPDEST DUP8 DUP1 PUSH2 0x32F1 DUP2 PUSH2 0x32E9 DUP15 PUSH2 0x251D JUMP JUMPDEST SWAP14 AND DUP7 PUSH2 0x38EF JUMP JUMPDEST MLOAD AND SWAP7 PUSH1 0x7 SWAP1 DUP10 DUP4 PUSH2 0x3308 DUP5 DUP13 DIV SWAP5 DUP13 MOD SWAP12 PUSH2 0x1F76 JUMP JUMPDEST SWAP1 SLOAD SWAP1 DUP9 SHL SHR AND SUB PUSH2 0x349C JUMPI PUSH2 0x331D SWAP1 PUSH2 0x26B8 JUMP JUMPDEST SWAP8 DUP4 DUP4 DUP4 AND DUP1 PUSH2 0x3452 JUMPI JUMPDEST LT PUSH2 0x33FB JUMPI JUMPDEST DUP4 DUP4 DUP3 AND DUP1 PUSH2 0x33A4 JUMPI JUMPDEST LT PUSH2 0x3346 JUMPI JUMPDEST POP POP POP PUSH2 0x3202 JUMP JUMPDEST PUSH2 0x335B PUSH2 0x3355 PUSH2 0x3361 SWAP4 PUSH2 0x2554 JUMP JUMPDEST SWAP2 PUSH2 0x252E JUMP JUMPDEST SWAP1 PUSH2 0x2540 JUMP JUMPDEST AND PUSH2 0x336C DUP2 DUP7 PUSH2 0x38EF JUMP JUMPDEST MLOAD ISZERO PUSH2 0x337B JUMPI JUMPDEST DUP1 DUP10 SWAP2 PUSH2 0x333E JUMP JUMPDEST PUSH1 0x1 PUSH2 0x3387 DUP3 DUP8 PUSH2 0x38EF JUMP JUMPDEST MSTORE PUSH2 0x339D DUP10 PUSH2 0x3395 DUP9 PUSH2 0x251D JUMP JUMPDEST SWAP8 AND DUP6 PUSH2 0x38EF JUMP JUMPDEST MSTORE CODESIZE PUSH2 0x3373 JUMP JUMPDEST DUP5 PUSH2 0x33BA PUSH2 0x33B1 DUP7 PUSH2 0x2554 JUMP JUMPDEST PUSH2 0x335B DUP7 PUSH2 0x24DE JUMP JUMPDEST AND PUSH2 0x33C5 DUP2 DUP12 PUSH2 0x38EF JUMP JUMPDEST MLOAD ISZERO PUSH2 0x33D2 JUMPI JUMPDEST POP PUSH2 0x3338 JUMP JUMPDEST PUSH1 0x1 PUSH2 0x33DE DUP3 DUP13 PUSH2 0x38EF JUMP JUMPDEST MSTORE PUSH2 0x33F4 DUP7 PUSH2 0x33EC DUP14 PUSH2 0x251D JUMP JUMPDEST SWAP13 AND DUP11 PUSH2 0x38EF JUMP JUMPDEST MSTORE CODESIZE PUSH2 0x33CC JUMP JUMPDEST DUP3 PUSH2 0x3411 DUP3 PUSH2 0x3EB PUSH2 0x340C DUP7 PUSH2 0x252E JUMP JUMPDEST PUSH2 0x2554 JUMP JUMPDEST AND PUSH2 0x341C DUP2 DUP10 PUSH2 0x38EF JUMP JUMPDEST MLOAD ISZERO PUSH2 0x3429 JUMPI JUMPDEST POP PUSH2 0x332E JUMP JUMPDEST PUSH1 0x1 PUSH2 0x3435 DUP3 DUP11 PUSH2 0x38EF JUMP JUMPDEST MSTORE PUSH2 0x344B DUP5 PUSH2 0x3443 DUP12 PUSH2 0x251D JUMP JUMPDEST SWAP11 AND DUP9 PUSH2 0x38EF JUMP JUMPDEST MSTORE CODESIZE PUSH2 0x3423 JUMP JUMPDEST DUP5 PUSH2 0x3463 DUP5 PUSH2 0x3EB PUSH2 0x340C DUP9 PUSH2 0x24DE JUMP JUMPDEST AND PUSH2 0x346E DUP2 DUP12 PUSH2 0x38EF JUMP JUMPDEST MLOAD ISZERO PUSH2 0x347B JUMPI JUMPDEST POP PUSH2 0x3328 JUMP JUMPDEST PUSH1 0x1 PUSH2 0x3487 DUP3 DUP13 PUSH2 0x38EF JUMP JUMPDEST MSTORE PUSH2 0x3495 DUP7 PUSH2 0x33EC DUP14 PUSH2 0x251D JUMP JUMPDEST MSTORE CODESIZE PUSH2 0x3475 JUMP JUMPDEST SWAP8 POP POP POP PUSH2 0x3202 JUMP JUMPDEST POP POP PUSH32 0xA80291EC3898E82C48E2494FCFFA7D787833AFF90D5D54D880DA84590795EA8 SWAP2 SWAP3 POP DUP1 PUSH2 0x351E PUSH1 0x60 SWAP3 PUSH1 0x1 SLOAD PUSH1 0x20 SHR AND PUSH1 0x0 PUSH1 0x40 DUP1 MLOAD PUSH2 0x34E8 DUP2 PUSH2 0x212B JUMP JUMPDEST DUP4 DUP2 MSTORE DUP4 PUSH1 0x20 DUP3 ADD MSTORE ADD MSTORE PUSH2 0x3507 DUP2 PUSH1 0xFF AND PUSH1 0xFF NOT PUSH1 0xE SLOAD AND OR PUSH1 0xE SSTORE JUMP JUMPDEST PUSH2 0xFF00 PUSH1 0xE SLOAD SWAP2 PUSH1 0x8 SHL AND SWAP1 PUSH2 0xFF00 NOT AND OR PUSH1 0xE SSTORE JUMP JUMPDEST PUSH4 0xFFFF0000 NOT PUSH1 0xE SLOAD AND PUSH1 0xE SSTORE PUSH4 0x5000000 PUSH4 0xFF000000 NOT PUSH1 0x1 SLOAD AND OR DUP1 PUSH1 0x1 SSTORE PUSH1 0x20 SHR AND PUSH1 0x40 MLOAD SWAP1 DUP1 DUP3 MSTORE PUSH1 0x20 DUP3 ADD MSTORE PUSH1 0x0 PUSH1 0x40 DUP3 ADD MSTORE LOG1 JUMP JUMPDEST POP DUP3 PUSH1 0x1 SLOAD PUSH1 0x20 SHR AND DUP3 EQ PUSH2 0x31A7 JUMP JUMPDEST POP PUSH1 0xFE DUP3 EQ PUSH2 0x31A0 JUMP JUMPDEST PUSH1 0x0 SWAP1 PUSH1 0xFF SWAP2 PUSH1 0x1 SWAP2 PUSH1 0xFF PUSH1 0x1 SLOAD PUSH1 0x8 SHR AND SWAP2 JUMPDEST DUP3 DUP6 DUP3 AND LT PUSH2 0x359A JUMPI POP POP POP POP POP PUSH1 0x0 SWAP1 JUMP JUMPDEST PUSH1 0x4 DUP1 DUP3 LT ISZERO PUSH2 0x267B JUMPI POP PUSH1 0x2 DUP2 ADD SLOAD PUSH1 0x1 PUSH1 0x1 PUSH1 0xA0 SHL SUB DUP4 DUP2 AND SWAP2 AND EQ PUSH2 0x35C5 JUMPI DUP4 ADD DUP5 AND PUSH2 0x3587 JUMP JUMPDEST POP POP POP SWAP1 POP SWAP1 JUMP JUMPDEST PUSH1 0xFF AND PUSH1 0x2 DUP2 EQ PUSH2 0x35E9 JUMPI PUSH1 0x3 EQ PUSH2 0x35E4 JUMPI PUSH1 0xC SWAP1 JUMP JUMPDEST PUSH1 0xF SWAP1 JUMP JUMPDEST POP PUSH1 0x18 SWAP1 JUMP JUMPDEST SWAP1 SWAP3 PUSH1 0xFF SWAP4 DUP5 DUP4 AND PUSH1 0x7 DUP2 LT DUP1 ISZERO SWAP1 PUSH2 0x3826 JUMPI JUMPDEST DUP1 ISZERO PUSH2 0x3819 JUMPI JUMPDEST DUP1 ISZERO PUSH2 0x380C JUMPI JUMPDEST PUSH2 0x3801 JUMPI DUP5 DUP7 AND SWAP1 DUP2 DUP2 GT ISZERO PUSH2 0x37F1 JUMPI PUSH2 0x362B DUP7 DUP7 PUSH2 0x24F1 JUMP JUMPDEST SWAP2 JUMPDEST DUP8 DUP6 AND SWAP2 PUSH1 0x1 DUP10 DUP1 DUP8 AND SWAP6 DUP6 DUP8 GT PUSH1 0x0 EQ PUSH2 0x37DE JUMPI PUSH2 0x3650 SWAP1 PUSH2 0x335B DUP11 DUP11 PUSH2 0x24F1 JUMP JUMPDEST AND SUB PUSH2 0x37C1 JUMPI PUSH1 0x6 SLOAD SWAP4 DUP10 DUP6 AND DUP1 SWAP3 EQ SWAP1 DUP2 PUSH2 0x37CF JUMPI JUMPDEST POP PUSH2 0x37C1 JUMPI DUP9 SWAP2 EQ SWAP3 DUP4 PUSH2 0x37B2 JUMPI JUMPDEST POP POP POP PUSH2 0x379F JUMPI PUSH2 0x3687 DUP2 DUP5 PUSH2 0x3900 JUMP JUMPDEST PUSH2 0x3691 DUP4 DUP7 PUSH2 0x3900 JUMP JUMPDEST SWAP1 ISZERO SWAP1 DUP2 PUSH2 0x37A9 JUMPI JUMPDEST POP PUSH2 0x379F JUMPI PUSH2 0x36B2 PUSH2 0x3EB SWAP2 PUSH2 0x3EB PUSH2 0x36B8 SWAP6 PUSH2 0x2554 JUMP JUMPDEST SWAP4 PUSH2 0x2554 JUMP JUMPDEST DUP3 PUSH2 0x36C2 DUP4 PUSH2 0x1F76 JUMP JUMPDEST SWAP1 SLOAD SWAP1 PUSH1 0x3 SHL SHR AND SWAP1 DUP4 PUSH2 0x36F9 DUP2 PUSH2 0x36EB DUP2 PUSH2 0x36DD DUP7 PUSH2 0x1F76 JUMP JUMPDEST SWAP1 SLOAD SWAP1 PUSH1 0x3 SHL SHR AND SWAP7 PUSH2 0x1FA4 JUMP JUMPDEST SWAP1 SLOAD SWAP1 PUSH1 0x3 SHL SHR AND SWAP3 PUSH2 0x1FA4 JUMP JUMPDEST SWAP1 SLOAD SWAP1 PUSH1 0x3 SHL SHR AND SWAP1 DUP5 DUP4 EQ ISZERO SWAP4 DUP5 PUSH2 0x3793 JUMPI JUMPDEST DUP5 PUSH2 0x3788 JUMPI JUMPDEST DUP5 PUSH2 0x377C JUMPI JUMPDEST DUP5 PUSH2 0x3772 JUMPI JUMPDEST POP DUP4 PUSH2 0x3768 JUMPI JUMPDEST POP POP DUP2 PUSH2 0x3756 JUMPI JUMPDEST POP PUSH2 0x3151 JUMPI DUP1 PUSH1 0x1 SLOAD PUSH1 0x20 SHR AND PUSH1 0x4 DUP2 LT ISZERO PUSH2 0x1F8E JUMPI PUSH1 0x2 ADD SLOAD PUSH1 0xB0 SHR AND ISZERO PUSH2 0x2F4F JUMPI PUSH1 0x1 SWAP1 JUMP JUMPDEST SWAP1 POP DUP2 PUSH1 0x1 SLOAD PUSH1 0x20 SHR AND EQ ISZERO CODESIZE PUSH2 0x372E JUMP JUMPDEST EQ SWAP2 POP CODESIZE DUP1 PUSH2 0x3726 JUMP JUMPDEST DUP4 EQ SWAP4 POP CODESIZE PUSH2 0x371F JUMP JUMPDEST PUSH1 0xFE DUP2 EQ ISZERO SWAP5 POP PUSH2 0x3719 JUMP JUMPDEST DUP6 DUP2 EQ ISZERO SWAP5 POP PUSH2 0x3713 JUMP JUMPDEST PUSH1 0xFE DUP5 EQ ISZERO SWAP5 POP PUSH2 0x370D JUMP JUMPDEST POP POP POP POP POP PUSH1 0x0 SWAP1 JUMP JUMPDEST SWAP1 POP ISZERO CODESIZE PUSH2 0x369A JUMP JUMPDEST PUSH1 0x8 SHR AND EQ SWAP1 POP CODESIZE DUP7 DUP2 PUSH2 0x3676 JUMP JUMPDEST POP POP POP POP POP POP POP POP POP PUSH1 0x0 SWAP1 JUMP JUMPDEST SWAP1 POP DUP10 DUP6 PUSH1 0x8 SHR AND EQ CODESIZE PUSH2 0x3667 JUMP JUMPDEST PUSH2 0x37EC SWAP1 PUSH2 0x335B DUP10 DUP12 PUSH2 0x24F1 JUMP JUMPDEST PUSH2 0x3650 JUMP JUMPDEST PUSH2 0x37FB DUP6 DUP8 PUSH2 0x24F1 JUMP JUMPDEST SWAP2 PUSH2 0x362D JUMP JUMPDEST POP POP POP POP POP POP PUSH1 0x0 SWAP1 JUMP JUMPDEST POP PUSH1 0x7 DUP7 DUP5 AND LT ISZERO PUSH2 0x3611 JUMP JUMPDEST POP PUSH1 0x7 DUP7 DUP7 AND LT ISZERO PUSH2 0x360A JUMP JUMPDEST POP PUSH1 0x7 DUP7 DUP4 AND LT ISZERO PUSH2 0x3603 JUMP JUMPDEST PUSH1 0x1 DUP1 SLOAD PUSH1 0xFF SWAP2 SWAP1 DUP3 AND PUSH1 0x0 JUMPDEST DUP2 DUP5 DUP3 AND LT PUSH2 0x3852 JUMPI POP POP POP POP PUSH1 0x1 SWAP1 JUMP JUMPDEST PUSH1 0x4 DUP1 DUP3 LT ISZERO PUSH2 0x267B JUMPI POP DUP1 PUSH1 0x2 ADD SLOAD DUP5 DUP1 DUP3 PUSH1 0xB8 SHR AND ISZERO SWAP2 DUP3 PUSH2 0x3889 JUMPI JUMPDEST POP POP PUSH2 0x3880 JUMPI DUP3 ADD DUP4 AND PUSH2 0x3840 JUMP JUMPDEST POP POP POP POP PUSH1 0x0 SWAP1 JUMP JUMPDEST PUSH1 0xB0 SHR AND ISZERO ISZERO SWAP1 POP DUP5 CODESIZE PUSH2 0x3871 JUMP JUMPDEST DUP2 DUP2 MUL SWAP3 SWAP2 DUP2 ISZERO SWAP2 DUP5 DIV EQ OR ISZERO PUSH2 0x24C8 JUMPI JUMP JUMPDEST PUSH1 0x0 SIGNEXTEND SWAP1 PUSH1 0x0 DUP3 SLT ISZERO SWAP2 DUP3 PUSH2 0x38E4 JUMPI JUMPDEST POP DUP2 PUSH2 0x38D6 JUMPI JUMPDEST DUP2 PUSH2 0x38CB JUMPI POP SWAP1 JUMP JUMPDEST PUSH1 0x7 SWAP2 POP PUSH1 0x0 SIGNEXTEND SLT SWAP1 JUMP JUMPDEST PUSH1 0x0 DUP2 DUP2 SIGNEXTEND SLT ISZERO SWAP2 POP PUSH2 0x38C2 JUMP JUMPDEST PUSH1 0x7 SGT SWAP2 POP CODESIZE PUSH2 0x38BB JUMP JUMPDEST SWAP1 PUSH1 0x31 DUP2 LT ISZERO PUSH2 0x1F8E JUMPI PUSH1 0x5 SHL ADD SWAP1 JUMP JUMPDEST PUSH1 0x6 SLOAD SWAP1 SWAP2 PUSH1 0xFF SWAP2 DUP3 DUP5 AND DUP4 DUP3 AND DUP2 DUP2 EQ DUP1 PUSH2 0x3974 JUMPI JUMPDEST PUSH2 0x3801 JUMPI PUSH1 0x1 SWAP6 DUP2 DUP7 SWAP4 GT PUSH1 0x0 EQ PUSH2 0x3965 JUMPI SWAP1 PUSH2 0x3933 SWAP2 PUSH2 0x24F1 JUMP JUMPDEST SWAP2 JUMPDEST PUSH1 0x8 SHR AND SWAP2 DUP3 DUP5 DUP3 AND GT PUSH1 0x0 EQ PUSH2 0x3958 JUMPI PUSH2 0x3953 SWAP3 PUSH2 0x335B SWAP2 PUSH2 0x24F1 JUMP JUMPDEST AND EQ SWAP1 JUMP JUMPDEST PUSH2 0x335B SWAP1 PUSH2 0x3953 SWAP4 PUSH2 0x24F1 JUMP JUMPDEST PUSH2 0x396E SWAP2 PUSH2 0x24F1 JUMP JUMPDEST SWAP2 PUSH2 0x3935 JUMP JUMPDEST POP DUP5 DUP4 PUSH1 0x8 SHR AND DUP6 DUP6 AND EQ PUSH2 0x3917 JUMP INVALID LOG2 PUSH5 0x6970667358 0x22 SLT KECCAK256 TIMESTAMP 0x21 SELFBALANCE 0xC8 0xDE 0xEB PUSH17 0xB18342DD12F739D9A12C8ECCA0F9DB8A08 DIV GT PUSH24 0xDD83A56B4064736F6C634300081800330000000000000000 "},"methodIdentifiers":{"acknowledgeTribute()":"13cb0362","assam()":"a3acbe71","boardCarpetIds(uint256)":"dc118ad5","boardPlayerIds(uint256)":"4a478d96","borderChoice()":"cb6f117a","cancelGame()":"d84c1ac9","chooseBorderDirection(uint8)":"d40e27b5","claimTimeout()":"0e1da6c3","commitDice(bytes32)":"13d45f66","createdAt()":"cf09e0d0","currentPlayerIndex()":"fb9bdab4","currentTribute()":"764a5168","diceCommit()":"c7198b07","factory()":"c45a0155","getAssam()":"76fc860d","getBoard()":"3264a34b","getBorderChoiceInfo()":"5e59efc3","getFullState()":"972161f7","getGameState()":"b7d0628b","getPlayer(uint8)":"39fddff6","getPlayerIndex(address)":"2d4635f2","getPlayers()":"8b5b9ccc","getTributeInfo()":"315a2735","joinGame()":"d4f77b1c","joinedCount()":"cf8515f4","lastActionBlock()":"a6dc7318","lastDiceValue()":"7585e49f","numPlayers()":"97b2f556","orientAssam(uint8)":"726897dc","phase()":"b1c9fe6e","placeCarpet(uint8,uint8,uint8,uint8)":"e75a0469","platformFeeBps()":"22dcd13e","platformWallet()":"fa2af9da","players(uint256)":"f71d96cb","revealDice(uint256)":"4669d629","stakeAmount()":"60c7dc47","status()":"200d2ed2","turnNumber()":"5700401e","usdc()":"3e413bee"}}}}}