{
  "_format": "hh-sol-artifact-1",
  "contractName": "MarrakechFactory",
  "sourceName": "contracts/MarrakechFactory.sol",
  "abi": [
    {
      "inputs": [
        {
          "internalType": "address",
          "name": "_usdc",
          "type": "address"
        },
        {
          "internalType": "uint256",
          "name": "_stakeAmount",
          "type": "uint256"
        },
        {
          "internalType": "uint16",
          "name": "_platformFeeBps",
          "type": "uint16"
        },
        {
          "internalType": "address",
          "name": "_platformWallet",
          "type": "address"
        }
      ],
      "stateMutability": "nonpayable",
      "type": "constructor"
    },
    {
      "inputs": [
        {
          "internalType": "address",
          "name": "owner",
          "type": "address"
        }
      ],
      "name": "OwnableInvalidOwner",
      "type": "error"
    },
    {
      "inputs": [
        {
          "internalType": "address",
          "name": "account",
          "type": "address"
        }
      ],
      "name": "OwnableUnauthorizedAccount",
      "type": "error"
    },
    {
      "anonymous": false,
      "inputs": [
        {
          "indexed": true,
          "internalType": "address",
          "name": "game",
          "type": "address"
        },
        {
          "indexed": true,
          "internalType": "address",
          "name": "creator",
          "type": "address"
        },
        {
          "indexed": false,
          "internalType": "uint8",
          "name": "numPlayers",
          "type": "uint8"
        }
      ],
      "name": "GameCreated",
      "type": "event"
    },
    {
      "anonymous": false,
      "inputs": [
        {
          "indexed": true,
          "internalType": "address",
          "name": "previousOwner",
          "type": "address"
        },
        {
          "indexed": true,
          "internalType": "address",
          "name": "newOwner",
          "type": "address"
        }
      ],
      "name": "OwnershipTransferred",
      "type": "event"
    },
    {
      "anonymous": false,
      "inputs": [
        {
          "indexed": false,
          "internalType": "uint16",
          "name": "newBps",
          "type": "uint16"
        }
      ],
      "name": "PlatformFeeBpsUpdated",
      "type": "event"
    },
    {
      "anonymous": false,
      "inputs": [
        {
          "indexed": false,
          "internalType": "address",
          "name": "newWallet",
          "type": "address"
        }
      ],
      "name": "PlatformWalletUpdated",
      "type": "event"
    },
    {
      "anonymous": false,
      "inputs": [
        {
          "indexed": false,
          "internalType": "uint256",
          "name": "newAmount",
          "type": "uint256"
        }
      ],
      "name": "StakeAmountUpdated",
      "type": "event"
    },
    {
      "inputs": [
        {
          "internalType": "address",
          "name": "",
          "type": "address"
        }
      ],
      "name": "activeGames",
      "outputs": [
        {
          "internalType": "bool",
          "name": "",
          "type": "bool"
        }
      ],
      "stateMutability": "view",
      "type": "function"
    },
    {
      "inputs": [
        {
          "internalType": "uint8",
          "name": "numPlayers",
          "type": "uint8"
        }
      ],
      "name": "createGame",
      "outputs": [
        {
          "internalType": "address",
          "name": "",
          "type": "address"
        }
      ],
      "stateMutability": "nonpayable",
      "type": "function"
    },
    {
      "inputs": [
        {
          "internalType": "uint256",
          "name": "",
          "type": "uint256"
        }
      ],
      "name": "games",
      "outputs": [
        {
          "internalType": "address",
          "name": "",
          "type": "address"
        }
      ],
      "stateMutability": "view",
      "type": "function"
    },
    {
      "inputs": [],
      "name": "getActiveGames",
      "outputs": [
        {
          "internalType": "address[]",
          "name": "",
          "type": "address[]"
        }
      ],
      "stateMutability": "view",
      "type": "function"
    },
    {
      "inputs": [],
      "name": "getFactoryInfo",
      "outputs": [
        {
          "internalType": "address",
          "name": "_usdc",
          "type": "address"
        },
        {
          "internalType": "uint256",
          "name": "_stakeAmount",
          "type": "uint256"
        },
        {
          "internalType": "uint16",
          "name": "_platformFeeBps",
          "type": "uint16"
        },
        {
          "internalType": "address",
          "name": "_platformWallet",
          "type": "address"
        },
        {
          "internalType": "uint256",
          "name": "_gamesCount",
          "type": "uint256"
        }
      ],
      "stateMutability": "view",
      "type": "function"
    },
    {
      "inputs": [],
      "name": "getGames",
      "outputs": [
        {
          "internalType": "address[]",
          "name": "",
          "type": "address[]"
        }
      ],
      "stateMutability": "view",
      "type": "function"
    },
    {
      "inputs": [],
      "name": "getGamesCount",
      "outputs": [
        {
          "internalType": "uint256",
          "name": "",
          "type": "uint256"
        }
      ],
      "stateMutability": "view",
      "type": "function"
    },
    {
      "inputs": [
        {
          "internalType": "address",
          "name": "",
          "type": "address"
        }
      ],
      "name": "isGame",
      "outputs": [
        {
          "internalType": "bool",
          "name": "",
          "type": "bool"
        }
      ],
      "stateMutability": "view",
      "type": "function"
    },
    {
      "inputs": [],
      "name": "owner",
      "outputs": [
        {
          "internalType": "address",
          "name": "",
          "type": "address"
        }
      ],
      "stateMutability": "view",
      "type": "function"
    },
    {
      "inputs": [],
      "name": "platformFeeBps",
      "outputs": [
        {
          "internalType": "uint16",
          "name": "",
          "type": "uint16"
        }
      ],
      "stateMutability": "view",
      "type": "function"
    },
    {
      "inputs": [],
      "name": "platformWallet",
      "outputs": [
        {
          "internalType": "address",
          "name": "",
          "type": "address"
        }
      ],
      "stateMutability": "view",
      "type": "function"
    },
    {
      "inputs": [],
      "name": "renounceOwnership",
      "outputs": [],
      "stateMutability": "nonpayable",
      "type": "function"
    },
    {
      "inputs": [
        {
          "internalType": "uint16",
          "name": "_platformFeeBps",
          "type": "uint16"
        }
      ],
      "name": "setPlatformFeeBps",
      "outputs": [],
      "stateMutability": "nonpayable",
      "type": "function"
    },
    {
      "inputs": [
        {
          "internalType": "address",
          "name": "_platformWallet",
          "type": "address"
        }
      ],
      "name": "setPlatformWallet",
      "outputs": [],
      "stateMutability": "nonpayable",
      "type": "function"
    },
    {
      "inputs": [
        {
          "internalType": "uint256",
          "name": "_stakeAmount",
          "type": "uint256"
        }
      ],
      "name": "setStakeAmount",
      "outputs": [],
      "stateMutability": "nonpayable",
      "type": "function"
    },
    {
      "inputs": [],
      "name": "stakeAmount",
      "outputs": [
        {
          "internalType": "uint256",
          "name": "",
          "type": "uint256"
        }
      ],
      "stateMutability": "view",
      "type": "function"
    },
    {
      "inputs": [
        {
          "internalType": "address",
          "name": "newOwner",
          "type": "address"
        }
      ],
      "name": "transferOwnership",
      "outputs": [],
      "stateMutability": "nonpayable",
      "type": "function"
    },
    {
      "inputs": [],
      "name": "usdc",
      "outputs": [
        {
          "internalType": "contract IERC20",
          "name": "",
          "type": "address"
        }
      ],
      "stateMutability": "view",
      "type": "function"
    }
  ],
  "bytecode": "0x60803461011357601f614ced38819003918201601f19168301916001600160401b0383118484101761011857808492608094604052833981010312610113576100478161012e565b9060208101519060408101519061ffff821680920361011357606061006c910161012e565b9133156100fa57600080546001600160a01b03198082163390811784556040519791936001600160a01b03938416907f8be0079c531659141344cd1fd0a4f28419497f9722a3daafe3b4186f6b6457e09080a3169060015416176001556002556003549162010000600160b01b039060101b169160018060b01b0319161717600355614baa90816101438239f35b604051631e4fbdf760e01b815260006004820152602490fd5b600080fd5b634e487b7160e01b600052604160045260246000fd5b51906001600160a01b03821682036101135756fe604060808152600490813610156200001657600080fd5b600091823560e01c908163117a5b901462000c0057816317b7a4761462000be05781631b76929c14620008c757816322dcd13e14620008a25781633bc1f7b314620007f85781633e413bee14620007cd57816343808c50146200077b57816360c7dc47146200075a578163715018a614620006fc578163782be8dd14620006aa5781638831e9cf14620005e55781638da5cb5b14620005bb578163c04c59471462000525578163c626c52e14620004e3578163d9169b7714620004a1578163e580f6ab14620001c6578163f2fde38b146200012d575063fa2af9da14620000fc57600080fd5b346200012957816003193601126200012957600354905160109190911c6001600160a01b03168152602090f35b5080fd5b91905034620001c2576020366003190112620001c2576001600160a01b03823581811693919290849003620001be576200016662000d8b565b8315620001a857505082546001600160a01b0319811683178455167f8be0079c531659141344cd1fd0a4f28419497f9722a3daafe3b4186f6b6457e08380a380f35b51631e4fbdf760e01b8152908101849052602490fd5b8480fd5b8280fd5b91905034620001c257602092836003193601126200049e5782359060ff82168092036200049e5760028210158062000493575b1562000459576001805460025485516323b872dd60e01b8152338882015230602482015260448101919091526001600160a01b0391889082906064908290889087165af19081156200044f5784916200042d575b5015620003f3578082541660025490600354875192613dbc928385019385851067ffffffffffffffff861117620003e0579260c094928792879562000db9873984528d84015261ffff81168b84015260101c1660608201528760808201523360a082015203019084f0958615620003d65781808454169716968860025460448a888b51958694859363a9059cbb60e01b85528985015260248401525af18015620003cc5762000398575b5080549068010000000000000000821015620003855783820190556200031d9062000c45565b819291549060031b9188831b921b191617905584825260058652838083209260ff199383858254161790556006885220918254161790558151908152827ff07bba371ea0d2447d1f0c3117c8b406cd52b30f3f3046b5179c661164d1ec5d853393a351908152f35b634e487b7160e01b855260419052602484fd5b620003bc90893d8b11620003c4575b620003b3818362000cda565b81019062000d71565b5038620002f7565b503d620003a7565b87513d87823e3d90fd5b85513d85823e3d90fd5b634e487b7160e01b895260418c52602489fd5b845162461bcd60e51b815280870188905260146024820152731554d110c81d1c985b9cd9995c8819985a5b195960621b6044820152606490fd5b620004489150883d8a11620003c457620003b3818362000cda565b386200024d565b86513d86823e3d90fd5b825162461bcd60e51b81528085018690526014602482015273125b9d985b1a59081c1b185e595c8818dbdd5b9d60621b6044820152606490fd5b5083821115620001f9565b80fd5b905034620001c2576020366003190112620001c257356001600160a01b03811690819003620001c257818360ff92602095526006855220541690519015158152f35b905034620001c2576020366003190112620001c257356001600160a01b03811690819003620001c257818360ff92602095526005855220541690519015158152f35b83833462000129578160031936011262000129578051918284549081815260208091019583527f8a35acfbc15ff81a39ae7d344fd709f28e8600b4aa8c65c6b64bfe7fe36bd19b92905b8282106200059a576200059686866200058b828b038362000cda565b519182918262000c93565b0390f35b83546001600160a01b0316875295860195600193840193909101906200056f565b5050346200012957816003193601126200012957905490516001600160a01b039091168152602090f35b91905034620001c2576020366003190112620001c25781356001600160a01b03811692838203620001be576200061a62000d8b565b83156200067657506003805462010000600160b01b03191660109290921b62010000600160b01b0316919091179055519081527f73238e3ae0a71b401b31ae67204506d074de41bd5c084082fba9b64b1c7fa28f90602090a180f35b606490602084519162461bcd60e51b8352820152600e60248201526d125b9d985b1a59081dd85b1b195d60921b6044820152fd5b91905034620001c25782600319360112620001c25760a09250600180841b03806001541692600254926003549154938151958652602086015261ffff82169085015260101c1660608301526080820152f35b83346200049e57806003193601126200049e576200071962000d8b565b80546001600160a01b03198116825581906001600160a01b03167f8be0079c531659141344cd1fd0a4f28419497f9722a3daafe3b4186f6b6457e08280a380f35b50503462000129578160031936011262000129576020906002549051908152f35b905034620001c2576020366003190112620001c2577fc3869fc4914caa4e69064c93dc69ce5b5b73da5a26717b551e7b6b23f2db9b1b916020913590620007c162000d8b565b8160025551908152a180f35b505034620001295781600319360112620001295760015490516001600160a01b039091168152602090f35b91905034620001c2576020366003190112620001c25781359161ffff83168093036200089e576200082862000d8b565b61138883116200086d5750816020917f5d2a2d0f51702b0b9609f57228dbb13cfbe0dfa0dc02566c97670dbc8f386e229361ffff19600354161760035551908152a180f35b6020606492519162461bcd60e51b8352820152600c60248201526b08ccaca40e8dede40d0d2ced60a31b6044820152fd5b8380fd5b505034620001295781600319360112620001295760209061ffff600354169051908152f35b8383346200012957816003193601126200012957825482805b82811062000ab1575062000910620008f88562000d58565b94620009078551968762000cda565b80865262000d58565b602090601f1901368683013781825b848110620009365785518062000596898262000c93565b620009418162000c45565b8960018060a01b03809354600393841b1c1689518781631006976960e11b9485825281855afa90811562000aa757899162000a85575b508c81101562000a7257879015928315620009ec575b505050620009a1575b50506001016200091f565b620009ac8362000c45565b9054911b1c16620009bd8362000d32565b928851811015620009d95760051b880184015260018962000996565b634e487b7160e01b865260328a52602486fd5b909192508c8b518094819382525afa90811562000a6857879162000a34575b508a81101562000a21576001148b86816200098d565b634e487b7160e01b875260218b52602487fd5b62000a599150863d881162000a60575b62000a50818362000cda565b81019062000d13565b8b62000a0b565b503d62000a44565b89513d89823e3d90fd5b634e487b7160e01b895260218d52602489fd5b62000aa09150883d8a1162000a605762000a50818362000cda565b8d62000977565b8b513d8b823e3d90fd5b62000abc8162000c45565b90548551631006976960e11b808252602093909260039190911b1c6001600160a01b03169083818b81855afa90811562000bd657869162000bb4575b508981101562000ba1571591821562000b36575b5050905062000b1f575b600101620008e0565b9362000b2d60019162000d32565b94905062000b16565b839192508988518094819382525afa9182156200044f57849262000b7f575b50508681101562000b6c5760011480888062000b0c565b634e487b7160e01b835260218752602483fd5b62000b999250803d1062000a605762000a50818362000cda565b878062000b55565b634e487b7160e01b865260218a52602486fd5b62000bcf9150843d861162000a605762000a50818362000cda565b8a62000af8565b88513d88823e3d90fd5b905034620001c25782600319360112620001c25760209250549051908152f35b8284346200049e5760203660031901126200049e57823592548310156200049e575062000c2f60209262000c45565b905491519160018060a01b039160031b1c168152f35b60045481101562000c7d5760046000527f8a35acfbc15ff81a39ae7d344fd709f28e8600b4aa8c65c6b64bfe7fe36bd19b0190600090565b634e487b7160e01b600052603260045260246000fd5b602090602060408183019282815285518094520193019160005b82811062000cbc575050505090565b83516001600160a01b03168552938101939281019260010162000cad565b90601f8019910116810190811067ffffffffffffffff82111762000cfd57604052565b634e487b7160e01b600052604160045260246000fd5b9081602091031262000d2d5751600481101562000d2d5790565b600080fd5b600019811462000d425760010190565b634e487b7160e01b600052601160045260246000fd5b67ffffffffffffffff811162000cfd5760051b60200190565b9081602091031262000d2d5751801515810362000d2d5790565b6000546001600160a01b0316330362000da057565b60405163118cdaa760e01b8152336004820152602490fdfe61012034620003c3576001600160401b0390601f62003dbc38819003918201601f19168301919084831184841017620003ad578160c09285926040958652833981010312620003c3576200005382620003c8565b9160209081810151838201519561ffff87168703620003c3576200007a60608401620003c8565b9260808101519760ff91828a1690818b03620003c35760a06200009e9101620003c8565b9888519660c0880188811087821117620003ad578a5260019384895260028a8a015260028b8a01526003978860608b01528860808b01526004998a60a08201526000908c886000915b8d600684106200038c57505050505060005560028510158062000381575b156200033e5760018060a01b0380941660805260a05260c05260e05261010099338b526200013d84549c4260115543601055620003dd565b918a519160a083018381108982111762000329578c5216808252601e8a8301528583168b83015260006060830181905260809092018590526002805460b09490941b60ff60b01b16600f60a11b6001600160b81b03199590951683179490941761ffff60b81b191693909317600160c01b1790925563ffffffff19909b1690911789178255979896979596815b620002c6575b505050855192606084019184831090831117620002b1575085528082528184015260009084018190526006805462ffffff19166103031790558351918252917fd4f57815000e6f354149b86e4f473ea312f41ed40ba3af5a8a5cb5dc77411e5891a2516139ba91826200040283396080518281816106620152818161081701528181611853015281816129f00152612a83015260a051828181610624015281816107de0152818161159f01526128c8015260c051828181611c2201526128f8015260e0518281816102090152818161294c01526129b301525181610d7a0152f35b604190634e487b7160e01b6000525260246000fd5b603180848316101562000322578110156200030d57828282819360051c80600701908154918560f8858d1b161b8019809416179055600901908154169055011690620001ca565b603286634e487b7160e01b6000525260246000fd5b50620001d0565b60418b634e487b7160e01b6000525260246000fd5b8b5162461bcd60e51b8152808b018c9052601460248201527f496e76616c696420706c6179657220636f756e740000000000000000000000006044820152606490fd5b508985111562000105565b90919293948c8581885116931b92831b921b19161793019101888e620000e7565b634e487b7160e01b600052604160045260246000fd5b600080fd5b51906001600160a01b0382168203620003c357565b60ff1660028114620003fb57600314620003f657600c90565b600f90565b5060189056fe608060405260048036101561001357600080fd5b600090813560e01c9081630e1da6c314611e3157816313cb036214611d5f57816313d45f6614611c73578163200d2ed214611c4657816322dcd13e14611c075781632d4635f214611bce578163315a2735146113da5781633264a34b1461190c57816339fddff6146118825781633e413bee1461183d5781634669d629146116125781634a478d96146115e75781635700401e146115c25781635e59efc314610d0257816360c7dc4714611587578163726897dc146114385781637585e49f14611417578163764a5168146113da57816376fc860d14610e695781638b5b9ccc14611225578163972161f714610ebf57816397b2f55614610e9e578163a3acbe7114610e69578163a6dc731814610e4b578163b1c9fe6e14610e20578163b7d0628b14610da9578163c45a015514610d64578163c7198b0714610d3f578163cb6f117a14610d02578163cf09e0d014610ce4578163cf8515f414610cc0578163d40e27b514610ad4578163d4f77b1c14610773578163d84c1ac914610549578163dc118ad51461050e578163e75a0469146102b0578163f71d96cb1461023857508063fa2af9da146101f35763fb9bdab4146101ce57600080fd5b346101f057806003193601126101f057602060015460ff60405191831c168152f35b80fd5b50346101f057806003193601126101f0576040517f00000000000000000000000000000000000000000000000000000000000000006001600160a01b03168152602090f35b9050346102ac5760203660031901126102ac578035908110156102ac5760020154604080516001600160a01b038316815260a083811c61ffff16602083015260b084901c60ff9081169383019390935260b884901c83161515606083015260c09390931c90911615156080820152f35b0390f35b5080fd5b9050346102ac5760803660031901126102ac576102cb611f61565b60243560ff9283821680830361050a576044359285841692838503610506576064359487861695868103610502576001549361031760018b8760101c1661031181611f16565b14612045565b898560201c1693808510156104ef57600285018054909690916103446001600160a01b0384163314612083565b8c8260181c1660088110156104dc578587868f610366600661036b96146120bf565b6135ef565b156104a45750608099979561041e8c6104008f987f049432fe383bc0b8d4eb48af3362d3d989f86214f5f0336a0a92884dcff4160f9f9d9b986103f6610419916103eb6103f06104329c61045b9f6103de6103eb9e826104009f6103e3946103d391166135cd565b9160b01c16906124f1565b61252e565b9c8d99612554565b612540565b94612554565b9561040083611f76565b90919060ff8084549260031b9316831b921b1916179055565b611fa4565b6104198d60015460201c1661040083611f76565b61044189825460b01c16612569565b815460ff60b01b191660b09190911b60ff60b01b16179055565b8660015460201c169660405194168452602084015260408301526060820152a2610483613833565b1561049757610490612849565b4360105580f35b61049f6126cb565b610490565b60649060206040519162461bcd60e51b83528201526011602482015270125b9d985b1a59081c1b1858d95b595b9d607a1b6044820152fd5b634e487b7160e01b8f526021825260248ffd5b634e487b7160e01b8c526032905260248bfd5b8980fd5b8780fd5b8580fd5b9050346102ac5760203660031901126102ac57359060318210156101f057602060ff61053984611fa4565b9190546040519260031b1c168152f35b9050346102ac57816003193601126102ac57600180549160ff9260ff8160101c1661057381611f16565b61073c57601154610e1081018091116107295742106106ef5763ffff0000191663070300001760015583825b6105cc575b847f1dc43dc4f1689be1269b3e80407b3401b4cb752c02591cac32e47dfd758af27d8180a180f35b83835460081c1684821610156106ea57818110156106d757908382849360020154828160c01c16610603575b50830116909161059f565b6040805163a9059cbb60e01b81526001600160a01b039283168682019081527f0000000000000000000000000000000000000000000000000000000000000000602082810191909152975090945086928592909183918c9183910103927f0000000000000000000000000000000000000000000000000000000000000000165af19081156106cc5785948793869361069e575b5050906105f8565b816106bd92903d106106c5575b6106b58183612180565b810190612505565b503880610696565b503d6106ab565b6040513d89823e3d90fd5b634e487b7160e01b855260328252602485fd5b6105a4565b60405162461bcd60e51b81526020818401526013602482015272151bdbc819585c9b1e481d1bc818d85b98d95b606a1b6044820152606490fd5b634e487b7160e01b865260118352602486fd5b60405162461bcd60e51b8152602081840152601060248201526f47616d65206e6f742077616974696e6760801b6044820152606490fd5b9050346102ac57816003193601126102ac57600190815460ff90818160181c169060089182811015610ac1576107a990156120bf565b8280821691831c161015610a91576107c033613573565b610a5c576040516323b872dd60e01b815233848201523060248201527f00000000000000000000000000000000000000000000000000000000000000006044820152602092906001600160a01b039084816064818b7f000000000000000000000000000000000000000000000000000000000000000087165af1908115610a51578891610a34575b50156109f957855494610861838088871c1697166135cd565b916040519260a0840184811067ffffffffffffffff8211176109e657604052338452868401601e815285604086019216825260608501928b845260808601948b8652808b10156109d35750945160028a018054925161ffff60a01b60a09190911b166001600160b01b03199093169190961661ffff60a01b1916171784556108ff90859051855460ff60b01b1916911660b01b60ff60b01b16178455565b518254915161ffff60b81b1990921690151560b81b60ff60b81b161790151560c01b60ff60c01b1617905584549261ff0061093d85851c841661251d565b841b16947fd4f57815000e6f354149b86e4f473ea312f41ed40ba3af5a8a5cb5dc77411e588661ff001987161792838955604051338152a2818416921c1614610984578380f35b62ffff00191617620100001766ffffffff000000191665010001000000179055436010557f762f260439bb4be3ef6e4dc2786e2e7bd187d3d80b79057d7a424fe98563e3358180a13880808380f35b634e487b7160e01b8d526032905260248cfd5b634e487b7160e01b8b526041845260248bfd5b60405162461bcd60e51b815280860185905260146024820152731554d110c81d1c985b9cd9995c8819985a5b195960621b6044820152606490fd5b610a4b9150853d87116106c5576106b58183612180565b38610848565b6040513d8a823e3d90fd5b60405162461bcd60e51b8152602081850152600e60248201526d105b1c9958591e481a9bda5b995960921b6044820152606490fd5b60405162461bcd60e51b8152602081850152600960248201526811d85b5948199d5b1b60ba1b6044820152606490fd5b634e487b7160e01b875260218552602487fd5b9050346102ac57602080600319360112610cbc57813582811015610cb85760015460ff93610b0c6001868460101c1661031181611f16565b8482851c169181831015610ca5578590610b3360018060a01b038560020154163314612083565b60181c166008811015610c925781610b4b91146120bf565b610b5483612fa6565b15610c56575091610b9b8492610c3d947f4fefad3e9890ca3bb9a7e97d9488e8f968587d66480fc6060dc61959d13750bb84604051610b9285611f16565b848152a261306f565b600d549183610bc782610bb585518b0b8488168c0b6124ae565b940151890b828660081c168a0b6124ae565b9281610bd7818760101c16613116565b938160405193610be68561212b565b168352820194168452610bf883611f16565b826040820152511662ff000061ff00600654945160081b1692610c1a81611f16565b610c2381611f16565b60101b169262ffffff191617171760065560181c166124de565b908116610c4d575061049061315d565b61049f90612ce2565b60405162461bcd60e51b81529081018490526015602482015274496e76616c696420626f726465722063686f69636560581b6044820152606490fd5b634e487b7160e01b875260218252602487fd5b634e487b7160e01b875260328252602487fd5b8380fd5b8280fd5b82346101f057806003193601126101f057602060ff60015460081c16604051908152f35b82346101f057806003193601126101f0576020601154604051908152f35b82346101f057806003193601126101f0576102a8600d54604051918160ff849360181c169060ff8160101c169060ff808260081c16911685611fbc565b82346101f057806003193601126101f0576040600b54600c5482519182526020820152f35b82346101f057806003193601126101f0576040517f00000000000000000000000000000000000000000000000000000000000000006001600160a01b03168152602090f35b82346101f057806003193601126101f05760e060015460ff90818160101c169180600f54169160405193610ddc81611f16565b8452610df060208501838360181c16612038565b818160201c16604085015261ffff8160281c166060850152818116608085015260081c1660a083015260c0820152f35b82346101f057806003193601126101f057602060ff60015460181c16610e496040518092612038565bf35b82346101f057806003193601126101f0576020601054604051908152f35b82346101f057806003193601126101f0576102a8600654604051918160ff849360101c169060ff808260081c16911684611fea565b82346101f057806003193601126101f057602060ff60015416604051908152f35b82346101f057806003193601126101f057604051610edc81612147565b6106208091369037604051610ef081612147565b36903760015460ff600f5416600654610f07612223565b9060405192836009965b6031601f820110611092575061108792610e4995949260ff9261020084610d809b548181168452818160081c166020850152818160101c166040850152818160181c166060850152818160201c166080850152818160281c1660a0850152818160301c1660c0850152818160381c1660e0850152818160401c16610100850152818160481c16610120850152818160501c16610140850152818160581c16610160850152818160601c16610180850152818160681c166101a0850152818160701c166101c0850152818160781c166101e085015260801c16910152610ff586612147565b8260405198611008828260101c16611f16565b818160101c168a5261102260208b01838360181c16612038565b818160201c1660408b015261ffff8160281c1660608b015281811660808b015260081c1660a089015260c088015281811660e0880152818160081c16610100880152611072828260101c16611f16565b60101c16610120860152610140850190611f36565b610760830190611f36565b9060016104006020928a5460ff8116825260ff8160081c168583015260ff8160101c16604083015260ff816060828260181c16818601528282608082828c1c1681890152828260a092828260281c16848c0152828260c0988d8a848460301c169101528d60e0848460381c169101528d610100848460401c169101528d610120848460481c169101528d610140848460501c169101528d610160848460581c169101521c166101808c0152828260681c166101a08c0152828260701c166101c08c0152828260781c166101e08c01521c16610200890152828260881c16610220890152828260901c16610240890152828260981c166102608901521c16610280860152828260a81c166102a0860152828260b01c166102c0860152828260b81c166102e08601521c1661030083015260ff8160c81c1661032083015260ff8160d01c1661034083015260ff8160d81c1661036083015260ff8160e01c1661038083015260ff8160e81c166103a083015260ff8160f01c166103c083015260f81c6103e08201520198019101969096610f11565b82346101f057806003193601126101f05760405161124281612164565b608091823683376040519261125684612164565b8036853760405161126681612164565b8136823760405161127681612164565b823682376040519161128783612164565b83368437845b60ff808216908a82101561132c578a83101561131957600283015460ff93600193909290611309906001600160a01b0384166112c9828f61249d565b528d6112dd8261ffff8760a01c169261249d565b52828460b01c166112ee828a61249d565b526112f9818a61249d565b838560b81c16151590528961249d565b9160c01c1615159052011661128d565b634e487b7160e01b885260328b52602488fd5b8589868d878c8f8d60405196879084915b8783106113ba5750505086019082915b85831061139f5750505061010085015b8382106113855761028086610e498961137a61018084018a61200e565b61020083019061200e565b60019060ff8451168152602080910193019101909161135d565b60019061ffff8351168152602080910192019201919061134d565b81516001600160a01b03168152600192909201916020918201910161133d565b82346101f057806003193601126101f057600e546040805160ff8084168252600884901c16602082015260109290921c61ffff1690820152606090f35b82346101f057806003193601126101f057602060ff600f5416604051908152f35b9050346102ac5760203660031901126102ac5780359080821015610cbc576001549061146f600160ff8460101c1661031181611f16565b60ff8260201c16818110156106d75760020154611496906001600160a01b03163314612083565b60ff8260181c1660088110156115745760016114b291146120bf565b600654906114c68460ff8460101c16612eee565b1561153c575060ff63020000007f0f76db49cb695510d836e64c343594a82d376326e031ba84f930c7befc2c1f1c9360209361150187611f16565b62ff00008760101b169062ff000019161760065563ff00000019161780600155436010556040519461153281611f16565b8552821c1692a280f35b60649060206040519162461bcd60e51b8352820152601160248201527024b73b30b634b2103234b932b1ba34b7b760791b6044820152fd5b634e487b7160e01b855260218252602485fd5b82346101f057806003193601126101f05760206040517f00000000000000000000000000000000000000000000000000000000000000008152f35b82346101f057806003193601126101f057602061ffff60015460281c16604051908152f35b9050346102ac5760203660031901126102ac57359060318210156101f057602060ff61053984611f76565b82346101f0576020806003193601126102ac57823560015490611640600160ff8460101c1661031181611f16565b60ff82841c16918583101561182a5760ff9061166960018060a01b038560020154163314612083565b60181c16600881101561181757600361168291146120bf565b600c5490814311156117d35761010082018083116117c057431161178b57604051848101908282528581526116b6816120f9565b519020600b5403611758579060069160405190858201924083526040820152604081526116e28161212b565b51902006600660ff8216101561174557907f7b1aa3c6771bf8d4df2d1c35e127b8ef900ea1664ea3290be43af7f79e5c9f1c60ff8360f86007610490979660051c16549160031b161c16928360ff19600f541617600f55604051848152a2612ce2565b634e487b7160e01b845260328552602484fd5b60405162461bcd60e51b8152808701859052600c60248201526b125b9d985b1a59081cd85b1d60a21b6044820152606490fd5b60405162461bcd60e51b8152808701859052600e60248201526d10dbdb5b5a5d08195e1c1a5c995960921b6044820152606490fd5b634e487b7160e01b865260118752602486fd5b60405162461bcd60e51b8152808701859052601a60248201527f4d7573742077616974206174206c65617374203120626c6f636b0000000000006044820152606490fd5b634e487b7160e01b855260218652602485fd5b634e487b7160e01b855260328652602485fd5b82346101f057806003193601126101f0576040517f00000000000000000000000000000000000000000000000000000000000000006001600160a01b03168152602090f35b82346101f05760203660031901126101f05761189c611f61565b91808310156118f9576002830154604080516001600160a01b038316815260a083811c61ffff16602083015260b084901c60ff9081169383019390935260b884901c83161515606083015260c09390931c90911615156080820152f35b634e487b7160e01b825260329052602490fd5b82346101f057806003193601126101f05760405161192981612147565b61062080913690378060405161193e81612147565b369037611949612223565b9060405190816009945b6031601f820110611a47575090610e499291610200610c40965460ff908181168452818160081c166020850152818160101c166040850152818160181c166060850152818160201c166080850152818160281c1660a0850152818160301c1660c0850152818160381c1660e0850152818160401c16610100850152818160481c16610120850152818160501c16610140850152818160581c16610160850152818160601c16610180850152818160681c166101a0850152818160701c166101c0850152818160781c166101e085015260801c16910152611a3282612147565b611a3f6040518095611f36565b830190611f36565b906001610400602092885460ff808216835280828482828a828260081c1681850152828260101c1660408501528282606092828260181c168488015282826080921c1681880152828260a095828260281c16878b015260c099838360301c168b820152838360381c1660e0820152838360401c16610100820152838360481c16610120820152838360501c16610140820152610160848460581c169101521c166101808d0152828260681c166101a08d0152828260701c166101c08d0152828260781c166101e08d01521c166102008a0152828260881c166102208a0152828260901c166102408a0152828260981c166102608a01521c16610280870152828260a81c166102a0870152828260b01c166102c0870152828260b81c166102e08701521c16610300840152808260c81c16610320840152808260d01c16610340840152808260d81c16610360840152808260e01c16610380840152808260e81c166103a08401528160f01c166103c083015260f81c6103e08201520196019101949094611953565b9050346102ac5760203660031901126102ac57356001600160a01b03811681036102ac5790611bfe6020926121a2565b604051910b8152f35b82346101f057806003193601126101f057602060405161ffff7f0000000000000000000000000000000000000000000000000000000000000000168152f35b82346101f057806003193601126101f057602060ff60015460101c1660405190611c6f81611f16565b8152f35b9050346102ac5760203660031901126102ac5780359060015490611ca2600160ff8460101c1661031181611f16565b60ff8260201c16818110156106d75760020154611cc9906001600160a01b03163314612083565b60ff8260181c16906008821015611d4c575060ff63030000007f9dccfab01afd40598b5c5dade2781b72ab4e70e1292f0d080151ff1dc85d6a6993611d126002602095146120bf565b604051611d1e816120f9565b868152844391015285600b5543600c5563ff0000001916178060015543601055604051948552821c1692a280f35b634e487b7160e01b855260219052602484fd5b9050346102ac57816003193601126102ac57600154611d89600160ff8360101c1661031181611f16565b60ff8160201c1682811015611e1e576002015460ff9190611db4906001600160a01b03163314612083565b60181c16906008821015611e0b57506005611dcf91146120bf565b611dd7612bb6565b4360105560ff60015460201c167f9e1cbfeae206833f4bed941ec158aba382f584b035ee358d139f7a260d6c906f8280a280f35b634e487b7160e01b835260219052602482fd5b634e487b7160e01b845260328352602484fd5b9050346102ac57816003193601126102ac5760015490611e5c600160ff8460101c1661031181611f16565b6010546101008101809111611f0357431115611ecb575060201c60ff16611e8281612579565b7f5a27f5894322b0a59a58a977def37c8d5be16aba9a1493a1a5a776fee6340c3d8280a2600160ff611eb2612624565b1611611ec357611ec0612849565b80f35b611ec06126cb565b60649060206040519162461bcd60e51b83528201526011602482015270139bdd081d1a5b5959081bdd5d081e595d607a1b6044820152fd5b634e487b7160e01b845260118252602484fd5b60041115611f2057565b634e487b7160e01b600052602160045260246000fd5b6000915b60318310611f4757505050565b60019060ff83511681526020809101920192019190611f3a565b6004359060ff82168203611f7157565b600080fd5b906031821015611f8e57601f8260051c600701921690565b634e487b7160e01b600052603260045260246000fd5b906031821015611f8e57601f8260051c600901921690565b929360ff91959482606094816080880199168752166020860152611fdf81611f16565b604085015216910152565b60ff60409295949381606084019716835216602082015261200a83611f16565b0152565b6000915b6004831061201f57505050565b6001908251151581526020809101920192019190612012565b906008821015611f205752565b1561204c57565b60405162461bcd60e51b815260206004820152600f60248201526e47616d65206e6f742061637469766560881b6044820152606490fd5b1561208a57565b60405162461bcd60e51b815260206004820152600d60248201526c2737ba103cb7bab9103a3ab93760991b6044820152606490fd5b156120c657565b60405162461bcd60e51b815260206004820152600b60248201526a57726f6e6720706861736560a81b6044820152606490fd5b6040810190811067ffffffffffffffff82111761211557604052565b634e487b7160e01b600052604160045260246000fd5b6060810190811067ffffffffffffffff82111761211557604052565b610620810190811067ffffffffffffffff82111761211557604052565b6080810190811067ffffffffffffffff82111761211557604052565b90601f8019910116810190811067ffffffffffffffff82111761211557604052565b6001805460009260ff92918316908490835b6121c5575b50505050505060001990565b8486168381101561221d5760048088101561220a575060028701546001600160a01b038381169116146121ff5750948301841694836121b4565b955050925050500b90565b634e487b7160e01b845260329052602483fd5b506121b9565b6040906040519182906007906000905b6031601f83011061230c575050610200905460ff908181168452818160081c166020850152818160101c166040850152818160181c166060850152818160201c166080850152818160281c1660a0850152818160301c1660c0850152818160381c1660e0850152818160401c16610100850152818160481c16610120850152818160501c16610140850152818160581c16610160850152818160601c16610180850152818160681c166101a0850152818160701c166101c0850152818160781c166101e085015260801c1691015261230a82612147565b565b9091926001610400602092865460ff8116825260ff8187828289828260081c1681890152828260101c16848901528282606092828260181c16848c015282826080921c16818c0152828260a0958d87848460281c169101528d610100848460c09d8e838360301c1690860152828260381c1660e08601521c169101528d610120848460481c169101528d610140848460501c169101528d610160848460581c169101521c166101808c0152828260681c166101a08c0152828260701c166101c08c0152828260781c166101e08c01521c16610200890152828260881c16610220890152828260901c16610240890152828260981c166102608901521c16610280860152828260a81c166102a0860152828260b01c166102c0860152828260b81c166102e08601521c1661030083015260ff8160c81c1661032083015260ff8160d01c1661034083015260ff8160d81c1661036083015260ff8160e01c1661038083015260ff8160e81c166103a083015260ff8160f01c166103c083015260f81c6103e0820152019401920190612233565b906004811015611f8e5760051b0190565b9060000b9060000b0190607f198212607f8313176124c857565b634e487b7160e01b600052601160045260246000fd5b60ff6000199116019060ff82116124c857565b9060ff8091169116039060ff82116124c857565b90816020910312611f7157518015158103611f715790565b60ff1660ff81146124c85760010190565b60ff60019116019060ff82116124c857565b9060ff8091169116019060ff82116124c857565b60ff60079116029060ff82169182036124c857565b60ff1680156124c8576000190190565b6004811015611f8e5760028101805463ff00ffff60a01b1916600160b81b17905560005b60ff603181831610156125f857816001916125b960ff94611f76565b905460039291831b1c8116868216146125d6575b5050011661259d565b6125df83611f76565b81939154911b9160fe831b921b191617905538806125cd565b505060ff167f1db753061d684884acf37beb032f14f3dc5a25388d7382e187ec78a5d3f0fa3c600080a2565b6001805460009160ff918216835b8184821610612642575050505090565b60048082101561267b575083816002015460b81c1615612666575b82018316612632565b9382612672859261251d565b9591505061265d565b603290634e487b7160e01b6000525260246000fd5b9060ff169081156126a25760ff160690565b634e487b7160e01b600052601260045260246000fd5b61ffff8091169081146124c85760010190565b600180549060ff916126ee836126e5818460201c1661252e565b92168092612690565b926000835b6127dc575b5082906000935b612769575b50505050612710613833565b6127605763010000009064ff000000006001549160201b169064ffff0000001916171766ffff000000000061274b61ffff8360281c166126b8565b60281b169066ffff0000000000191617600155565b5061230a612849565b9091929360048082101561267b5750806002015482808260b01c161591826127ce575b5050806127c3575b156127bd576127ae846127a96127b49361252e565b612690565b9461251d565b929190816126ff565b93612704565b508382861610612794565b60b81c16159050823861278c565b9360049392938082101561267b575081816002015460b81c1680612828575b1561281f57612817612811856127a9869461252e565b9561251d565b9093926126f3565b939291926126f8565b5083828616106127fb565b91909161ffff808094169116019182116124c857565b6001805463ffff0000198116630702000017825560009160ff91821691908380825b612af7575b50505060048084101580612ae2578460020160018060a01b03926128ec84835416966040968751991689527f63ddd5c647904e83e6f7553d625effc3889bb06fe73cb3b9b911dc8ab460cb718760209a8a8c820152a17f0000000000000000000000000000000000000000000000000000000000000000613898565b9261271061291e61ffff7f00000000000000000000000000000000000000000000000000000000000000001686613898565b049687850394808611612acd578803612a4b575b508661299d575b61267b57505483519083168152948501527f0000000000000000000000000000000000000000000000000000000000000000169083015260608201527f59ca82b22a2055ee9de68a8ba60482d3029ab83dde06a15377125c19bd14d90490608090a1565b855163a9059cbb60e01b81526001600160a01b037f00000000000000000000000000000000000000000000000000000000000000001683820190815260208101899052899082908190604001038160008a7f0000000000000000000000000000000000000000000000000000000000000000165af18015612a4057612a23575b50612939565b612a3990893d8b116106c5576106b58183612180565b5038612a1d565b87513d6000823e3d90fd5b865163a9059cbb60e01b81526001600160a01b039091168382019081526020810186905260009250899082908190604001038160008a7f0000000000000000000000000000000000000000000000000000000000000000165af18015612a40571561293257612ac690893d8b116106c5576106b58183612180565b5038612932565b601184634e487b7160e01b6000525260246000fd5b603282634e487b7160e01b6000525260246000fd5b83811685811015612bb05760048083101561267b57508160020154908486808460b81c16612ba45750506000908686835b603183821610612b715750505050612b489061ffff809360a01c16612833565b9080841690821611612b65575b5090838380935b0116909161286b565b90955090508483612b55565b8383612b7c83611f76565b90549060031b1c1614612b94575b0116868891612b28565b93612b9e906126b8565b93612b8a565b92509392849150612b5c565b50612870565b600e5461ffff808260101c169182151580612ccf575b612be9575b505050630600000063ff000000196001541617600155565b60ff928382166004811015611f8e576002019160081c84166004811015611f8e5760020183835460a01c1691828111600014612cc95750815b84831690038481116124c857835461ffff60a01b191660a09190911b61ffff60a01b16178355612c7891612c5c9085835460a01c16612833565b815461ffff60a01b191660a09190911b61ffff60a01b16179055565b5460a01c1615612c8a575b8080612bd1565b612c9781600e5416612579565b600181612ca2612624565b1611156127605780600e54169060015460201c1614612cc15738612c83565b61230a6126cb565b91612c22565b5060ff8160081c1660ff82161415612bcc565b905b60ff91828116928315612e9a57612d4793600691825490808260101c1692612d0b8461306f565b9382841690600095612d228151880b84890b6124ae565b966008968681891c1695612d3f602080950151840b88850b6124ae565b9d8e8b6138ab565b15612d77575050505050505061ff00612d7196978554931b1692169061ffff191617179055612569565b90612ce4565b93985093985093989a509493604095865194608086019086821067ffffffffffffffff831117612e86575092612e819896949262ff0000928997957f3c1a2739dbf38a1a98d9082a0e9ae6184c4b0d52685200f122654984edce69979e9f9a528b86528501948c8652612de989611f16565b888882015260608101928352511663ff00000061ff00600d9788549751901b1692612e138a611f16565b612e1c8a611f16565b5160181b169463ffffffff191617179116171790556001630400000063ff000000198254161790557f1792a9cb1d081b3aac8e232f47544cbcf8fb0be6eb28b0ba24ee527539beb85a815180612e74858a8a84611fea565b0390a15194859485611fbc565b0390a1565b634e487b7160e01b81526041600452602490fd5b505090507f1792a9cb1d081b3aac8e232f47544cbcf8fb0be6eb28b0ba24ee527539beb85a612ee3600654604051918160ff849360101c169060ff808260081c16911684611fea565b0390a161230a61315d565b612ef781611f16565b801580612f93575b612f6857612f0c81611f16565b6001811480612f82575b612f6857612f2381611f16565b6002811480612f6f575b612f685780612f3d600392611f16565b149081612f54575b50612f4f57600190565b600090565b60029150612f6181611f16565b1438612f45565b5050600090565b50612f7982611f16565b60038214612f2d565b50612f8c82611f16565b8115612f16565b50612f9d82611f16565b60018214612eff565b600d5460ff8160101c16612fb981611f16565b801590811561305b575b501561303857612fd282611f16565b600282148015613025575b15612f685761301c612ff16130229361306f565b9160ff6020613009855160000b83851660000b6124ae565b94015160000b9160081c1660000b6124ae565b906138ab565b90565b5061302f82611f16565b60038214612fdd565b61304182611f16565b811580612fdd575061305282611f16565b60018214612fdd565b6001915061306881611f16565b1438612fc3565b60409081805161307e816120f9565b36903761308a81611f16565b80156130fc5761309981611f16565b600181146130e357806130ad600292611f16565b146130cb57516130bc816120f9565b60008152600019602082015290565b516130d5816120f9565b600081526001602082015290565b50516130ee816120f9565b600181526000602082015290565b5051613107816120f9565b60001981526000602082015290565b61311f81611f16565b80156131575761312e81611f16565b600181146131515780613142600292611f16565b1461314c57600290565b600390565b50600090565b50600190565b60069061318560065461318a60ff92828461317a81809616612554565b9160081c1690612540565b611f76565b91905460039260031b1c16908282148015613569575b8015613559575b6134a5578260065491604051906131bd82612147565b6106209081368437604051916131d283612147565b3683376000986131ee8a966103eb87808360081c169216612554565b613200600196879216808652866138ef565b525b878516888b16106132da5750505050507f0a80291ec3898e82c48e2494fcffa7d787833aff90d5d54d880da84590795ea8939450612e81906132748460015460201c166040516132518161212b565b818152856020820152604061ffff851691015260ff1660ff19600e541617600e55565b600e805463ffffff00191661ff00600886901b1617601083901b63ffff0000161790556001805463ff0000001916630500000017908190556040805160ff602093841c90971687168152959094169085015261ffff169183019190915281906060820190565b87806132f1816132e98e61251d565b9d16866138ef565b5116966007908983613308848c04948c069b611f76565b905490881b1c160361349c5761331d906126b8565b978383831680613452575b106133fb575b83838216806133a4575b10613346575b505050613202565b61335b61335561336193612554565b9161252e565b90612540565b1661336c81866138ef565b511561337b575b80899161333e565b600161338782876138ef565b5261339d896133958861251d565b9716856138ef565b5238613373565b846133ba6133b186612554565b61335b866124de565b166133c5818b6138ef565b51156133d2575b50613338565b60016133de828c6138ef565b526133f4866133ec8d61251d565b9c168a6138ef565b52386133cc565b82613411826103eb61340c8661252e565b612554565b1661341c81896138ef565b5115613429575b5061332e565b6001613435828a6138ef565b5261344b846134438b61251d565b9a16886138ef565b5238613423565b84613463846103eb61340c886124de565b1661346e818b6138ef565b511561347b575b50613328565b6001613487828c6138ef565b52613495866133ec8d61251d565b5238613475565b97505050613202565b50507f0a80291ec3898e82c48e2494fcffa7d787833aff90d5d54d880da84590795ea89192508061351e60609260015460201c166000604080516134e88161212b565b83815283602082015201526135078160ff1660ff19600e541617600e55565b61ff00600e549160081b169061ff00191617600e55565b63ffff000019600e5416600e55630500000063ff0000001960015416178060015560201c1660405190808252602082015260006040820152a1565b508260015460201c1682146131a7565b5060fe82146131a0565b60009060ff9160019160ff60015460081c16915b828582161061359a575050505050600090565b60048082101561267b575060028101546001600160a01b038381169116146135c55783018416613587565b505050905090565b60ff16600281146135e9576003146135e457600c90565b600f90565b50601890565b909260ff9384831660078110801590613826575b8015613819575b801561380c575b6138015784861690818111156137f15761362b86866124f1565b915b87851691600189808716958587116000146137de576136509061335b8a8a6124f1565b16036137c1576006549389851680921490816137cf575b506137c15788911492836137b2575b50505061379f576136878184613900565b6136918386613900565b901590816137a9575b5061379f576136b26103eb916103eb6136b895612554565b93612554565b826136c283611f76565b90549060031b1c1690836136f9816136eb816136dd86611f76565b90549060031b1c1696611fa4565b90549060031b1c1692611fa4565b90549060031b1c1690848314159384613793575b84613788575b8461377c575b84613772575b5083613768575b505081613756575b50613151578060015460201c166004811015611f8e576002015460b01c1615612f4f57600190565b90508160015460201c1614153861372e565b1491503880613726565b831493503861371f565b60fe8114159450613719565b858114159450613713565b60fe841415945061370d565b5050505050600090565b9050153861369a565b60081c16149050388681613676565b505050505050505050600090565b9050898560081c161438613667565b6137ec9061335b898b6124f1565b613650565b6137fb85876124f1565b9161362d565b505050505050600090565b5060078684161015613611565b506007868616101561360a565b5060078683161015613603565b6001805460ff9190821660005b81848216106138525750505050600190565b60048082101561267b5750806002015484808260b81c16159182613889575b50506138805782018316613840565b50505050600090565b60b01c16151590508438613871565b818102929181159184041417156124c857565b60000b90600082121591826138e4575b50816138d6575b816138cb575090565b6007915060000b1290565b600081810b121591506138c2565b6007139150386138bb565b906031811015611f8e5760051b0190565b600654909160ff9182841683821681811480613974575b61380157600195818693116000146139655790613933916124f1565b915b60081c16918284821611600014613958576139539261335b916124f1565b161490565b61335b90613953936124f1565b61396e916124f1565b91613935565b50848360081c168585161461391756fea2646970667358221220422147c8deeb70b18342dd12f739d9a12c8ecca0f9db8a08041177dd83a56b4064736f6c63430008180033a26469706673582212200feabd7986bc78d970cb939b9e867bb352fb0772cdf3709873431622bd74ad8c64736f6c63430008180033",
  "linkReferences": {},
  "deployedLinkReferences": {}
}